{
  "_format": "hh-sol-artifact-1",
  "contractName": "L2ERC721Bridge",
  "sourceName": "contracts/L2/L2ERC721Bridge.sol",
  "abi": [
    {
      "anonymous": false,
      "inputs": [
        {
          "indexed": true,
          "internalType": "address",
          "name": "localToken",
          "type": "address"
        },
        {
          "indexed": true,
          "internalType": "address",
          "name": "remoteToken",
          "type": "address"
        },
        {
          "indexed": true,
          "internalType": "address",
          "name": "from",
          "type": "address"
        },
        {
          "indexed": false,
          "internalType": "address",
          "name": "to",
          "type": "address"
        },
        {
          "indexed": false,
          "internalType": "uint256",
          "name": "tokenId",
          "type": "uint256"
        },
        {
          "indexed": false,
          "internalType": "bytes",
          "name": "extraData",
          "type": "bytes"
        }
      ],
      "name": "ERC721BridgeFinalized",
      "type": "event"
    },
    {
      "anonymous": false,
      "inputs": [
        {
          "indexed": true,
          "internalType": "address",
          "name": "localToken",
          "type": "address"
        },
        {
          "indexed": true,
          "internalType": "address",
          "name": "remoteToken",
          "type": "address"
        },
        {
          "indexed": true,
          "internalType": "address",
          "name": "from",
          "type": "address"
        },
        {
          "indexed": false,
          "internalType": "address",
          "name": "to",
          "type": "address"
        },
        {
          "indexed": false,
          "internalType": "uint256",
          "name": "tokenId",
          "type": "uint256"
        },
        {
          "indexed": false,
          "internalType": "bytes",
          "name": "extraData",
          "type": "bytes"
        }
      ],
      "name": "ERC721BridgeInitiated",
      "type": "event"
    },
    {
      "anonymous": false,
      "inputs": [
        {
          "indexed": false,
          "internalType": "address",
          "name": "messenger",
          "type": "address"
        },
        {
          "indexed": false,
          "internalType": "address",
          "name": "otherBridge",
          "type": "address"
        }
      ],
      "name": "SetL2ERC721Bridge",
      "type": "event"
    },
    {
      "anonymous": false,
      "inputs": [
        {
          "indexed": false,
          "internalType": "uint256",
          "name": "major",
          "type": "uint256"
        },
        {
          "indexed": false,
          "internalType": "uint256",
          "name": "minor",
          "type": "uint256"
        },
        {
          "indexed": false,
          "internalType": "uint256",
          "name": "patch",
          "type": "uint256"
        }
      ],
      "name": "SetSemver",
      "type": "event"
    },
    {
      "inputs": [],
      "name": "MAJOR_VERSION",
      "outputs": [
        {
          "internalType": "uint256",
          "name": "",
          "type": "uint256"
        }
      ],
      "stateMutability": "view",
      "type": "function"
    },
    {
      "inputs": [],
      "name": "MESSENGER",
      "outputs": [
        {
          "internalType": "address",
          "name": "",
          "type": "address"
        }
      ],
      "stateMutability": "view",
      "type": "function"
    },
    {
      "inputs": [],
      "name": "MINOR_VERSION",
      "outputs": [
        {
          "internalType": "uint256",
          "name": "",
          "type": "uint256"
        }
      ],
      "stateMutability": "view",
      "type": "function"
    },
    {
      "inputs": [],
      "name": "OTHER_BRIDGE",
      "outputs": [
        {
          "internalType": "address",
          "name": "",
          "type": "address"
        }
      ],
      "stateMutability": "view",
      "type": "function"
    },
    {
      "inputs": [],
      "name": "PATCH_VERSION",
      "outputs": [
        {
          "internalType": "uint256",
          "name": "",
          "type": "uint256"
        }
      ],
      "stateMutability": "view",
      "type": "function"
    },
    {
      "inputs": [
        {
          "internalType": "uint256",
          "name": "",
          "type": "uint256"
        }
      ],
      "name": "__gap",
      "outputs": [
        {
          "internalType": "uint256",
          "name": "",
          "type": "uint256"
        }
      ],
      "stateMutability": "view",
      "type": "function"
    },
    {
      "inputs": [
        {
          "internalType": "address",
          "name": "_localToken",
          "type": "address"
        },
        {
          "internalType": "address",
          "name": "_remoteToken",
          "type": "address"
        },
        {
          "internalType": "uint256",
          "name": "_tokenId",
          "type": "uint256"
        },
        {
          "internalType": "uint32",
          "name": "_minGasLimit",
          "type": "uint32"
        },
        {
          "internalType": "bytes",
          "name": "_extraData",
          "type": "bytes"
        }
      ],
      "name": "bridgeERC721",
      "outputs": [],
      "stateMutability": "nonpayable",
      "type": "function"
    },
    {
      "inputs": [
        {
          "internalType": "address",
          "name": "_localToken",
          "type": "address"
        },
        {
          "internalType": "address",
          "name": "_remoteToken",
          "type": "address"
        },
        {
          "internalType": "address",
          "name": "_to",
          "type": "address"
        },
        {
          "internalType": "uint256",
          "name": "_tokenId",
          "type": "uint256"
        },
        {
          "internalType": "uint32",
          "name": "_minGasLimit",
          "type": "uint32"
        },
        {
          "internalType": "bytes",
          "name": "_extraData",
          "type": "bytes"
        }
      ],
      "name": "bridgeERC721To",
      "outputs": [],
      "stateMutability": "nonpayable",
      "type": "function"
    },
    {
      "inputs": [
        {
          "internalType": "address",
          "name": "",
          "type": "address"
        },
        {
          "internalType": "address",
          "name": "",
          "type": "address"
        },
        {
          "internalType": "uint256",
          "name": "",
          "type": "uint256"
        }
      ],
      "name": "deposits",
      "outputs": [
        {
          "internalType": "bool",
          "name": "",
          "type": "bool"
        }
      ],
      "stateMutability": "view",
      "type": "function"
    },
    {
      "inputs": [
        {
          "internalType": "address",
          "name": "_localToken",
          "type": "address"
        },
        {
          "internalType": "address",
          "name": "_remoteToken",
          "type": "address"
        },
        {
          "internalType": "address",
          "name": "_from",
          "type": "address"
        },
        {
          "internalType": "address",
          "name": "_to",
          "type": "address"
        },
        {
          "internalType": "uint256",
          "name": "_tokenId",
          "type": "uint256"
        },
        {
          "internalType": "bytes",
          "name": "_extraData",
          "type": "bytes"
        }
      ],
      "name": "finalizeBridgeERC721",
      "outputs": [],
      "stateMutability": "nonpayable",
      "type": "function"
    },
    {
      "inputs": [
        {
          "internalType": "address",
          "name": "_messenger",
          "type": "address"
        },
        {
          "internalType": "address",
          "name": "_otherBridge",
          "type": "address"
        }
      ],
      "name": "initialize",
      "outputs": [],
      "stateMutability": "nonpayable",
      "type": "function"
    },
    {
      "inputs": [],
      "name": "messenger",
      "outputs": [
        {
          "internalType": "address",
          "name": "",
          "type": "address"
        }
      ],
      "stateMutability": "view",
      "type": "function"
    },
    {
      "inputs": [],
      "name": "otherBridge",
      "outputs": [
        {
          "internalType": "address",
          "name": "",
          "type": "address"
        }
      ],
      "stateMutability": "view",
      "type": "function"
    },
    {
      "inputs": [
        {
          "internalType": "address",
          "name": "_messenger",
          "type": "address"
        },
        {
          "internalType": "address",
          "name": "_otherBridge",
          "type": "address"
        }
      ],
      "name": "setL2ERC721Bridge",
      "outputs": [],
      "stateMutability": "nonpayable",
      "type": "function"
    },
    {
      "inputs": [
        {
          "internalType": "uint256",
          "name": "_major",
          "type": "uint256"
        },
        {
          "internalType": "uint256",
          "name": "_minor",
          "type": "uint256"
        },
        {
          "internalType": "uint256",
          "name": "_patch",
          "type": "uint256"
        }
      ],
      "name": "setSemver",
      "outputs": [],
      "stateMutability": "nonpayable",
      "type": "function"
    }
  ],
  "bytecode": "0x608060405234801561001057600080fd5b50610fa5806100206000396000f3fe608060405234801561001057600080fd5b50600436106100f55760003560e01c806381ee745b11610097578063aa55745211610066578063aa55745214610219578063c89701a21461022c578063c8b915311461023d578063f786becd1461024657600080fd5b806381ee745b146101cd57806383971289146101e0578063927ede2d146101f3578063932645101461020657600080fd5b80635d93a3fc116100d35780635d93a3fc1461014c5780636bf2606a14610190578063761f4493146101a75780637f46ddb2146101ba57600080fd5b80633687011a146100fa5780633cb747bf1461010f578063485cc95514610139575b600080fd5b61010d610108366004610c03565b61024f565b005b6000546001600160a01b03165b6040516001600160a01b0390911681526020015b60405180910390f35b61010d610147366004610c86565b6102e1565b61018061015a366004610cbf565b603660209081526000938452604080852082529284528284209052825290205460ff1681565b6040519015158152602001610130565b61019960355481565b604051908152602001610130565b61010d6101b5366004610d00565b610394565b60015461011c906001600160a01b031681565b6101996101db366004610d98565b6106b6565b61010d6101ee366004610c86565b6106cd565b60005461011c906001600160a01b031681565b61010d610214366004610db1565b6107c3565b61010d610227366004610ddd565b61088a565b6001546001600160a01b031661011c565b61019960345481565b61019960335481565b333b156102c95760405162461bcd60e51b815260206004820152602d60248201527f4552433732314272696467653a206163636f756e74206973206e6f742065787460448201527f65726e616c6c79206f776e65640000000000000000000000000000000000000060648201526084015b60405180910390fd5b6102d9868633338888888861091f565b505050505050565b7fb53127684a568b3173ae13b9f8a6016e243e63b6e8ee1178d6a717850b5d6103546001600160a01b0316336001600160a01b0316146103595760405162461bcd60e51b815260206004820152601360248201527239b2b73232b91034b9903737ba1037bbb732b960691b60448201526064016102c0565b600080546001600160a01b0393841673ffffffffffffffffffffffffffffffffffffffff199182161790915560018054929093169116179055565b6000546001600160a01b031633148015610438575060015460005460408051636e296e4560e01b815290516001600160a01b039384169390921691636e296e4591600480820192602092909190829003018186803b1580156103f557600080fd5b505afa158015610409573d6000803e3d6000fd5b505050506040513d601f19601f8201168201806040525081019061042d9190610e54565b6001600160a01b0316145b6104aa5760405162461bcd60e51b815260206004820152603f60248201527f4552433732314272696467653a2066756e6374696f6e2063616e206f6e6c792060448201527f62652063616c6c65642066726f6d20746865206f74686572206272696467650060648201526084016102c0565b6001600160a01b0387163014156105165760405162461bcd60e51b815260206004820152602a60248201527f4c324552433732314272696467653a206c6f63616c20746f6b656e2063616e6e60448201526937ba1031329039b2b63360b11b60648201526084016102c0565b6001600160a01b038088166000908152603660209081526040808320938a1683529281528282208683529052205460ff1615156001146105be5760405162461bcd60e51b815260206004820152603960248201527f4c324552433732314272696467653a20546f6b656e204944206973206e6f742060448201527f657363726f77656420696e20746865204c31204272696467650000000000000060648201526084016102c0565b6001600160a01b0387811660008181526036602090815260408083208b86168452825280832088845290915290819020805460ff1916905551632142170760e11b8152306004820152918616602483015260448201859052906342842e0e90606401600060405180830381600087803b15801561063a57600080fd5b505af115801561064e573d6000803e3d6000fd5b50505050846001600160a01b0316866001600160a01b0316886001600160a01b03167f1f39bf6707b5d608453e0ae4c067b562bcc4c85c0f562ef5d2c774d2e7f131ac878787876040516106a59493929190610ea1565b60405180910390a450505050505050565b600281603181106106c657600080fd5b0154905081565b7fb53127684a568b3173ae13b9f8a6016e243e63b6e8ee1178d6a717850b5d6103546001600160a01b0316336001600160a01b0316146107455760405162461bcd60e51b815260206004820152601360248201527239b2b73232b91034b9903737ba1037bbb732b960691b60448201526064016102c0565b604080516001600160a01b038085168252831660208201527fdd941635a84c00e295d641bc4e7b20b4e1b3703138928ed7faed887270a19848910160405180910390a1600080546001600160a01b0393841673ffffffffffffffffffffffffffffffffffffffff199182161790915560018054929093169116179055565b7fb53127684a568b3173ae13b9f8a6016e243e63b6e8ee1178d6a717850b5d6103546001600160a01b0316336001600160a01b03161461083b5760405162461bcd60e51b815260206004820152601360248201527239b2b73232b91034b9903737ba1037bbb732b960691b60448201526064016102c0565b60408051848152602081018490529081018290527f8c574a7ce95db8f15c68124db0e70ab86cf01d6244fbff9591d26c09b5c5473e9060600160405180910390a1603392909255603455603555565b6001600160a01b0385166109065760405162461bcd60e51b815260206004820152603060248201527f4552433732314272696467653a206e667420726563697069656e742063616e6e60448201527f6f7420626520616464726573732830290000000000000000000000000000000060648201526084016102c0565b610916878733888888888861091f565b50505050505050565b6001600160a01b03871661099b5760405162461bcd60e51b815260206004820152603160248201527f4c314552433732314272696467653a2072656d6f746520746f6b656e2063616e60448201527f6e6f74206265206164647265737328302900000000000000000000000000000060648201526084016102c0565b600063761f449360e01b888a89898988886040516024016109c29796959493929190610ed4565b60408051601f19818403018152918152602080830180517bffffffffffffffffffffffffffffffffffffffffffffffffffffffff167fffffffff0000000000000000000000000000000000000000000000000000000095909516949094179093526001600160a01b038c81166000818152603686528381208e8416825286528381208b825290955293829020805460ff1916600117905590516323b872dd60e01b8152908a166004820152306024820152604481018890529092506323b872dd90606401600060405180830381600087803b158015610aa057600080fd5b505af1158015610ab4573d6000803e3d6000fd5b5050600054600154604051633dbb202b60e01b81526001600160a01b039283169450633dbb202b9350610af1929091169085908990600401610f24565b600060405180830381600087803b158015610b0b57600080fd5b505af1158015610b1f573d6000803e3d6000fd5b50505050866001600160a01b0316886001600160a01b03168a6001600160a01b03167fb7460e2a880f256ebef3406116ff3eee0cee51ebccdc2a40698f87ebb2e9c1a589898888604051610b769493929190610ea1565b60405180910390a4505050505050505050565b6001600160a01b0381168114610b9e57600080fd5b50565b803563ffffffff81168114610bb557600080fd5b919050565b60008083601f840112610bcc57600080fd5b50813567ffffffffffffffff811115610be457600080fd5b602083019150836020828501011115610bfc57600080fd5b9250929050565b60008060008060008060a08789031215610c1c57600080fd5b8635610c2781610b89565b95506020870135610c3781610b89565b945060408701359350610c4c60608801610ba1565b9250608087013567ffffffffffffffff811115610c6857600080fd5b610c7489828a01610bba565b979a9699509497509295939492505050565b60008060408385031215610c9957600080fd5b8235610ca481610b89565b91506020830135610cb481610b89565b809150509250929050565b600080600060608486031215610cd457600080fd5b8335610cdf81610b89565b92506020840135610cef81610b89565b929592945050506040919091013590565b600080600080600080600060c0888a031215610d1b57600080fd5b8735610d2681610b89565b96506020880135610d3681610b89565b95506040880135610d4681610b89565b94506060880135610d5681610b89565b93506080880135925060a088013567ffffffffffffffff811115610d7957600080fd5b610d858a828b01610bba565b989b979a50959850939692959293505050565b600060208284031215610daa57600080fd5b5035919050565b600080600060608486031215610dc657600080fd5b505081359360208301359350604090920135919050565b600080600080600080600060c0888a031215610df857600080fd5b8735610e0381610b89565b96506020880135610e1381610b89565b95506040880135610e2381610b89565b945060608801359350610e3860808901610ba1565b925060a088013567ffffffffffffffff811115610d7957600080fd5b600060208284031215610e6657600080fd5b8151610e7181610b89565b9392505050565b81835281816020850137506000828201602090810191909152601f909101601f19169091010190565b6001600160a01b0385168152836020820152606060408201526000610eca606083018486610e78565b9695505050505050565b60006001600160a01b03808a1683528089166020840152808816604084015280871660608401525084608083015260c060a0830152610f1760c083018486610e78565b9998505050505050505050565b6001600160a01b038416815260006020606081840152845180606085015260005b81811015610f6157868101830151858201608001528201610f45565b81811115610f73576000608083870101525b5063ffffffff9490941660408401525050601f91909101601f1916016080019291505056fea164736f6c6343000809000a",
  "linkReferences": {},
  "deployedLinkReferences": {}
}