{
  "_format": "hh-sol-artifact-1",
  "contractName": "TitanNFTStorage",
  "sourceName": "contracts/TitanNFTStorage.sol",
  "abi": [
    {
      "inputs": [],
      "name": "BRIDGE",
      "outputs": [
        {
          "internalType": "address",
          "name": "",
          "type": "address"
        }
      ],
      "stateMutability": "view",
      "type": "function"
    },
    {
      "inputs": [],
      "name": "MAJOR_VERSION",
      "outputs": [
        {
          "internalType": "uint256",
          "name": "",
          "type": "uint256"
        }
      ],
      "stateMutability": "view",
      "type": "function"
    },
    {
      "inputs": [],
      "name": "MAX_ID",
      "outputs": [
        {
          "internalType": "uint256",
          "name": "",
          "type": "uint256"
        }
      ],
      "stateMutability": "view",
      "type": "function"
    },
    {
      "inputs": [],
      "name": "MINOR_VERSION",
      "outputs": [
        {
          "internalType": "uint256",
          "name": "",
          "type": "uint256"
        }
      ],
      "stateMutability": "view",
      "type": "function"
    },
    {
      "inputs": [],
      "name": "PATCH_VERSION",
      "outputs": [
        {
          "internalType": "uint256",
          "name": "",
          "type": "uint256"
        }
      ],
      "stateMutability": "view",
      "type": "function"
    },
    {
      "inputs": [],
      "name": "REMOTE_CHAIN_ID",
      "outputs": [
        {
          "internalType": "uint256",
          "name": "",
          "type": "uint256"
        }
      ],
      "stateMutability": "view",
      "type": "function"
    },
    {
      "inputs": [],
      "name": "REMOTE_TOKEN",
      "outputs": [
        {
          "internalType": "address",
          "name": "",
          "type": "address"
        }
      ],
      "stateMutability": "view",
      "type": "function"
    },
    {
      "inputs": [],
      "name": "_ERC721_RECEIVED",
      "outputs": [
        {
          "internalType": "bytes4",
          "name": "",
          "type": "bytes4"
        }
      ],
      "stateMutability": "view",
      "type": "function"
    },
    {
      "inputs": [],
      "name": "_INTERFACE_ID_ERC721",
      "outputs": [
        {
          "internalType": "bytes4",
          "name": "",
          "type": "bytes4"
        }
      ],
      "stateMutability": "view",
      "type": "function"
    },
    {
      "inputs": [],
      "name": "_INTERFACE_ID_ERC721_ENUMERABLE",
      "outputs": [
        {
          "internalType": "bytes4",
          "name": "",
          "type": "bytes4"
        }
      ],
      "stateMutability": "view",
      "type": "function"
    },
    {
      "inputs": [],
      "name": "_INTERFACE_ID_ERC721_METADATA",
      "outputs": [
        {
          "internalType": "bytes4",
          "name": "",
          "type": "bytes4"
        }
      ],
      "stateMutability": "view",
      "type": "function"
    },
    {
      "inputs": [
        {
          "internalType": "uint256",
          "name": "",
          "type": "uint256"
        }
      ],
      "name": "_allTokens",
      "outputs": [
        {
          "internalType": "uint256",
          "name": "",
          "type": "uint256"
        }
      ],
      "stateMutability": "view",
      "type": "function"
    },
    {
      "inputs": [
        {
          "internalType": "uint256",
          "name": "",
          "type": "uint256"
        }
      ],
      "name": "_allTokensIndex",
      "outputs": [
        {
          "internalType": "uint256",
          "name": "",
          "type": "uint256"
        }
      ],
      "stateMutability": "view",
      "type": "function"
    },
    {
      "inputs": [],
      "name": "_baseURI",
      "outputs": [
        {
          "internalType": "string",
          "name": "",
          "type": "string"
        }
      ],
      "stateMutability": "view",
      "type": "function"
    },
    {
      "inputs": [],
      "name": "_manager",
      "outputs": [
        {
          "internalType": "address",
          "name": "",
          "type": "address"
        }
      ],
      "stateMutability": "view",
      "type": "function"
    },
    {
      "inputs": [],
      "name": "_name",
      "outputs": [
        {
          "internalType": "string",
          "name": "",
          "type": "string"
        }
      ],
      "stateMutability": "view",
      "type": "function"
    },
    {
      "inputs": [
        {
          "internalType": "address",
          "name": "",
          "type": "address"
        },
        {
          "internalType": "address",
          "name": "",
          "type": "address"
        }
      ],
      "name": "_operatorApprovals",
      "outputs": [
        {
          "internalType": "bool",
          "name": "",
          "type": "bool"
        }
      ],
      "stateMutability": "view",
      "type": "function"
    },
    {
      "inputs": [
        {
          "internalType": "address",
          "name": "",
          "type": "address"
        },
        {
          "internalType": "uint256",
          "name": "",
          "type": "uint256"
        }
      ],
      "name": "_ownedTokens",
      "outputs": [
        {
          "internalType": "uint256",
          "name": "",
          "type": "uint256"
        }
      ],
      "stateMutability": "view",
      "type": "function"
    },
    {
      "inputs": [
        {
          "internalType": "address",
          "name": "",
          "type": "address"
        }
      ],
      "name": "_ownedTokensCount",
      "outputs": [
        {
          "internalType": "uint256",
          "name": "_value",
          "type": "uint256"
        }
      ],
      "stateMutability": "view",
      "type": "function"
    },
    {
      "inputs": [
        {
          "internalType": "uint256",
          "name": "",
          "type": "uint256"
        }
      ],
      "name": "_ownedTokensIndex",
      "outputs": [
        {
          "internalType": "uint256",
          "name": "",
          "type": "uint256"
        }
      ],
      "stateMutability": "view",
      "type": "function"
    },
    {
      "inputs": [],
      "name": "_owner",
      "outputs": [
        {
          "internalType": "address",
          "name": "",
          "type": "address"
        }
      ],
      "stateMutability": "view",
      "type": "function"
    },
    {
      "inputs": [],
      "name": "_symbol",
      "outputs": [
        {
          "internalType": "string",
          "name": "",
          "type": "string"
        }
      ],
      "stateMutability": "view",
      "type": "function"
    },
    {
      "inputs": [
        {
          "internalType": "uint256",
          "name": "",
          "type": "uint256"
        }
      ],
      "name": "_tokenApprovals",
      "outputs": [
        {
          "internalType": "address",
          "name": "",
          "type": "address"
        }
      ],
      "stateMutability": "view",
      "type": "function"
    },
    {
      "inputs": [
        {
          "internalType": "uint256",
          "name": "",
          "type": "uint256"
        }
      ],
      "name": "_tokenAttributes",
      "outputs": [
        {
          "internalType": "uint8",
          "name": "",
          "type": "uint8"
        }
      ],
      "stateMutability": "view",
      "type": "function"
    },
    {
      "inputs": [
        {
          "internalType": "uint256",
          "name": "",
          "type": "uint256"
        }
      ],
      "name": "_tokenOwner",
      "outputs": [
        {
          "internalType": "address",
          "name": "",
          "type": "address"
        }
      ],
      "stateMutability": "view",
      "type": "function"
    },
    {
      "inputs": [
        {
          "internalType": "uint256",
          "name": "",
          "type": "uint256"
        }
      ],
      "name": "_tokenURIs",
      "outputs": [
        {
          "internalType": "string",
          "name": "",
          "type": "string"
        }
      ],
      "stateMutability": "view",
      "type": "function"
    },
    {
      "inputs": [],
      "name": "pauseProxy",
      "outputs": [
        {
          "internalType": "bool",
          "name": "",
          "type": "bool"
        }
      ],
      "stateMutability": "view",
      "type": "function"
    },
    {
      "inputs": [
        {
          "internalType": "bytes4",
          "name": "interfaceId",
          "type": "bytes4"
        }
      ],
      "name": "supportsInterface",
      "outputs": [
        {
          "internalType": "bool",
          "name": "",
          "type": "bool"
        }
      ],
      "stateMutability": "view",
      "type": "function"
    }
  ],
  "bytecode": "0x608060405234801561001057600080fd5b506100216301ffc9a760e01b610026565b6100a9565b6001600160e01b031980821614156100845760405162461bcd60e51b815260206004820152601c60248201527f4552433136353a20696e76616c696420696e7465726661636520696400000000604482015260640160405180910390fd5b6001600160e01b0319166000908152602081905260409020805460ff19166001179055565b61070d806100b86000396000f3fe608060405234801561001057600080fd5b50600436106101c45760003560e01c8063a7263665116100f9578063d28d885211610097578063ee9a31a211610071578063ee9a31a214610430578063f0329f6b14610443578063f663171814610456578063f786becd1461047657600080fd5b8063d28d8852146103ec578063dece6854146103f4578063edc3bc3f1461040257600080fd5b8063b01ac591116100d3578063b01ac591146103ba578063b09f1266146103c8578063b2bdfa7b146103d0578063c8b91531146103e357600080fd5b8063a72636651461035e578063a7cc01361461037e578063aa5965ae146103a757600080fd5b80636bf2606a116101665780637d1d0c5b116101405780637d1d0c5b1461030057806388290adc1461030957806394a509dd14610330578063a2e9b4391461033e57600080fd5b80636bf2606a146102c6578063743976a0146102cf578063796db312146102d757600080fd5b806317a3a79c116101a257806317a3a79c1461025657806317bac0521461028b5780634f3c5f06146102a157806363a8fd89146102b457600080fd5b806301ffc9a7146101c9578063033964be1461020b5780630bb78ec114610236575b600080fd5b6101f66101d7366004610592565b6001600160e01b03191660009081526020819052604090205460ff1690565b60405190151581526020015b60405180910390f35b60055461021e906001600160a01b031681565b6040516001600160a01b039091168152602001610202565b6102496102443660046105c3565b61047f565b60405161020291906105dc565b6102796102643660046105c3565b600c6020526000908152604090205460ff1681565b60405160ff9091168152602001610202565b610293606481565b604051908152602001610202565b6102936102af36600461064d565b610519565b6016546101f690610100900460ff1681565b61029360035481565b61024961054a565b61021e6102e53660046105c3565b600e602052600090815260409020546001600160a01b031681565b61029360045481565b610317630a85bd0160e11b81565b6040516001600160e01b03199091168152602001610202565b610317635b5e139f60e01b81565b61029361034c3660046105c3565b60136020526000908152604090205481565b61029361036c3660046105c3565b60156020526000908152604090205481565b61021e61038c3660046105c3565b600f602052600090815260409020546001600160a01b031681565b6102936103b53660046105c3565b610557565b61031763780e9d6360e01b81565b610249610578565b60075461021e906001600160a01b031681565b61029360025481565b610249610585565b6103176380ac58cd60e01b81565b6101f6610410366004610677565b601160209081526000928352604080842090915290825290205460ff1681565b60065461021e906001600160a01b031681565b60085461021e906001600160a01b031681565b6102936104643660046106aa565b60106020526000908152604090205481565b61029360015481565b600b6020526000908152604090208054610498906106c5565b80601f01602080910402602001604051908101604052809291908181526020018280546104c4906106c5565b80156105115780601f106104e657610100808354040283529160200191610511565b820191906000526020600020905b8154815290600101906020018083116104f457829003601f168201915b505050505081565b6012602052816000526040600020818154811061053557600080fd5b90600052602060002001600091509150505481565b600d8054610498906106c5565b6014818154811061056757600080fd5b600091825260209091200154905081565b600a8054610498906106c5565b60098054610498906106c5565b6000602082840312156105a457600080fd5b81356001600160e01b0319811681146105bc57600080fd5b9392505050565b6000602082840312156105d557600080fd5b5035919050565b600060208083528351808285015260005b81811015610609578581018301518582016040015282016105ed565b8181111561061b576000604083870101525b50601f01601f1916929092016040019392505050565b80356001600160a01b038116811461064857600080fd5b919050565b6000806040838503121561066057600080fd5b61066983610631565b946020939093013593505050565b6000806040838503121561068a57600080fd5b61069383610631565b91506106a160208401610631565b90509250929050565b6000602082840312156106bc57600080fd5b6105bc82610631565b600181811c908216806106d957607f821691505b602082108114156106fa57634e487b7160e01b600052602260045260246000fd5b5091905056fea164736f6c6343000809000a",
  "linkReferences": {},
  "deployedLinkReferences": {}
}