{
  "_format": "hh-sol-artifact-1",
  "contractName": "TitanNFTStorage",
  "sourceName": "contracts/TitanNFTStorage.sol",
  "abi": [
    {
      "inputs": [],
      "name": "BRIDGE",
      "outputs": [
        {
          "internalType": "address",
          "name": "",
          "type": "address"
        }
      ],
      "stateMutability": "view",
      "type": "function"
    },
    {
      "inputs": [],
      "name": "MAJOR_VERSION",
      "outputs": [
        {
          "internalType": "uint256",
          "name": "",
          "type": "uint256"
        }
      ],
      "stateMutability": "view",
      "type": "function"
    },
    {
      "inputs": [],
      "name": "MAX_ID",
      "outputs": [
        {
          "internalType": "uint256",
          "name": "",
          "type": "uint256"
        }
      ],
      "stateMutability": "view",
      "type": "function"
    },
    {
      "inputs": [],
      "name": "MINOR_VERSION",
      "outputs": [
        {
          "internalType": "uint256",
          "name": "",
          "type": "uint256"
        }
      ],
      "stateMutability": "view",
      "type": "function"
    },
    {
      "inputs": [],
      "name": "PATCH_VERSION",
      "outputs": [
        {
          "internalType": "uint256",
          "name": "",
          "type": "uint256"
        }
      ],
      "stateMutability": "view",
      "type": "function"
    },
    {
      "inputs": [],
      "name": "REMOTE_CHAIN_ID",
      "outputs": [
        {
          "internalType": "uint256",
          "name": "",
          "type": "uint256"
        }
      ],
      "stateMutability": "view",
      "type": "function"
    },
    {
      "inputs": [],
      "name": "REMOTE_TOKEN",
      "outputs": [
        {
          "internalType": "address",
          "name": "",
          "type": "address"
        }
      ],
      "stateMutability": "view",
      "type": "function"
    },
    {
      "inputs": [],
      "name": "_ERC721_RECEIVED",
      "outputs": [
        {
          "internalType": "bytes4",
          "name": "",
          "type": "bytes4"
        }
      ],
      "stateMutability": "view",
      "type": "function"
    },
    {
      "inputs": [],
      "name": "_INTERFACE_ID_ERC721",
      "outputs": [
        {
          "internalType": "bytes4",
          "name": "",
          "type": "bytes4"
        }
      ],
      "stateMutability": "view",
      "type": "function"
    },
    {
      "inputs": [],
      "name": "_INTERFACE_ID_ERC721_ENUMERABLE",
      "outputs": [
        {
          "internalType": "bytes4",
          "name": "",
          "type": "bytes4"
        }
      ],
      "stateMutability": "view",
      "type": "function"
    },
    {
      "inputs": [],
      "name": "_INTERFACE_ID_ERC721_METADATA",
      "outputs": [
        {
          "internalType": "bytes4",
          "name": "",
          "type": "bytes4"
        }
      ],
      "stateMutability": "view",
      "type": "function"
    },
    {
      "inputs": [
        {
          "internalType": "uint256",
          "name": "",
          "type": "uint256"
        }
      ],
      "name": "_allTokens",
      "outputs": [
        {
          "internalType": "uint256",
          "name": "",
          "type": "uint256"
        }
      ],
      "stateMutability": "view",
      "type": "function"
    },
    {
      "inputs": [
        {
          "internalType": "uint256",
          "name": "",
          "type": "uint256"
        }
      ],
      "name": "_allTokensIndex",
      "outputs": [
        {
          "internalType": "uint256",
          "name": "",
          "type": "uint256"
        }
      ],
      "stateMutability": "view",
      "type": "function"
    },
    {
      "inputs": [],
      "name": "_baseURI",
      "outputs": [
        {
          "internalType": "string",
          "name": "",
          "type": "string"
        }
      ],
      "stateMutability": "view",
      "type": "function"
    },
    {
      "inputs": [],
      "name": "_manager",
      "outputs": [
        {
          "internalType": "address",
          "name": "",
          "type": "address"
        }
      ],
      "stateMutability": "view",
      "type": "function"
    },
    {
      "inputs": [],
      "name": "_name",
      "outputs": [
        {
          "internalType": "string",
          "name": "",
          "type": "string"
        }
      ],
      "stateMutability": "view",
      "type": "function"
    },
    {
      "inputs": [
        {
          "internalType": "address",
          "name": "",
          "type": "address"
        },
        {
          "internalType": "address",
          "name": "",
          "type": "address"
        }
      ],
      "name": "_operatorApprovals",
      "outputs": [
        {
          "internalType": "bool",
          "name": "",
          "type": "bool"
        }
      ],
      "stateMutability": "view",
      "type": "function"
    },
    {
      "inputs": [
        {
          "internalType": "address",
          "name": "",
          "type": "address"
        },
        {
          "internalType": "uint256",
          "name": "",
          "type": "uint256"
        }
      ],
      "name": "_ownedTokens",
      "outputs": [
        {
          "internalType": "uint256",
          "name": "",
          "type": "uint256"
        }
      ],
      "stateMutability": "view",
      "type": "function"
    },
    {
      "inputs": [
        {
          "internalType": "address",
          "name": "",
          "type": "address"
        }
      ],
      "name": "_ownedTokensCount",
      "outputs": [
        {
          "internalType": "uint256",
          "name": "_value",
          "type": "uint256"
        }
      ],
      "stateMutability": "view",
      "type": "function"
    },
    {
      "inputs": [
        {
          "internalType": "uint256",
          "name": "",
          "type": "uint256"
        }
      ],
      "name": "_ownedTokensIndex",
      "outputs": [
        {
          "internalType": "uint256",
          "name": "",
          "type": "uint256"
        }
      ],
      "stateMutability": "view",
      "type": "function"
    },
    {
      "inputs": [],
      "name": "_owner",
      "outputs": [
        {
          "internalType": "address",
          "name": "",
          "type": "address"
        }
      ],
      "stateMutability": "view",
      "type": "function"
    },
    {
      "inputs": [],
      "name": "_symbol",
      "outputs": [
        {
          "internalType": "string",
          "name": "",
          "type": "string"
        }
      ],
      "stateMutability": "view",
      "type": "function"
    },
    {
      "inputs": [
        {
          "internalType": "uint256",
          "name": "",
          "type": "uint256"
        }
      ],
      "name": "_tokenApprovals",
      "outputs": [
        {
          "internalType": "address",
          "name": "",
          "type": "address"
        }
      ],
      "stateMutability": "view",
      "type": "function"
    },
    {
      "inputs": [
        {
          "internalType": "uint256",
          "name": "",
          "type": "uint256"
        }
      ],
      "name": "_tokenAttributes",
      "outputs": [
        {
          "internalType": "bytes",
          "name": "",
          "type": "bytes"
        }
      ],
      "stateMutability": "view",
      "type": "function"
    },
    {
      "inputs": [
        {
          "internalType": "uint256",
          "name": "",
          "type": "uint256"
        }
      ],
      "name": "_tokenOwner",
      "outputs": [
        {
          "internalType": "address",
          "name": "",
          "type": "address"
        }
      ],
      "stateMutability": "view",
      "type": "function"
    },
    {
      "inputs": [
        {
          "internalType": "uint256",
          "name": "",
          "type": "uint256"
        }
      ],
      "name": "_tokenURIs",
      "outputs": [
        {
          "internalType": "string",
          "name": "",
          "type": "string"
        }
      ],
      "stateMutability": "view",
      "type": "function"
    },
    {
      "inputs": [],
      "name": "pauseProxy",
      "outputs": [
        {
          "internalType": "bool",
          "name": "",
          "type": "bool"
        }
      ],
      "stateMutability": "view",
      "type": "function"
    },
    {
      "inputs": [
        {
          "internalType": "bytes4",
          "name": "interfaceId",
          "type": "bytes4"
        }
      ],
      "name": "supportsInterface",
      "outputs": [
        {
          "internalType": "bool",
          "name": "",
          "type": "bool"
        }
      ],
      "stateMutability": "view",
      "type": "function"
    }
  ],
  "bytecode": "0x608060405234801561001057600080fd5b506100216301ffc9a760e01b610026565b6100a9565b6001600160e01b031980821614156100845760405162461bcd60e51b815260206004820152601c60248201527f4552433136353a20696e76616c696420696e7465726661636520696400000000604482015260640160405180910390fd5b6001600160e01b0319166000908152602081905260409020805460ff19166001179055565b61070f806100b86000396000f3fe608060405234801561001057600080fd5b50600436106101c45760003560e01c8063a7263665116100f9578063d28d885211610097578063ee9a31a211610071578063ee9a31a21461040e578063f0329f6b14610421578063f663171814610434578063f786becd1461045457600080fd5b8063d28d8852146103ca578063dece6854146103d2578063edc3bc3f146103e057600080fd5b8063b01ac591116100d3578063b01ac59114610398578063b09f1266146103a6578063b2bdfa7b146103ae578063c8b91531146103c157600080fd5b8063a72636651461033c578063a7cc01361461035c578063aa5965ae1461038557600080fd5b80636bf2606a116101665780637d1d0c5b116101405780637d1d0c5b146102de57806388290adc146102e757806394a509dd1461030e578063a2e9b4391461031c57600080fd5b80636bf2606a146102a4578063743976a0146102ad578063796db312146102b557600080fd5b806317a3a79c116101a257806317a3a79c1461025657806317bac052146102695780634f3c5f061461027f57806363a8fd891461029257600080fd5b806301ffc9a7146101c9578063033964be1461020b5780630bb78ec114610236575b600080fd5b6101f66101d7366004610589565b6001600160e01b03191660009081526020819052604090205460ff1690565b60405190151581526020015b60405180910390f35b60055461021e906001600160a01b031681565b6040516001600160a01b039091168152602001610202565b6102496102443660046105ba565b61045d565b6040516102029190610620565b6102496102643660046105ba565b6104f7565b610271606481565b604051908152602001610202565b61027161028d36600461064f565b610510565b6016546101f690610100900460ff1681565b61027160035481565b610249610541565b61021e6102c33660046105ba565b600e602052600090815260409020546001600160a01b031681565b61027160045481565b6102f5630a85bd0160e11b81565b6040516001600160e01b03199091168152602001610202565b6102f5635b5e139f60e01b81565b61027161032a3660046105ba565b60136020526000908152604090205481565b61027161034a3660046105ba565b60156020526000908152604090205481565b61021e61036a3660046105ba565b600f602052600090815260409020546001600160a01b031681565b6102716103933660046105ba565b61054e565b6102f563780e9d6360e01b81565b61024961056f565b60075461021e906001600160a01b031681565b61027160025481565b61024961057c565b6102f56380ac58cd60e01b81565b6101f66103ee366004610679565b601160209081526000928352604080842090915290825290205460ff1681565b60065461021e906001600160a01b031681565b60085461021e906001600160a01b031681565b6102716104423660046106ac565b60106020526000908152604090205481565b61027160015481565b600b6020526000908152604090208054610476906106c7565b80601f01602080910402602001604051908101604052809291908181526020018280546104a2906106c7565b80156104ef5780601f106104c4576101008083540402835291602001916104ef565b820191906000526020600020905b8154815290600101906020018083116104d257829003601f168201915b505050505081565b600c6020526000908152604090208054610476906106c7565b6012602052816000526040600020818154811061052c57600080fd5b90600052602060002001600091509150505481565b600d8054610476906106c7565b6014818154811061055e57600080fd5b600091825260209091200154905081565b600a8054610476906106c7565b60098054610476906106c7565b60006020828403121561059b57600080fd5b81356001600160e01b0319811681146105b357600080fd5b9392505050565b6000602082840312156105cc57600080fd5b5035919050565b6000815180845260005b818110156105f9576020818501810151868301820152016105dd565b8181111561060b576000602083870101525b50601f01601f19169290920160200192915050565b6020815260006105b360208301846105d3565b80356001600160a01b038116811461064a57600080fd5b919050565b6000806040838503121561066257600080fd5b61066b83610633565b946020939093013593505050565b6000806040838503121561068c57600080fd5b61069583610633565b91506106a360208401610633565b90509250929050565b6000602082840312156106be57600080fd5b6105b382610633565b600181811c908216806106db57607f821691505b602082108114156106fc57634e487b7160e01b600052602260045260246000fd5b5091905056fea164736f6c6343000809000a",
  "linkReferences": {},
  "deployedLinkReferences": {}
}