{
  "_format": "hh-sol-artifact-1",
  "contractName": "TitanNFTStorage",
  "sourceName": "contracts/TitanNFTStorage.sol",
  "abi": [
    {
      "inputs": [],
      "name": "_ERC721_RECEIVED",
      "outputs": [
        {
          "internalType": "bytes4",
          "name": "",
          "type": "bytes4"
        }
      ],
      "stateMutability": "view",
      "type": "function"
    },
    {
      "inputs": [],
      "name": "_INTERFACE_ID_ERC721",
      "outputs": [
        {
          "internalType": "bytes4",
          "name": "",
          "type": "bytes4"
        }
      ],
      "stateMutability": "view",
      "type": "function"
    },
    {
      "inputs": [],
      "name": "_INTERFACE_ID_ERC721_ENUMERABLE",
      "outputs": [
        {
          "internalType": "bytes4",
          "name": "",
          "type": "bytes4"
        }
      ],
      "stateMutability": "view",
      "type": "function"
    },
    {
      "inputs": [],
      "name": "_INTERFACE_ID_ERC721_METADATA",
      "outputs": [
        {
          "internalType": "bytes4",
          "name": "",
          "type": "bytes4"
        }
      ],
      "stateMutability": "view",
      "type": "function"
    },
    {
      "inputs": [
        {
          "internalType": "uint256",
          "name": "",
          "type": "uint256"
        }
      ],
      "name": "_allTokens",
      "outputs": [
        {
          "internalType": "uint256",
          "name": "",
          "type": "uint256"
        }
      ],
      "stateMutability": "view",
      "type": "function"
    },
    {
      "inputs": [
        {
          "internalType": "uint256",
          "name": "",
          "type": "uint256"
        }
      ],
      "name": "_allTokensIndex",
      "outputs": [
        {
          "internalType": "uint256",
          "name": "",
          "type": "uint256"
        }
      ],
      "stateMutability": "view",
      "type": "function"
    },
    {
      "inputs": [],
      "name": "_baseURI",
      "outputs": [
        {
          "internalType": "string",
          "name": "",
          "type": "string"
        }
      ],
      "stateMutability": "view",
      "type": "function"
    },
    {
      "inputs": [],
      "name": "_name",
      "outputs": [
        {
          "internalType": "string",
          "name": "",
          "type": "string"
        }
      ],
      "stateMutability": "view",
      "type": "function"
    },
    {
      "inputs": [
        {
          "internalType": "address",
          "name": "",
          "type": "address"
        },
        {
          "internalType": "address",
          "name": "",
          "type": "address"
        }
      ],
      "name": "_operatorApprovals",
      "outputs": [
        {
          "internalType": "bool",
          "name": "",
          "type": "bool"
        }
      ],
      "stateMutability": "view",
      "type": "function"
    },
    {
      "inputs": [
        {
          "internalType": "address",
          "name": "",
          "type": "address"
        },
        {
          "internalType": "uint256",
          "name": "",
          "type": "uint256"
        }
      ],
      "name": "_ownedTokens",
      "outputs": [
        {
          "internalType": "uint256",
          "name": "",
          "type": "uint256"
        }
      ],
      "stateMutability": "view",
      "type": "function"
    },
    {
      "inputs": [
        {
          "internalType": "address",
          "name": "",
          "type": "address"
        }
      ],
      "name": "_ownedTokensCount",
      "outputs": [
        {
          "internalType": "uint256",
          "name": "_value",
          "type": "uint256"
        }
      ],
      "stateMutability": "view",
      "type": "function"
    },
    {
      "inputs": [
        {
          "internalType": "uint256",
          "name": "",
          "type": "uint256"
        }
      ],
      "name": "_ownedTokensIndex",
      "outputs": [
        {
          "internalType": "uint256",
          "name": "",
          "type": "uint256"
        }
      ],
      "stateMutability": "view",
      "type": "function"
    },
    {
      "inputs": [],
      "name": "_owner",
      "outputs": [
        {
          "internalType": "address",
          "name": "",
          "type": "address"
        }
      ],
      "stateMutability": "view",
      "type": "function"
    },
    {
      "inputs": [],
      "name": "_symbol",
      "outputs": [
        {
          "internalType": "string",
          "name": "",
          "type": "string"
        }
      ],
      "stateMutability": "view",
      "type": "function"
    },
    {
      "inputs": [
        {
          "internalType": "uint256",
          "name": "",
          "type": "uint256"
        }
      ],
      "name": "_tokenApprovals",
      "outputs": [
        {
          "internalType": "address",
          "name": "",
          "type": "address"
        }
      ],
      "stateMutability": "view",
      "type": "function"
    },
    {
      "inputs": [
        {
          "internalType": "uint256",
          "name": "",
          "type": "uint256"
        }
      ],
      "name": "_tokenAttributes",
      "outputs": [
        {
          "internalType": "bytes",
          "name": "",
          "type": "bytes"
        }
      ],
      "stateMutability": "view",
      "type": "function"
    },
    {
      "inputs": [
        {
          "internalType": "uint256",
          "name": "",
          "type": "uint256"
        }
      ],
      "name": "_tokenOwner",
      "outputs": [
        {
          "internalType": "address",
          "name": "",
          "type": "address"
        }
      ],
      "stateMutability": "view",
      "type": "function"
    },
    {
      "inputs": [
        {
          "internalType": "uint256",
          "name": "",
          "type": "uint256"
        }
      ],
      "name": "_tokenURIs",
      "outputs": [
        {
          "internalType": "string",
          "name": "",
          "type": "string"
        }
      ],
      "stateMutability": "view",
      "type": "function"
    },
    {
      "inputs": [],
      "name": "maxId",
      "outputs": [
        {
          "internalType": "uint256",
          "name": "",
          "type": "uint256"
        }
      ],
      "stateMutability": "view",
      "type": "function"
    },
    {
      "inputs": [],
      "name": "pauseProxy",
      "outputs": [
        {
          "internalType": "bool",
          "name": "",
          "type": "bool"
        }
      ],
      "stateMutability": "view",
      "type": "function"
    },
    {
      "inputs": [
        {
          "internalType": "bytes4",
          "name": "interfaceId",
          "type": "bytes4"
        }
      ],
      "name": "supportsInterface",
      "outputs": [
        {
          "internalType": "bool",
          "name": "",
          "type": "bool"
        }
      ],
      "stateMutability": "view",
      "type": "function"
    }
  ],
  "bytecode": "0x608060405234801561001057600080fd5b506100216301ffc9a760e01b610026565b6100a9565b6001600160e01b031980821614156100845760405162461bcd60e51b815260206004820152601c60248201527f4552433136353a20696e76616c696420696e7465726661636520696400000000604482015260640160405180910390fd5b6001600160e01b0319166000908152602081905260409020805460ff19166001179055565b610666806100b86000396000f3fe608060405234801561001057600080fd5b50600436106101775760003560e01c8063a7263665116100d8578063b2bdfa7b1161008c578063dece685411610066578063dece685414610358578063edc3bc3f14610366578063f66317181461039457600080fd5b8063b2bdfa7b14610334578063c5ea3c6514610347578063d28d88521461035057600080fd5b8063aa5965ae116100bd578063aa5965ae1461030b578063b01ac5911461031e578063b09f12661461032c57600080fd5b8063a7263665146102c2578063a7cc0136146102e257600080fd5b8063743976a01161012f57806388290adc1161011457806388290adc1461026d57806394a509dd14610294578063a2e9b439146102a257600080fd5b8063743976a014610224578063796db3121461022c57600080fd5b806317a3a79c1161016057806317a3a79c146101de5780634f3c5f06146101f157806363a8fd891461021257600080fd5b806301ffc9a71461017c5780630bb78ec1146101be575b600080fd5b6101a961018a3660046104e0565b6001600160e01b03191660009081526020819052604090205460ff1690565b60405190151581526020015b60405180910390f35b6101d16101cc366004610511565b6103b4565b6040516101b59190610577565b6101d16101ec366004610511565b61044e565b6102046101ff3660046105a6565b610467565b6040519081526020016101b5565b6010546101a990610100900460ff1681565b6101d1610498565b61025561023a366004610511565b6008602052600090815260409020546001600160a01b031681565b6040516001600160a01b0390911681526020016101b5565b61027b630a85bd0160e11b81565b6040516001600160e01b031990911681526020016101b5565b61027b635b5e139f60e01b81565b6102046102b0366004610511565b600d6020526000908152604090205481565b6102046102d0366004610511565b600f6020526000908152604090205481565b6102556102f0366004610511565b6009602052600090815260409020546001600160a01b031681565b610204610319366004610511565b6104a5565b61027b63780e9d6360e01b81565b6101d16104c6565b600154610255906001600160a01b031681565b61020460045481565b6101d16104d3565b61027b6380ac58cd60e01b81565b6101a96103743660046105d0565b600b60209081526000928352604080842090915290825290205460ff1681565b6102046103a2366004610603565b600a6020526000908152604090205481565b600560205260009081526040902080546103cd9061061e565b80601f01602080910402602001604051908101604052809291908181526020018280546103f99061061e565b80156104465780601f1061041b57610100808354040283529160200191610446565b820191906000526020600020905b81548152906001019060200180831161042957829003601f168201915b505050505081565b600660205260009081526040902080546103cd9061061e565b600c602052816000526040600020818154811061048357600080fd5b90600052602060002001600091509150505481565b600780546103cd9061061e565b600e81815481106104b557600080fd5b600091825260209091200154905081565b600380546103cd9061061e565b600280546103cd9061061e565b6000602082840312156104f257600080fd5b81356001600160e01b03198116811461050a57600080fd5b9392505050565b60006020828403121561052357600080fd5b5035919050565b6000815180845260005b8181101561055057602081850181015186830182015201610534565b81811115610562576000602083870101525b50601f01601f19169290920160200192915050565b60208152600061050a602083018461052a565b80356001600160a01b03811681146105a157600080fd5b919050565b600080604083850312156105b957600080fd5b6105c28361058a565b946020939093013593505050565b600080604083850312156105e357600080fd5b6105ec8361058a565b91506105fa6020840161058a565b90509250929050565b60006020828403121561061557600080fd5b61050a8261058a565b600181811c9082168061063257607f821691505b6020821081141561065357634e487b7160e01b600052602260045260246000fd5b5091905056fea164736f6c6343000809000a",
  "linkReferences": {},
  "deployedLinkReferences": {}
}