{
  "_format": "hh-sol-artifact-1",
  "contractName": "TitanNFTStorage",
  "sourceName": "contracts/TitanNFTStorage.sol",
  "abi": [
    {
      "inputs": [],
      "name": "_ERC721_RECEIVED",
      "outputs": [
        {
          "internalType": "bytes4",
          "name": "",
          "type": "bytes4"
        }
      ],
      "stateMutability": "view",
      "type": "function"
    },
    {
      "inputs": [],
      "name": "_INTERFACE_ID_ERC721",
      "outputs": [
        {
          "internalType": "bytes4",
          "name": "",
          "type": "bytes4"
        }
      ],
      "stateMutability": "view",
      "type": "function"
    },
    {
      "inputs": [],
      "name": "_INTERFACE_ID_ERC721_ENUMERABLE",
      "outputs": [
        {
          "internalType": "bytes4",
          "name": "",
          "type": "bytes4"
        }
      ],
      "stateMutability": "view",
      "type": "function"
    },
    {
      "inputs": [],
      "name": "_INTERFACE_ID_ERC721_METADATA",
      "outputs": [
        {
          "internalType": "bytes4",
          "name": "",
          "type": "bytes4"
        }
      ],
      "stateMutability": "view",
      "type": "function"
    },
    {
      "inputs": [
        {
          "internalType": "uint256",
          "name": "",
          "type": "uint256"
        }
      ],
      "name": "_allTokens",
      "outputs": [
        {
          "internalType": "uint256",
          "name": "",
          "type": "uint256"
        }
      ],
      "stateMutability": "view",
      "type": "function"
    },
    {
      "inputs": [
        {
          "internalType": "uint256",
          "name": "",
          "type": "uint256"
        }
      ],
      "name": "_allTokensIndex",
      "outputs": [
        {
          "internalType": "uint256",
          "name": "",
          "type": "uint256"
        }
      ],
      "stateMutability": "view",
      "type": "function"
    },
    {
      "inputs": [],
      "name": "_baseURI",
      "outputs": [
        {
          "internalType": "string",
          "name": "",
          "type": "string"
        }
      ],
      "stateMutability": "view",
      "type": "function"
    },
    {
      "inputs": [],
      "name": "_name",
      "outputs": [
        {
          "internalType": "string",
          "name": "",
          "type": "string"
        }
      ],
      "stateMutability": "view",
      "type": "function"
    },
    {
      "inputs": [
        {
          "internalType": "address",
          "name": "",
          "type": "address"
        },
        {
          "internalType": "address",
          "name": "",
          "type": "address"
        }
      ],
      "name": "_operatorApprovals",
      "outputs": [
        {
          "internalType": "bool",
          "name": "",
          "type": "bool"
        }
      ],
      "stateMutability": "view",
      "type": "function"
    },
    {
      "inputs": [
        {
          "internalType": "address",
          "name": "",
          "type": "address"
        },
        {
          "internalType": "uint256",
          "name": "",
          "type": "uint256"
        }
      ],
      "name": "_ownedTokens",
      "outputs": [
        {
          "internalType": "uint256",
          "name": "",
          "type": "uint256"
        }
      ],
      "stateMutability": "view",
      "type": "function"
    },
    {
      "inputs": [
        {
          "internalType": "address",
          "name": "",
          "type": "address"
        }
      ],
      "name": "_ownedTokensCount",
      "outputs": [
        {
          "internalType": "uint256",
          "name": "_value",
          "type": "uint256"
        }
      ],
      "stateMutability": "view",
      "type": "function"
    },
    {
      "inputs": [
        {
          "internalType": "uint256",
          "name": "",
          "type": "uint256"
        }
      ],
      "name": "_ownedTokensIndex",
      "outputs": [
        {
          "internalType": "uint256",
          "name": "",
          "type": "uint256"
        }
      ],
      "stateMutability": "view",
      "type": "function"
    },
    {
      "inputs": [],
      "name": "_owner",
      "outputs": [
        {
          "internalType": "address",
          "name": "",
          "type": "address"
        }
      ],
      "stateMutability": "view",
      "type": "function"
    },
    {
      "inputs": [],
      "name": "_symbol",
      "outputs": [
        {
          "internalType": "string",
          "name": "",
          "type": "string"
        }
      ],
      "stateMutability": "view",
      "type": "function"
    },
    {
      "inputs": [
        {
          "internalType": "uint256",
          "name": "",
          "type": "uint256"
        }
      ],
      "name": "_tokenApprovals",
      "outputs": [
        {
          "internalType": "address",
          "name": "",
          "type": "address"
        }
      ],
      "stateMutability": "view",
      "type": "function"
    },
    {
      "inputs": [
        {
          "internalType": "uint256",
          "name": "",
          "type": "uint256"
        }
      ],
      "name": "_tokenAttributes",
      "outputs": [
        {
          "internalType": "bytes",
          "name": "",
          "type": "bytes"
        }
      ],
      "stateMutability": "view",
      "type": "function"
    },
    {
      "inputs": [
        {
          "internalType": "uint256",
          "name": "",
          "type": "uint256"
        }
      ],
      "name": "_tokenOwner",
      "outputs": [
        {
          "internalType": "address",
          "name": "",
          "type": "address"
        }
      ],
      "stateMutability": "view",
      "type": "function"
    },
    {
      "inputs": [
        {
          "internalType": "uint256",
          "name": "",
          "type": "uint256"
        }
      ],
      "name": "_tokenURIs",
      "outputs": [
        {
          "internalType": "string",
          "name": "",
          "type": "string"
        }
      ],
      "stateMutability": "view",
      "type": "function"
    },
    {
      "inputs": [],
      "name": "pauseProxy",
      "outputs": [
        {
          "internalType": "bool",
          "name": "",
          "type": "bool"
        }
      ],
      "stateMutability": "view",
      "type": "function"
    },
    {
      "inputs": [
        {
          "internalType": "bytes4",
          "name": "interfaceId",
          "type": "bytes4"
        }
      ],
      "name": "supportsInterface",
      "outputs": [
        {
          "internalType": "bool",
          "name": "",
          "type": "bool"
        }
      ],
      "stateMutability": "view",
      "type": "function"
    }
  ],
  "bytecode": "0x608060405234801561001057600080fd5b506100216301ffc9a760e01b610026565b6100a9565b6001600160e01b031980821614156100845760405162461bcd60e51b815260206004820152601c60248201527f4552433136353a20696e76616c696420696e7465726661636520696400000000604482015260640160405180910390fd5b6001600160e01b0319166000908152602081905260409020805460ff19166001179055565b610652806100b86000396000f3fe608060405234801561001057600080fd5b506004361061016c5760003560e01c8063a7263665116100cd578063b2bdfa7b11610081578063dece685411610066578063dece685414610344578063edc3bc3f14610352578063f66317181461038057600080fd5b8063b2bdfa7b14610329578063d28d88521461033c57600080fd5b8063aa5965ae116100b2578063aa5965ae14610300578063b01ac59114610313578063b09f12661461032157600080fd5b8063a7263665146102b7578063a7cc0136146102d757600080fd5b8063743976a01161012457806388290adc1161010957806388290adc1461026257806394a509dd14610289578063a2e9b4391461029757600080fd5b8063743976a014610219578063796db3121461022157600080fd5b806317a3a79c1161015557806317a3a79c146101d35780634f3c5f06146101e657806363a8fd891461020757600080fd5b806301ffc9a7146101715780630bb78ec1146101b3575b600080fd5b61019e61017f3660046104cc565b6001600160e01b03191660009081526020819052604090205460ff1690565b60405190151581526020015b60405180910390f35b6101c66101c13660046104fd565b6103a0565b6040516101aa9190610563565b6101c66101e13660046104fd565b61043a565b6101f96101f4366004610592565b610453565b6040519081526020016101aa565b600f5461019e90610100900460ff1681565b6101c6610484565b61024a61022f3660046104fd565b6007602052600090815260409020546001600160a01b031681565b6040516001600160a01b0390911681526020016101aa565b610270630a85bd0160e11b81565b6040516001600160e01b031990911681526020016101aa565b610270635b5e139f60e01b81565b6101f96102a53660046104fd565b600c6020526000908152604090205481565b6101f96102c53660046104fd565b600e6020526000908152604090205481565b61024a6102e53660046104fd565b6008602052600090815260409020546001600160a01b031681565b6101f961030e3660046104fd565b610491565b61027063780e9d6360e01b81565b6101c66104b2565b60015461024a906001600160a01b031681565b6101c66104bf565b6102706380ac58cd60e01b81565b61019e6103603660046105bc565b600a60209081526000928352604080842090915290825290205460ff1681565b6101f961038e3660046105ef565b60096020526000908152604090205481565b600460205260009081526040902080546103b99061060a565b80601f01602080910402602001604051908101604052809291908181526020018280546103e59061060a565b80156104325780601f1061040757610100808354040283529160200191610432565b820191906000526020600020905b81548152906001019060200180831161041557829003601f168201915b505050505081565b600560205260009081526040902080546103b99061060a565b600b602052816000526040600020818154811061046f57600080fd5b90600052602060002001600091509150505481565b600680546103b99061060a565b600d81815481106104a157600080fd5b600091825260209091200154905081565b600380546103b99061060a565b600280546103b99061060a565b6000602082840312156104de57600080fd5b81356001600160e01b0319811681146104f657600080fd5b9392505050565b60006020828403121561050f57600080fd5b5035919050565b6000815180845260005b8181101561053c57602081850181015186830182015201610520565b8181111561054e576000602083870101525b50601f01601f19169290920160200192915050565b6020815260006104f66020830184610516565b80356001600160a01b038116811461058d57600080fd5b919050565b600080604083850312156105a557600080fd5b6105ae83610576565b946020939093013593505050565b600080604083850312156105cf57600080fd5b6105d883610576565b91506105e660208401610576565b90509250929050565b60006020828403121561060157600080fd5b6104f682610576565b600181811c9082168061061e57607f821691505b6020821081141561063f57634e487b7160e01b600052602260045260246000fd5b5091905056fea164736f6c6343000809000a",
  "linkReferences": {},
  "deployedLinkReferences": {}
}