{
  "_format": "hh-sol-artifact-1",
  "contractName": "L1ERC721Bridge",
  "sourceName": "contracts/L1/L1ERC721Bridge.sol",
  "abi": [
    {
      "anonymous": false,
      "inputs": [
        {
          "indexed": true,
          "internalType": "address",
          "name": "localToken",
          "type": "address"
        },
        {
          "indexed": true,
          "internalType": "address",
          "name": "remoteToken",
          "type": "address"
        },
        {
          "indexed": true,
          "internalType": "address",
          "name": "from",
          "type": "address"
        },
        {
          "indexed": false,
          "internalType": "address",
          "name": "to",
          "type": "address"
        },
        {
          "indexed": false,
          "internalType": "uint256",
          "name": "tokenId",
          "type": "uint256"
        },
        {
          "indexed": false,
          "internalType": "bytes",
          "name": "extraData",
          "type": "bytes"
        }
      ],
      "name": "ERC721BridgeFinalized",
      "type": "event"
    },
    {
      "anonymous": false,
      "inputs": [
        {
          "indexed": true,
          "internalType": "address",
          "name": "localToken",
          "type": "address"
        },
        {
          "indexed": true,
          "internalType": "address",
          "name": "remoteToken",
          "type": "address"
        },
        {
          "indexed": true,
          "internalType": "address",
          "name": "from",
          "type": "address"
        },
        {
          "indexed": false,
          "internalType": "address",
          "name": "to",
          "type": "address"
        },
        {
          "indexed": false,
          "internalType": "uint256",
          "name": "tokenId",
          "type": "uint256"
        },
        {
          "indexed": false,
          "internalType": "bytes",
          "name": "extraData",
          "type": "bytes"
        }
      ],
      "name": "ERC721BridgeInitiated",
      "type": "event"
    },
    {
      "anonymous": false,
      "inputs": [
        {
          "indexed": false,
          "internalType": "address",
          "name": "messenger",
          "type": "address"
        },
        {
          "indexed": false,
          "internalType": "address",
          "name": "otherBridge",
          "type": "address"
        }
      ],
      "name": "SetL1ERC721Bridge",
      "type": "event"
    },
    {
      "anonymous": false,
      "inputs": [
        {
          "indexed": false,
          "internalType": "uint256",
          "name": "major",
          "type": "uint256"
        },
        {
          "indexed": false,
          "internalType": "uint256",
          "name": "minor",
          "type": "uint256"
        },
        {
          "indexed": false,
          "internalType": "uint256",
          "name": "patch",
          "type": "uint256"
        }
      ],
      "name": "SetSemver",
      "type": "event"
    },
    {
      "inputs": [],
      "name": "MAJOR_VERSION",
      "outputs": [
        {
          "internalType": "uint256",
          "name": "",
          "type": "uint256"
        }
      ],
      "stateMutability": "view",
      "type": "function"
    },
    {
      "inputs": [],
      "name": "MESSENGER",
      "outputs": [
        {
          "internalType": "address",
          "name": "",
          "type": "address"
        }
      ],
      "stateMutability": "view",
      "type": "function"
    },
    {
      "inputs": [],
      "name": "MINOR_VERSION",
      "outputs": [
        {
          "internalType": "uint256",
          "name": "",
          "type": "uint256"
        }
      ],
      "stateMutability": "view",
      "type": "function"
    },
    {
      "inputs": [],
      "name": "OTHER_BRIDGE",
      "outputs": [
        {
          "internalType": "address",
          "name": "",
          "type": "address"
        }
      ],
      "stateMutability": "view",
      "type": "function"
    },
    {
      "inputs": [],
      "name": "PATCH_VERSION",
      "outputs": [
        {
          "internalType": "uint256",
          "name": "",
          "type": "uint256"
        }
      ],
      "stateMutability": "view",
      "type": "function"
    },
    {
      "inputs": [
        {
          "internalType": "uint256",
          "name": "",
          "type": "uint256"
        }
      ],
      "name": "__gap",
      "outputs": [
        {
          "internalType": "uint256",
          "name": "",
          "type": "uint256"
        }
      ],
      "stateMutability": "view",
      "type": "function"
    },
    {
      "inputs": [
        {
          "internalType": "address",
          "name": "_localToken",
          "type": "address"
        },
        {
          "internalType": "address",
          "name": "_remoteToken",
          "type": "address"
        },
        {
          "internalType": "uint256",
          "name": "_tokenId",
          "type": "uint256"
        },
        {
          "internalType": "uint32",
          "name": "_minGasLimit",
          "type": "uint32"
        },
        {
          "internalType": "bytes",
          "name": "_extraData",
          "type": "bytes"
        }
      ],
      "name": "bridgeERC721",
      "outputs": [],
      "stateMutability": "nonpayable",
      "type": "function"
    },
    {
      "inputs": [
        {
          "internalType": "address",
          "name": "_localToken",
          "type": "address"
        },
        {
          "internalType": "address",
          "name": "_remoteToken",
          "type": "address"
        },
        {
          "internalType": "address",
          "name": "_to",
          "type": "address"
        },
        {
          "internalType": "uint256",
          "name": "_tokenId",
          "type": "uint256"
        },
        {
          "internalType": "uint32",
          "name": "_minGasLimit",
          "type": "uint32"
        },
        {
          "internalType": "bytes",
          "name": "_extraData",
          "type": "bytes"
        }
      ],
      "name": "bridgeERC721To",
      "outputs": [],
      "stateMutability": "nonpayable",
      "type": "function"
    },
    {
      "inputs": [
        {
          "internalType": "address",
          "name": "_localToken",
          "type": "address"
        },
        {
          "internalType": "address",
          "name": "_remoteToken",
          "type": "address"
        },
        {
          "internalType": "address",
          "name": "_from",
          "type": "address"
        },
        {
          "internalType": "address",
          "name": "_to",
          "type": "address"
        },
        {
          "internalType": "uint256",
          "name": "_tokenId",
          "type": "uint256"
        },
        {
          "internalType": "bytes",
          "name": "_extraData",
          "type": "bytes"
        }
      ],
      "name": "finalizeBridgeERC721",
      "outputs": [],
      "stateMutability": "nonpayable",
      "type": "function"
    },
    {
      "inputs": [
        {
          "internalType": "address",
          "name": "_messenger",
          "type": "address"
        },
        {
          "internalType": "address",
          "name": "_otherBridge",
          "type": "address"
        }
      ],
      "name": "initialize",
      "outputs": [],
      "stateMutability": "nonpayable",
      "type": "function"
    },
    {
      "inputs": [],
      "name": "messenger",
      "outputs": [
        {
          "internalType": "address",
          "name": "",
          "type": "address"
        }
      ],
      "stateMutability": "view",
      "type": "function"
    },
    {
      "inputs": [],
      "name": "otherBridge",
      "outputs": [
        {
          "internalType": "address",
          "name": "",
          "type": "address"
        }
      ],
      "stateMutability": "view",
      "type": "function"
    },
    {
      "inputs": [
        {
          "internalType": "uint256",
          "name": "_major",
          "type": "uint256"
        },
        {
          "internalType": "uint256",
          "name": "_minor",
          "type": "uint256"
        },
        {
          "internalType": "uint256",
          "name": "_patch",
          "type": "uint256"
        }
      ],
      "name": "setSemver",
      "outputs": [],
      "stateMutability": "nonpayable",
      "type": "function"
    }
  ],
  "bytecode": "0x608060405234801561001057600080fd5b50611128806100206000396000f3fe608060405234801561001057600080fd5b50600436106100df5760003560e01c806381ee745b1161008c578063aa55745211610066578063aa557452146101ac578063c89701a2146101bf578063c8b91531146101d0578063f786becd146101d957600080fd5b806381ee745b14610173578063927ede2d14610186578063932645101461019957600080fd5b80636bf2606a116100bd5780636bf2606a14610136578063761f44931461014d5780637f46ddb21461016057600080fd5b80633687011a146100e45780633cb747bf146100f9578063485cc95514610123575b600080fd5b6100f76100f2366004610dce565b6101e2565b005b6000546001600160a01b03165b6040516001600160a01b0390911681526020015b60405180910390f35b6100f7610131366004610e51565b610274565b61013f60355481565b60405190815260200161011a565b6100f761015b366004610e8a565b61031d565b600154610106906001600160a01b031681565b61013f610181366004610f22565b610705565b600054610106906001600160a01b031681565b6100f76101a7366004610f3b565b61071c565b6100f76101ba366004610f67565b6107d9565b6001546001600160a01b0316610106565b61013f60345481565b61013f60335481565b333b1561025c5760405162461bcd60e51b815260206004820152602d60248201527f4552433732314272696467653a206163636f756e74206973206e6f742065787460448201527f65726e616c6c79206f776e65640000000000000000000000000000000000000060648201526084015b60405180910390fd5b61026c868633338888888861086e565b505050505050565b7fb53127684a568b3173ae13b9f8a6016e243e63b6e8ee1178d6a717850b5d6103546001600160a01b0316336001600160a01b0316146102e25760405162461bcd60e51b81526020600482015260096024820152683737ba1037bbb732b960b91b6044820152606401610253565b600080546001600160a01b0393841673ffffffffffffffffffffffffffffffffffffffff199182161790915560018054929093169116179055565b6000546001600160a01b0316331480156103c1575060015460005460408051636e296e4560e01b815290516001600160a01b039384169390921691636e296e4591600480820192602092909190829003018186803b15801561037e57600080fd5b505afa158015610392573d6000803e3d6000fd5b505050506040513d601f19601f820116820180604052508101906103b69190610fde565b6001600160a01b0316145b6104335760405162461bcd60e51b815260206004820152603f60248201527f4552433732314272696467653a2066756e6374696f6e2063616e206f6e6c792060448201527f62652063616c6c65642066726f6d20746865206f7468657220627269646765006064820152608401610253565b6001600160a01b03871630141561049f5760405162461bcd60e51b815260206004820152602a60248201527f4c324552433732314272696467653a206c6f63616c20746f6b656e2063616e6e60448201526937ba1031329039b2b63360b11b6064820152608401610253565b6104b0876374259ebf60e01b610c74565b6105225760405162461bcd60e51b815260206004820152603660248201527f4c314552433732314272696467653a206c6f63616c20746f6b656e20696e746560448201527f7266616365206973206e6f7420636f6d706c69616e74000000000000000000006064820152608401610253565b866001600160a01b031663d6c0b2c46040518163ffffffff1660e01b815260040160206040518083038186803b15801561055b57600080fd5b505afa15801561056f573d6000803e3d6000fd5b505050506040513d601f19601f820116820180604052508101906105939190610fde565b6001600160a01b0316866001600160a01b03161461063f5760405162461bcd60e51b815260206004820152604b60248201527f4c324552433732314272696467653a2077726f6e672072656d6f746520746f6b60448201527f656e20666f72204f7074696d69736d204d696e7461626c65204552433732312060648201527f6c6f63616c20746f6b656e000000000000000000000000000000000000000000608482015260a401610253565b604051632851206560e21b81526001600160a01b0385811660048301526024820185905288169063a144819490604401600060405180830381600087803b15801561068957600080fd5b505af115801561069d573d6000803e3d6000fd5b50505050846001600160a01b0316866001600160a01b0316886001600160a01b03167f1f39bf6707b5d608453e0ae4c067b562bcc4c85c0f562ef5d2c774d2e7f131ac878787876040516106f49493929190611024565b60405180910390a450505050505050565b6002816031811061071557600080fd5b0154905081565b7fb53127684a568b3173ae13b9f8a6016e243e63b6e8ee1178d6a717850b5d6103546001600160a01b0316336001600160a01b03161461078a5760405162461bcd60e51b81526020600482015260096024820152683737ba1037bbb732b960b91b6044820152606401610253565b60408051848152602081018490529081018290527f8c574a7ce95db8f15c68124db0e70ab86cf01d6244fbff9591d26c09b5c5473e9060600160405180910390a1603392909255603455603555565b6001600160a01b0385166108555760405162461bcd60e51b815260206004820152603060248201527f4552433732314272696467653a206e667420726563697069656e742063616e6e60448201527f6f742062652061646472657373283029000000000000000000000000000000006064820152608401610253565b610865878733888888888861086e565b50505050505050565b6001600160a01b0387166108ea5760405162461bcd60e51b815260206004820152603160248201527f4c314552433732314272696467653a2072656d6f746520746f6b656e2063616e60448201527f6e6f7420626520616464726573732830290000000000000000000000000000006064820152608401610253565b6040516331a9108f60e11b8152600481018590526001600160a01b03891690636352211e9060240160206040518083038186803b15801561092a57600080fd5b505afa15801561093e573d6000803e3d6000fd5b505050506040513d601f19601f820116820180604052508101906109629190610fde565b6001600160a01b0316866001600160a01b0316146109e85760405162461bcd60e51b815260206004820152603e60248201527f4c314552433732314272696467653a205769746864726177616c206973206e6f60448201527f74206265696e6720696e69746961746564206279204e4654206f776e657200006064820152608401610253565b6000886001600160a01b031663d6c0b2c46040518163ffffffff1660e01b815260040160206040518083038186803b158015610a2357600080fd5b505afa158015610a37573d6000803e3d6000fd5b505050506040513d601f19601f82011682018060405250810190610a5b9190610fde565b9050876001600160a01b0316816001600160a01b031614610ae45760405162461bcd60e51b815260206004820152603760248201527f4c314552433732314272696467653a2072656d6f746520746f6b656e20646f6560448201527f73206e6f74206d6174636820676976656e2076616c75650000000000000000006064820152608401610253565b604051632770a7eb60e21b81526001600160a01b038881166004830152602482018790528a1690639dc29fac90604401600060405180830381600087803b158015610b2e57600080fd5b505af1158015610b42573d6000803e3d6000fd5b50505050600063761f449360e01b828b8a8a8a8989604051602401610b6d9796959493929190611057565b60408051601f198184030181529181526020820180516001600160e01b03166001600160e01b0319909416939093179092526000546001549251633dbb202b60e01b81529193506001600160a01b0390811692633dbb202b92610bdb92919091169085908a906004016110a7565b600060405180830381600087803b158015610bf557600080fd5b505af1158015610c09573d6000803e3d6000fd5b50505050876001600160a01b0316826001600160a01b03168b6001600160a01b03167fb7460e2a880f256ebef3406116ff3eee0cee51ebccdc2a40698f87ebb2e9c1a58a8a8989604051610c609493929190611024565b60405180910390a450505050505050505050565b6000610c7f83610c97565b8015610c905750610c908383610ccb565b9392505050565b6000610caa826301ffc9a760e01b610ccb565b8015610cc55750610cc3826001600160e01b0319610ccb565b155b92915050565b604080516001600160e01b03198316602480830191909152825180830390910181526044909101909152602080820180516001600160e01b03166301ffc9a760e01b178152825160009392849283928392918391908a617530fa92503d91506000519050828015610d3d575060208210155b8015610d495750600081115b979650505050505050565b6001600160a01b0381168114610d6957600080fd5b50565b803563ffffffff81168114610d8057600080fd5b919050565b60008083601f840112610d9757600080fd5b50813567ffffffffffffffff811115610daf57600080fd5b602083019150836020828501011115610dc757600080fd5b9250929050565b60008060008060008060a08789031215610de757600080fd5b8635610df281610d54565b95506020870135610e0281610d54565b945060408701359350610e1760608801610d6c565b9250608087013567ffffffffffffffff811115610e3357600080fd5b610e3f89828a01610d85565b979a9699509497509295939492505050565b60008060408385031215610e6457600080fd5b8235610e6f81610d54565b91506020830135610e7f81610d54565b809150509250929050565b600080600080600080600060c0888a031215610ea557600080fd5b8735610eb081610d54565b96506020880135610ec081610d54565b95506040880135610ed081610d54565b94506060880135610ee081610d54565b93506080880135925060a088013567ffffffffffffffff811115610f0357600080fd5b610f0f8a828b01610d85565b989b979a50959850939692959293505050565b600060208284031215610f3457600080fd5b5035919050565b600080600060608486031215610f5057600080fd5b505081359360208301359350604090920135919050565b600080600080600080600060c0888a031215610f8257600080fd5b8735610f8d81610d54565b96506020880135610f9d81610d54565b95506040880135610fad81610d54565b945060608801359350610fc260808901610d6c565b925060a088013567ffffffffffffffff811115610f0357600080fd5b600060208284031215610ff057600080fd5b8151610c9081610d54565b81835281816020850137506000828201602090810191909152601f909101601f19169091010190565b6001600160a01b038516815283602082015260606040820152600061104d606083018486610ffb565b9695505050505050565b60006001600160a01b03808a1683528089166020840152808816604084015280871660608401525084608083015260c060a083015261109a60c083018486610ffb565b9998505050505050505050565b6001600160a01b038416815260006020606081840152845180606085015260005b818110156110e4578681018301518582016080015282016110c8565b818111156110f6576000608083870101525b5063ffffffff9490941660408401525050601f91909101601f1916016080019291505056fea164736f6c6343000809000a",
  "linkReferences": {},
  "deployedLinkReferences": {}
}