{
  "_format": "hh-sol-artifact-1",
  "contractName": "TitanNFT",
  "sourceName": "contracts/TitanNFT.sol",
  "abi": [
    {
      "anonymous": false,
      "inputs": [
        {
          "indexed": true,
          "internalType": "address",
          "name": "owner",
          "type": "address"
        },
        {
          "indexed": true,
          "internalType": "address",
          "name": "approved",
          "type": "address"
        },
        {
          "indexed": true,
          "internalType": "uint256",
          "name": "tokenId",
          "type": "uint256"
        }
      ],
      "name": "Approval",
      "type": "event"
    },
    {
      "anonymous": false,
      "inputs": [
        {
          "indexed": true,
          "internalType": "address",
          "name": "owner",
          "type": "address"
        },
        {
          "indexed": true,
          "internalType": "address",
          "name": "operator",
          "type": "address"
        },
        {
          "indexed": false,
          "internalType": "bool",
          "name": "approved",
          "type": "bool"
        }
      ],
      "name": "ApprovalForAll",
      "type": "event"
    },
    {
      "anonymous": false,
      "inputs": [
        {
          "indexed": false,
          "internalType": "uint256",
          "name": "tokenId",
          "type": "uint256"
        },
        {
          "indexed": false,
          "internalType": "bytes",
          "name": "attribute",
          "type": "bytes"
        }
      ],
      "name": "SetAttribute",
      "type": "event"
    },
    {
      "anonymous": false,
      "inputs": [
        {
          "indexed": true,
          "internalType": "address",
          "name": "from",
          "type": "address"
        },
        {
          "indexed": true,
          "internalType": "address",
          "name": "to",
          "type": "address"
        },
        {
          "indexed": true,
          "internalType": "uint256",
          "name": "tokenId",
          "type": "uint256"
        }
      ],
      "name": "Transfer",
      "type": "event"
    },
    {
      "inputs": [],
      "name": "BRIDGE",
      "outputs": [
        {
          "internalType": "address",
          "name": "",
          "type": "address"
        }
      ],
      "stateMutability": "view",
      "type": "function"
    },
    {
      "inputs": [],
      "name": "MAJOR_VERSION",
      "outputs": [
        {
          "internalType": "uint256",
          "name": "",
          "type": "uint256"
        }
      ],
      "stateMutability": "view",
      "type": "function"
    },
    {
      "inputs": [],
      "name": "MAX_ID",
      "outputs": [
        {
          "internalType": "uint256",
          "name": "",
          "type": "uint256"
        }
      ],
      "stateMutability": "view",
      "type": "function"
    },
    {
      "inputs": [],
      "name": "MINOR_VERSION",
      "outputs": [
        {
          "internalType": "uint256",
          "name": "",
          "type": "uint256"
        }
      ],
      "stateMutability": "view",
      "type": "function"
    },
    {
      "inputs": [],
      "name": "PATCH_VERSION",
      "outputs": [
        {
          "internalType": "uint256",
          "name": "",
          "type": "uint256"
        }
      ],
      "stateMutability": "view",
      "type": "function"
    },
    {
      "inputs": [],
      "name": "REMOTE_CHAIN_ID",
      "outputs": [
        {
          "internalType": "uint256",
          "name": "",
          "type": "uint256"
        }
      ],
      "stateMutability": "view",
      "type": "function"
    },
    {
      "inputs": [],
      "name": "REMOTE_TOKEN",
      "outputs": [
        {
          "internalType": "address",
          "name": "",
          "type": "address"
        }
      ],
      "stateMutability": "view",
      "type": "function"
    },
    {
      "inputs": [],
      "name": "_ERC721_RECEIVED",
      "outputs": [
        {
          "internalType": "bytes4",
          "name": "",
          "type": "bytes4"
        }
      ],
      "stateMutability": "view",
      "type": "function"
    },
    {
      "inputs": [],
      "name": "_INTERFACE_ID_ERC721",
      "outputs": [
        {
          "internalType": "bytes4",
          "name": "",
          "type": "bytes4"
        }
      ],
      "stateMutability": "view",
      "type": "function"
    },
    {
      "inputs": [],
      "name": "_INTERFACE_ID_ERC721_ENUMERABLE",
      "outputs": [
        {
          "internalType": "bytes4",
          "name": "",
          "type": "bytes4"
        }
      ],
      "stateMutability": "view",
      "type": "function"
    },
    {
      "inputs": [],
      "name": "_INTERFACE_ID_ERC721_METADATA",
      "outputs": [
        {
          "internalType": "bytes4",
          "name": "",
          "type": "bytes4"
        }
      ],
      "stateMutability": "view",
      "type": "function"
    },
    {
      "inputs": [
        {
          "internalType": "uint256",
          "name": "",
          "type": "uint256"
        }
      ],
      "name": "_allTokens",
      "outputs": [
        {
          "internalType": "uint256",
          "name": "",
          "type": "uint256"
        }
      ],
      "stateMutability": "view",
      "type": "function"
    },
    {
      "inputs": [
        {
          "internalType": "uint256",
          "name": "",
          "type": "uint256"
        }
      ],
      "name": "_allTokensIndex",
      "outputs": [
        {
          "internalType": "uint256",
          "name": "",
          "type": "uint256"
        }
      ],
      "stateMutability": "view",
      "type": "function"
    },
    {
      "inputs": [],
      "name": "_baseURI",
      "outputs": [
        {
          "internalType": "string",
          "name": "",
          "type": "string"
        }
      ],
      "stateMutability": "view",
      "type": "function"
    },
    {
      "inputs": [],
      "name": "_manager",
      "outputs": [
        {
          "internalType": "address",
          "name": "",
          "type": "address"
        }
      ],
      "stateMutability": "view",
      "type": "function"
    },
    {
      "inputs": [],
      "name": "_name",
      "outputs": [
        {
          "internalType": "string",
          "name": "",
          "type": "string"
        }
      ],
      "stateMutability": "view",
      "type": "function"
    },
    {
      "inputs": [
        {
          "internalType": "address",
          "name": "",
          "type": "address"
        },
        {
          "internalType": "address",
          "name": "",
          "type": "address"
        }
      ],
      "name": "_operatorApprovals",
      "outputs": [
        {
          "internalType": "bool",
          "name": "",
          "type": "bool"
        }
      ],
      "stateMutability": "view",
      "type": "function"
    },
    {
      "inputs": [
        {
          "internalType": "address",
          "name": "",
          "type": "address"
        },
        {
          "internalType": "uint256",
          "name": "",
          "type": "uint256"
        }
      ],
      "name": "_ownedTokens",
      "outputs": [
        {
          "internalType": "uint256",
          "name": "",
          "type": "uint256"
        }
      ],
      "stateMutability": "view",
      "type": "function"
    },
    {
      "inputs": [
        {
          "internalType": "address",
          "name": "",
          "type": "address"
        }
      ],
      "name": "_ownedTokensCount",
      "outputs": [
        {
          "internalType": "uint256",
          "name": "_value",
          "type": "uint256"
        }
      ],
      "stateMutability": "view",
      "type": "function"
    },
    {
      "inputs": [
        {
          "internalType": "uint256",
          "name": "",
          "type": "uint256"
        }
      ],
      "name": "_ownedTokensIndex",
      "outputs": [
        {
          "internalType": "uint256",
          "name": "",
          "type": "uint256"
        }
      ],
      "stateMutability": "view",
      "type": "function"
    },
    {
      "inputs": [],
      "name": "_owner",
      "outputs": [
        {
          "internalType": "address",
          "name": "",
          "type": "address"
        }
      ],
      "stateMutability": "view",
      "type": "function"
    },
    {
      "inputs": [],
      "name": "_symbol",
      "outputs": [
        {
          "internalType": "string",
          "name": "",
          "type": "string"
        }
      ],
      "stateMutability": "view",
      "type": "function"
    },
    {
      "inputs": [
        {
          "internalType": "uint256",
          "name": "",
          "type": "uint256"
        }
      ],
      "name": "_tokenApprovals",
      "outputs": [
        {
          "internalType": "address",
          "name": "",
          "type": "address"
        }
      ],
      "stateMutability": "view",
      "type": "function"
    },
    {
      "inputs": [
        {
          "internalType": "uint256",
          "name": "",
          "type": "uint256"
        }
      ],
      "name": "_tokenAttributes",
      "outputs": [
        {
          "internalType": "bytes",
          "name": "",
          "type": "bytes"
        }
      ],
      "stateMutability": "view",
      "type": "function"
    },
    {
      "inputs": [
        {
          "internalType": "uint256",
          "name": "",
          "type": "uint256"
        }
      ],
      "name": "_tokenOwner",
      "outputs": [
        {
          "internalType": "address",
          "name": "",
          "type": "address"
        }
      ],
      "stateMutability": "view",
      "type": "function"
    },
    {
      "inputs": [
        {
          "internalType": "uint256",
          "name": "",
          "type": "uint256"
        }
      ],
      "name": "_tokenURIs",
      "outputs": [
        {
          "internalType": "string",
          "name": "",
          "type": "string"
        }
      ],
      "stateMutability": "view",
      "type": "function"
    },
    {
      "inputs": [],
      "name": "allTokens",
      "outputs": [
        {
          "internalType": "uint256[]",
          "name": "",
          "type": "uint256[]"
        }
      ],
      "stateMutability": "view",
      "type": "function"
    },
    {
      "inputs": [
        {
          "internalType": "address",
          "name": "to",
          "type": "address"
        },
        {
          "internalType": "uint256",
          "name": "tokenId",
          "type": "uint256"
        }
      ],
      "name": "approve",
      "outputs": [],
      "stateMutability": "nonpayable",
      "type": "function"
    },
    {
      "inputs": [
        {
          "internalType": "address",
          "name": "owner_",
          "type": "address"
        }
      ],
      "name": "balanceOf",
      "outputs": [
        {
          "internalType": "uint256",
          "name": "",
          "type": "uint256"
        }
      ],
      "stateMutability": "view",
      "type": "function"
    },
    {
      "inputs": [],
      "name": "baseURI",
      "outputs": [
        {
          "internalType": "string",
          "name": "",
          "type": "string"
        }
      ],
      "stateMutability": "view",
      "type": "function"
    },
    {
      "inputs": [
        {
          "internalType": "uint256",
          "name": "tokenId",
          "type": "uint256"
        }
      ],
      "name": "getApproved",
      "outputs": [
        {
          "internalType": "address",
          "name": "",
          "type": "address"
        }
      ],
      "stateMutability": "view",
      "type": "function"
    },
    {
      "inputs": [
        {
          "internalType": "address",
          "name": "owner_",
          "type": "address"
        },
        {
          "internalType": "address",
          "name": "operator",
          "type": "address"
        }
      ],
      "name": "isApprovedForAll",
      "outputs": [
        {
          "internalType": "bool",
          "name": "",
          "type": "bool"
        }
      ],
      "stateMutability": "view",
      "type": "function"
    },
    {
      "inputs": [
        {
          "internalType": "address",
          "name": "addr",
          "type": "address"
        }
      ],
      "name": "isManager",
      "outputs": [
        {
          "internalType": "bool",
          "name": "",
          "type": "bool"
        }
      ],
      "stateMutability": "view",
      "type": "function"
    },
    {
      "inputs": [
        {
          "internalType": "address",
          "name": "addr",
          "type": "address"
        }
      ],
      "name": "isOwner",
      "outputs": [
        {
          "internalType": "bool",
          "name": "",
          "type": "bool"
        }
      ],
      "stateMutability": "view",
      "type": "function"
    },
    {
      "inputs": [],
      "name": "manager",
      "outputs": [
        {
          "internalType": "address",
          "name": "",
          "type": "address"
        }
      ],
      "stateMutability": "view",
      "type": "function"
    },
    {
      "inputs": [
        {
          "internalType": "uint256",
          "name": "tokenId",
          "type": "uint256"
        },
        {
          "internalType": "bytes",
          "name": "attribute",
          "type": "bytes"
        },
        {
          "internalType": "address",
          "name": "to",
          "type": "address"
        }
      ],
      "name": "mint",
      "outputs": [],
      "stateMutability": "nonpayable",
      "type": "function"
    },
    {
      "inputs": [
        {
          "internalType": "uint256[]",
          "name": "tokenIds",
          "type": "uint256[]"
        },
        {
          "internalType": "bytes[]",
          "name": "attributes",
          "type": "bytes[]"
        },
        {
          "internalType": "address",
          "name": "to",
          "type": "address"
        }
      ],
      "name": "multiMint",
      "outputs": [],
      "stateMutability": "nonpayable",
      "type": "function"
    },
    {
      "inputs": [],
      "name": "name",
      "outputs": [
        {
          "internalType": "string",
          "name": "",
          "type": "string"
        }
      ],
      "stateMutability": "view",
      "type": "function"
    },
    {
      "inputs": [],
      "name": "owner",
      "outputs": [
        {
          "internalType": "address",
          "name": "",
          "type": "address"
        }
      ],
      "stateMutability": "view",
      "type": "function"
    },
    {
      "inputs": [
        {
          "internalType": "uint256",
          "name": "tokenId",
          "type": "uint256"
        }
      ],
      "name": "ownerOf",
      "outputs": [
        {
          "internalType": "address",
          "name": "",
          "type": "address"
        }
      ],
      "stateMutability": "view",
      "type": "function"
    },
    {
      "inputs": [],
      "name": "pauseProxy",
      "outputs": [
        {
          "internalType": "bool",
          "name": "",
          "type": "bool"
        }
      ],
      "stateMutability": "view",
      "type": "function"
    },
    {
      "inputs": [
        {
          "internalType": "address",
          "name": "from",
          "type": "address"
        },
        {
          "internalType": "address",
          "name": "to",
          "type": "address"
        },
        {
          "internalType": "uint256",
          "name": "tokenId",
          "type": "uint256"
        }
      ],
      "name": "safeTransferFrom",
      "outputs": [],
      "stateMutability": "nonpayable",
      "type": "function"
    },
    {
      "inputs": [
        {
          "internalType": "address",
          "name": "from",
          "type": "address"
        },
        {
          "internalType": "address",
          "name": "to",
          "type": "address"
        },
        {
          "internalType": "uint256",
          "name": "tokenId",
          "type": "uint256"
        },
        {
          "internalType": "bytes",
          "name": "_data",
          "type": "bytes"
        }
      ],
      "name": "safeTransferFrom",
      "outputs": [],
      "stateMutability": "nonpayable",
      "type": "function"
    },
    {
      "inputs": [
        {
          "internalType": "address",
          "name": "operator",
          "type": "address"
        },
        {
          "internalType": "bool",
          "name": "approved",
          "type": "bool"
        }
      ],
      "name": "setApprovalForAll",
      "outputs": [],
      "stateMutability": "nonpayable",
      "type": "function"
    },
    {
      "inputs": [
        {
          "internalType": "string",
          "name": "baseURI_",
          "type": "string"
        }
      ],
      "name": "setBaseURI",
      "outputs": [],
      "stateMutability": "nonpayable",
      "type": "function"
    },
    {
      "inputs": [
        {
          "internalType": "uint256",
          "name": "tokenId",
          "type": "uint256"
        },
        {
          "internalType": "string",
          "name": "_tokenURI",
          "type": "string"
        }
      ],
      "name": "setTokenURI",
      "outputs": [],
      "stateMutability": "nonpayable",
      "type": "function"
    },
    {
      "inputs": [
        {
          "internalType": "uint256[]",
          "name": "tokenIds",
          "type": "uint256[]"
        },
        {
          "internalType": "string[]",
          "name": "_tokenURIs",
          "type": "string[]"
        }
      ],
      "name": "setTokenURI",
      "outputs": [],
      "stateMutability": "nonpayable",
      "type": "function"
    },
    {
      "inputs": [
        {
          "internalType": "bytes4",
          "name": "interfaceId",
          "type": "bytes4"
        }
      ],
      "name": "supportsInterface",
      "outputs": [
        {
          "internalType": "bool",
          "name": "",
          "type": "bool"
        }
      ],
      "stateMutability": "view",
      "type": "function"
    },
    {
      "inputs": [],
      "name": "symbol",
      "outputs": [
        {
          "internalType": "string",
          "name": "",
          "type": "string"
        }
      ],
      "stateMutability": "view",
      "type": "function"
    },
    {
      "inputs": [
        {
          "internalType": "uint256",
          "name": "index",
          "type": "uint256"
        }
      ],
      "name": "tokenByIndex",
      "outputs": [
        {
          "internalType": "uint256",
          "name": "",
          "type": "uint256"
        }
      ],
      "stateMutability": "view",
      "type": "function"
    },
    {
      "inputs": [
        {
          "internalType": "address",
          "name": "owner_",
          "type": "address"
        },
        {
          "internalType": "uint256",
          "name": "index",
          "type": "uint256"
        }
      ],
      "name": "tokenOfOwnerByIndex",
      "outputs": [
        {
          "internalType": "uint256",
          "name": "",
          "type": "uint256"
        }
      ],
      "stateMutability": "view",
      "type": "function"
    },
    {
      "inputs": [
        {
          "internalType": "uint256",
          "name": "tokenId",
          "type": "uint256"
        }
      ],
      "name": "tokenURI",
      "outputs": [
        {
          "internalType": "string",
          "name": "",
          "type": "string"
        }
      ],
      "stateMutability": "view",
      "type": "function"
    },
    {
      "inputs": [
        {
          "internalType": "address",
          "name": "owner_",
          "type": "address"
        }
      ],
      "name": "tokensOfOwner",
      "outputs": [
        {
          "internalType": "uint256[]",
          "name": "",
          "type": "uint256[]"
        }
      ],
      "stateMutability": "view",
      "type": "function"
    },
    {
      "inputs": [],
      "name": "totalSupply",
      "outputs": [
        {
          "internalType": "uint256",
          "name": "",
          "type": "uint256"
        }
      ],
      "stateMutability": "view",
      "type": "function"
    },
    {
      "inputs": [
        {
          "internalType": "address",
          "name": "from",
          "type": "address"
        },
        {
          "internalType": "address",
          "name": "to",
          "type": "address"
        },
        {
          "internalType": "uint256",
          "name": "tokenId",
          "type": "uint256"
        }
      ],
      "name": "transferFrom",
      "outputs": [],
      "stateMutability": "nonpayable",
      "type": "function"
    }
  ],
  "bytecode": "0x60806040523480156200001157600080fd5b50620000246301ffc9a760e01b6200002a565b620000ae565b6001600160e01b03198082161415620000895760405162461bcd60e51b815260206004820152601c60248201527f4552433136353a20696e76616c696420696e7465726661636520696400000000604482015260640160405180910390fd5b6001600160e01b0319166000908152602081905260409020805460ff19166001179055565b612d9080620000be6000396000f3fe608060405234801561001057600080fd5b506004361061036d5760003560e01c80638462151c116101d3578063b2bdfa7b11610104578063edc3bc3f116100a2578063f3ae24151161007c578063f3ae2415146107b5578063f47c3878146107c8578063f6631718146107db578063f786becd146107fb57600080fd5b8063edc3bc3f14610761578063ee9a31a21461078f578063f0329f6b146107a257600080fd5b8063c8b91531116100de578063c8b9153114610706578063d28d88521461070f578063dece685414610717578063e985e9c51461072557600080fd5b8063b2bdfa7b146106cd578063b88d4fde146106e0578063c87b56dd146106f357600080fd5b8063a2e9b43911610171578063aa5965ae1161014b578063aa5965ae14610691578063aafb2d44146106a4578063b01ac591146106b7578063b09f1266146106c557600080fd5b8063a2e9b43914610628578063a726366514610648578063a7cc01361461066857600080fd5b80638da5cb5b116101ad5780638da5cb5b146105ee57806394a509dd146105ff57806395d89b411461060d578063a22cb4651461061557600080fd5b80638462151c146105a157806388290adc146105b4578063897f4152146105db57600080fd5b806342842e0e116102ad5780636bf2606a1161024b57806370a082311161022557806370a0823114610554578063743976a014610567578063796db3121461056f5780637d1d0c5b1461059857600080fd5b80636bf2606a1461052e5780636c0360eb146105375780636ff97f1d1461053f57600080fd5b80634f6ccce7116102875780634f6ccce7146104e357806355f804b3146104f65780636352211e1461050957806363a8fd891461051c57600080fd5b806342842e0e146104ac578063481c6a75146104bf5780634f3c5f06146104d057600080fd5b8063162094c41161031a57806318160ddd116102f457806318160ddd1461046b57806323b872dd146104735780632f54bf6e146104865780632f745c591461049957600080fd5b8063162094c41461042f57806317a3a79c1461044257806317bac0521461045557600080fd5b8063081812fc1161034b578063081812fc146103f4578063095ea7b3146104075780630bb78ec11461041c57600080fd5b806301ffc9a714610372578063033964be146103b457806306fdde03146103df575b600080fd5b61039f6103803660046125be565b6001600160e01b03191660009081526020819052604090205460ff1690565b60405190151581526020015b60405180910390f35b6005546103c7906001600160a01b031681565b6040516001600160a01b0390911681526020016103ab565b6103e7610804565b6040516103ab919061263a565b6103c761040236600461264d565b610896565b61041a61041536600461267d565b610932565b005b6103e761042a36600461264d565b610a68565b61041a61043d36600461275e565b610b02565b6103e761045036600461264d565b610bbe565b61045d606481565b6040519081526020016103ab565b60145461045d565b61041a6104813660046127a5565b610bd7565b61039f6104943660046127e1565b610c54565b61045d6104a736600461267d565b610c82565b61041a6104ba3660046127a5565b610d24565b6008546001600160a01b03166103c7565b61045d6104de36600461267d565b610d3f565b61045d6104f136600461264d565b610d70565b61041a6105043660046127fc565b610dfa565b6103c761051736600461264d565b610eb4565b60165461039f90610100900460ff1681565b61045d60035481565b6103e7610f45565b610547610f54565b6040516103ab9190612831565b61045d6105623660046127e1565b610fab565b6103e7611047565b6103c761057d36600461264d565b600e602052600090815260409020546001600160a01b031681565b61045d60045481565b6105476105af3660046127e1565b611054565b6105c2630a85bd0160e11b81565b6040516001600160e01b031990911681526020016103ab565b61041a6105e9366004612904565b6110c0565b6007546001600160a01b03166103c7565b6105c2635b5e139f60e01b81565b6103e761134c565b61041a6106233660046129e9565b61135b565b61045d61063636600461264d565b60136020526000908152604090205481565b61045d61065636600461264d565b60156020526000908152604090205481565b6103c761067636600461264d565b600f602052600090815260409020546001600160a01b031681565b61045d61069f36600461264d565b611420565b61041a6106b2366004612a25565b611441565b6105c263780e9d6360e01b81565b6103e761159a565b6007546103c7906001600160a01b031681565b61041a6106ee366004612afa565b6115a7565b6103e761070136600461264d565b61162b565b61045d60025481565b6103e7611795565b6105c26380ac58cd60e01b81565b61039f610733366004612b62565b6001600160a01b03918216600090815260116020908152604080832093909416825291909152205460ff1690565b61039f61076f366004612b62565b601160209081526000928352604080842090915290825290205460ff1681565b6006546103c7906001600160a01b031681565b6008546103c7906001600160a01b031681565b61039f6107c33660046127e1565b6117a2565b61041a6107d6366004612b95565b6117c3565b61045d6107e93660046127e1565b60106020526000908152604090205481565b61045d60015481565b60606009805461081390612be3565b80601f016020809104026020016040519081016040528092919081815260200182805461083f90612be3565b801561088c5780601f106108615761010080835404028352916020019161088c565b820191906000526020600020905b81548152906001019060200180831161086f57829003601f168201915b5050505050905090565b6000818152600e60205260408120546001600160a01b03166109165760405162461bcd60e51b815260206004820152602e60248201527f546974616e4e46543a20617070726f76656420717565727920666f72206e6f6e60448201526d32bc34b9ba32b73a103a37b5b2b760911b60648201526084015b60405180910390fd5b506000908152600f60205260409020546001600160a01b031690565b600061093d82610eb4565b9050806001600160a01b0316836001600160a01b031614156109ad5760405162461bcd60e51b815260206004820152602360248201527f546974616e4e46543a20617070726f76616c20746f2063757272656e74206f776044820152623732b960e91b606482015260840161090d565b336001600160a01b03821614806109e757506001600160a01b038116600090815260116020908152604080832033845290915290205460ff165b610a595760405162461bcd60e51b815260206004820152603a60248201527f546974616e4e46543a20617070726f76652063616c6c6572206973206e6f742060448201527f6f776e6572206e6f7220617070726f76656420666f7220616c6c000000000000606482015260840161090d565b610a63838361192b565b505050565b600b6020526000908152604090208054610a8190612be3565b80601f0160208091040260200160405190810160405280929190818152602001828054610aad90612be3565b8015610afa5780601f10610acf57610100808354040283529160200191610afa565b820191906000526020600020905b815481529060010190602001808311610add57829003601f168201915b505050505081565b6008546001600160a01b03163314610b585760405162461bcd60e51b815260206004820152601960248201527831b0b63632b91034b9903737ba103a34329036b0b730b3b2b960391b604482015260640161090d565b60165460ff16151560011415610b995760405162461bcd60e51b8152602060048201526006602482015265696e2075736560d01b604482015260640161090d565b6016805460ff19166001179055610bb08282611999565b50506016805460ff19169055565b600c6020526000908152604090208054610a8190612be3565b610be13382611a2b565b610c495760405162461bcd60e51b815260206004820152603360248201527f546974616e4e46543a207472616e736665722063616c6c6572206973206e6f74604482015272081bdddb995c881b9bdc88185c1c1c9bdd9959606a1b606482015260840161090d565b610a63838383611b24565b6007546000906001600160a01b0383811691161415610c7557506001919050565b506000919050565b919050565b6000610c8d83610fab565b8210610ce75760405162461bcd60e51b815260206004820152602360248201527f546974616e4e46543a206f776e657220696e646578206f7574206f6620626f756044820152626e647360e81b606482015260840161090d565b6001600160a01b0383166000908152601260205260409020805483908110610d1157610d11612c1e565b9060005260206000200154905092915050565b610a63838383604051806020016040528060008152506115a7565b60126020528160005260406000208181548110610d5b57600080fd5b90600052602060002001600091509150505481565b6000610d7b60145490565b8210610dd55760405162461bcd60e51b8152602060048201526024808201527f546974616e4e46543a20676c6f62616c20696e646578206f7574206f6620626f604482015263756e647360e01b606482015260840161090d565b60148281548110610de857610de8612c1e565b90600052602060002001549050919050565b6008546001600160a01b03163314610e505760405162461bcd60e51b815260206004820152601960248201527831b0b63632b91034b9903737ba103a34329036b0b730b3b2b960391b604482015260640161090d565b60165460ff16151560011415610e915760405162461bcd60e51b8152602060048201526006602482015265696e2075736560d01b604482015260640161090d565b6016805460ff19166001179055610ea781611d03565b506016805460ff19169055565b6000818152600e60205260408120546001600160a01b031680610f3f5760405162461bcd60e51b815260206004820152602b60248201527f546974616e4e46543a206f776e657220717565727920666f72206e6f6e65786960448201527f7374656e7420746f6b656e000000000000000000000000000000000000000000606482015260840161090d565b92915050565b6060600d805461081390612be3565b6060601480548060200260200160405190810160405280929190818152602001828054801561088c57602002820191906000526020600020905b815481526020019060010190808311610f8e575050505050905090565b60006001600160a01b0382166110295760405162461bcd60e51b815260206004820152602c60248201527f546974616e4e46543a2062616c616e636520717565727920666f72207468652060448201527f7a65726f20616464726573730000000000000000000000000000000000000000606482015260840161090d565b6001600160a01b038216600090815260106020526040902054610f3f565b600d8054610a8190612be3565b6001600160a01b0381166000908152601260209081526040918290208054835181840281018401909452808452606093928301828280156110b457602002820191906000526020600020905b8154815260200190600101908083116110a0575b50505050509050919050565b6008546001600160a01b031633146111165760405162461bcd60e51b815260206004820152601960248201527831b0b63632b91034b9903737ba103a34329036b0b730b3b2b960391b604482015260640161090d565b60165460ff161515600114156111575760405162461bcd60e51b8152602060048201526006602482015265696e2075736560d01b604482015260640161090d565b6016805460ff19166001179055825115801590611175575081518351145b6111b05760405162461bcd60e51b815260206004820152600c60248201526b0eee4dedcce40d8cadccee8d60a31b604482015260640161090d565b60005b835181101561133c578381815181106111ce576111ce612c1e565b6020026020010151600014158015611200575060648482815181106111f5576111f5612c1e565b602002602001015111155b6112425760405162461bcd60e51b81526020600482015260136024820152721b9bdd08185b1b1bddd959081d1bdad95b9259606a1b604482015260640161090d565b6112658285838151811061125857611258612c1e565b6020026020010151611d1a565b82818151811061127757611277612c1e565b6020026020010151600c600086848151811061129557611295612c1e565b6020026020010151815260200190815260200160002090805190602001906112be92919061250f565b507f4d9b1f1701290894a3ce2b80ebc08192c14f3750d521c806657dc51b9705260a8482815181106112f2576112f2612c1e565b602002602001015184838151811061130c5761130c612c1e565b6020026020010151604051611322929190612c34565b60405180910390a18061133481612c63565b9150506111b3565b50506016805460ff191690555050565b6060600a805461081390612be3565b6001600160a01b0382163314156113b45760405162461bcd60e51b815260206004820152601b60248201527f546974616e4e46543a20617070726f766520746f2063616c6c65720000000000604482015260640161090d565b3360008181526011602090815260408083206001600160a01b03871680855290835292819020805460ff191686151590811790915590519081529192917f17307eab39ab6107e8899845ad3d59bd9653f200f220920489ca2b5937696c31910160405180910390a35050565b6014818154811061143057600080fd5b600091825260209091200154905081565b6008546001600160a01b031633146114975760405162461bcd60e51b815260206004820152601960248201527831b0b63632b91034b9903737ba103a34329036b0b730b3b2b960391b604482015260640161090d565b60165460ff161515600114156114d85760405162461bcd60e51b8152602060048201526006602482015265696e2075736560d01b604482015260640161090d565b6016805460ff191660011790558151158015906114f6575080518251145b6115315760405162461bcd60e51b815260206004820152600c60248201526b0eee4dedcce40d8cadccee8d60a31b604482015260640161090d565b60005b825181101561158b5761157983828151811061155257611552612c1e565b602002602001015183838151811061156c5761156c612c1e565b6020026020010151611999565b8061158381612c63565b915050611534565b50506016805460ff1916905550565b600a8054610a8190612be3565b6115b13383611a2b565b6116195760405162461bcd60e51b815260206004820152603360248201527f546974616e4e46543a207472616e736665722063616c6c6572206973206e6f74604482015272081bdddb995c881b9bdc88185c1c1c9bdd9959606a1b606482015260840161090d565b61162584848484611d34565b50505050565b6000818152600e60205260409020546060906001600160a01b03166116925760405162461bcd60e51b815260206004820152601b60248201527f546974616e4e46543a206e6f6e6578697374656e7420746f6b656e0000000000604482015260640161090d565b6000828152600b6020526040812080546116ab90612be3565b80601f01602080910402602001604051908101604052809291908181526020018280546116d790612be3565b80156117245780601f106116f957610100808354040283529160200191611724565b820191906000526020600020905b81548152906001019060200180831161170757829003601f168201915b505050505090506000611735610f45565b9050805160001415611748575092915050565b81511561177a578082604051602001611762929190612c7e565b60405160208183030381529060405292505050919050565b8061178485611dbd565b604051602001611762929190612c7e565b60098054610a8190612be3565b6008546000906001600160a01b0383811691161415610c7557506001919050565b6008546001600160a01b031633146118195760405162461bcd60e51b815260206004820152601960248201527831b0b63632b91034b9903737ba103a34329036b0b730b3b2b960391b604482015260640161090d565b60165460ff1615156001141561185a5760405162461bcd60e51b8152602060048201526006602482015265696e2075736560d01b604482015260640161090d565b6016805460ff191660011790558215801590611877575060648311155b6118b95760405162461bcd60e51b81526020600482015260136024820152721b9bdd08185b1b1bddd959081d1bdad95b9259606a1b604482015260640161090d565b6118c38184611d1a565b6000838152600c6020908152604090912083516118e29285019061250f565b507f4d9b1f1701290894a3ce2b80ebc08192c14f3750d521c806657dc51b9705260a8383604051611914929190612c34565b60405180910390a150506016805460ff1916905550565b6000818152600f6020526040902080546001600160a01b0319166001600160a01b038416908117909155819061196082610eb4565b6001600160a01b03167f8c5be1e5ebec7d5bd14f71427d1e84f3dd0314c0f7b2291e5b200ac8c7c3b92560405160405180910390a45050565b6000828152600e60205260409020546001600160a01b0316611a0c5760405162461bcd60e51b815260206004820152602660248201527f546974616e4e46543a2055524920736574206f66206e6f6e6578697374656e74604482015265103a37b5b2b760d11b606482015260840161090d565b6000828152600b602090815260409091208251610a639284019061250f565b6000818152600e60205260408120546001600160a01b0316611aa65760405162461bcd60e51b815260206004820152602e60248201527f546974616e4e46543a206f70657261746f7220717565727920666f72206e6f6e60448201526d32bc34b9ba32b73a103a37b5b2b760911b606482015260840161090d565b6000611ab183610eb4565b9050806001600160a01b0316846001600160a01b03161480611aec5750836001600160a01b0316611ae184610896565b6001600160a01b0316145b80611b1c57506001600160a01b0380821660009081526011602090815260408083209388168352929052205460ff165b949350505050565b826001600160a01b0316611b3782610eb4565b6001600160a01b031614611bb35760405162461bcd60e51b815260206004820152602f60248201527f50726f6a656374546f6b656e3a207472616e73666572206f6620746f6b656e2060448201527f74686174206973206e6f74206f776e0000000000000000000000000000000000606482015260840161090d565b6001600160a01b038216611c1c5760405162461bcd60e51b815260206004820152602a60248201527f50726f6a656374546f6b656e3a207472616e7366657220746f20746865207a65604482015269726f206164647265737360b01b606482015260840161090d565b611c2581611e67565b6001600160a01b0383166000908152601060205260409020611c4690611ea4565b6001600160a01b0382166000908152601060205260409020805460010190556000818152600e6020526040902080546001600160a01b0319166001600160a01b038416179055611c968382611efb565b6001600160a01b03828116600081815260126020818152604080842080548886526013845282862081905593835260018401815584529083209091018590555184938716917fddf252ad1be2c89b69c2b068fc378daa952ba7f163c4a11628f55a4df523b3ef91a4505050565b8051611d1690600d90602084019061250f565b5050565b611d1682826040518060200160405280600081525061200a565b611d3f848484611b24565b611d4b8484848461210a565b6116255760405162461bcd60e51b815260206004820152603460248201527f546974616e4e46543a207472616e7366657220746f206e6f6e2045524337323160448201527f526563656976657220696d706c656d656e746572000000000000000000000000606482015260840161090d565b60606000611dca836121db565b600101905060008167ffffffffffffffff811115611dea57611dea6126a7565b6040519080825280601f01601f191660200182016040528015611e14576020820181803683370190505b5090508181016020015b600019017f3031323334353637383961626364656600000000000000000000000000000000600a86061a8153600a8504945084611e5a57611e5f565b611e1e565b509392505050565b6000818152600f60205260409020546001600160a01b031615611ea1576000818152600f6020526040902080546001600160a01b03191690555b50565b805480611ef35760405162461bcd60e51b815260206004820152601b60248201527f436f756e7465723a2064656372656d656e74206f766572666c6f770000000000604482015260640161090d565b600019019055565b6001600160a01b038216600090815260126020526040812054611f2090600190612cad565b600083815260136020526040902054909150808214611fc7576001600160a01b0384166000908152601260205260408120805484908110611f6357611f63612c1e565b906000526020600020015490508060126000876001600160a01b03166001600160a01b031681526020019081526020016000208381548110611fa757611fa7612c1e565b600091825260208083209091019290925591825260139052604090208190555b6001600160a01b0384166000908152601260205260409020805480611fee57611fee612cc4565b6001900381819060005260206000200160009055905550505050565b61201483836122bd565b6001600160a01b038316600090815260126020908152604080832080548685526013845282852081905560018082018355918552838520018690556014805487865260159094529184208390558201815582527fce6d7b5282bd9a3661ae061feed1dbda4e52ab073b1f9285be6e155d9c38d4ec018390556120989084848461210a565b610a635760405162461bcd60e51b815260206004820152603460248201527f546974616e4e46543a207472616e7366657220746f206e6f6e2045524337323160448201527f526563656976657220696d706c656d656e746572000000000000000000000000606482015260840161090d565b60006001600160a01b0384163b61212357506001611b1c565b60006121a463150b7a0260e01b338887876040516024016121479493929190612cda565b604051602081830303815290604052906001600160e01b0319166020820180516001600160e01b038381831617835250505050604051806060016040528060348152602001612d50603491396001600160a01b03881691906123ef565b90506000818060200190518101906121bc9190612d16565b6001600160e01b031916630a85bd0160e11b1492505050949350505050565b6000807a184f03e93ff9f4daa797ed6e38ed64bf6a1f0100000000000000008310612224577a184f03e93ff9f4daa797ed6e38ed64bf6a1f010000000000000000830492506040015b6d04ee2d6d415b85acef81000000008310612250576d04ee2d6d415b85acef8100000000830492506020015b662386f26fc10000831061226e57662386f26fc10000830492506010015b6305f5e1008310612286576305f5e100830492506008015b612710831061229a57612710830492506004015b606483106122ac576064830492506002015b600a8310610f3f5760010192915050565b6001600160a01b03821661231e5760405162461bcd60e51b815260206004820152602260248201527f546974616e4e46543a206d696e7420746f20746865207a65726f206164647265604482015261737360f01b606482015260840161090d565b6000818152600e60205260409020546001600160a01b0316156123835760405162461bcd60e51b815260206004820152601e60248201527f546974616e4e46543a20746f6b656e20616c7265616479206d696e7465640000604482015260640161090d565b6000818152600e6020908152604080832080546001600160a01b0319166001600160a01b038716908117909155808452601090925280832080546001019055518392907fddf252ad1be2c89b69c2b068fc378daa952ba7f163c4a11628f55a4df523b3ef908290a45050565b6060611b1c848460008585600080866001600160a01b031685876040516124169190612d33565b60006040518083038185875af1925050503d8060008114612453576040519150601f19603f3d011682016040523d82523d6000602084013e612458565b606091505b509150915061246987838387612474565b979650505050505050565b606083156124e05782516124d9576001600160a01b0385163b6124d95760405162461bcd60e51b815260206004820152601d60248201527f416464726573733a2063616c6c20746f206e6f6e2d636f6e7472616374000000604482015260640161090d565b5081611b1c565b611b1c83838151156124f55781518083602001fd5b8060405162461bcd60e51b815260040161090d919061263a565b82805461251b90612be3565b90600052602060002090601f01602090048101928261253d5760008555612583565b82601f1061255657805160ff1916838001178555612583565b82800160010185558215612583579182015b82811115612583578251825591602001919060010190612568565b5061258f929150612593565b5090565b5b8082111561258f5760008155600101612594565b6001600160e01b031981168114611ea157600080fd5b6000602082840312156125d057600080fd5b81356125db816125a8565b9392505050565b60005b838110156125fd5781810151838201526020016125e5565b838111156116255750506000910152565b600081518084526126268160208601602086016125e2565b601f01601f19169290920160200192915050565b6020815260006125db602083018461260e565b60006020828403121561265f57600080fd5b5035919050565b80356001600160a01b0381168114610c7d57600080fd5b6000806040838503121561269057600080fd5b61269983612666565b946020939093013593505050565b634e487b7160e01b600052604160045260246000fd5b604051601f8201601f1916810167ffffffffffffffff811182821017156126e6576126e66126a7565b604052919050565b600082601f8301126126ff57600080fd5b813567ffffffffffffffff811115612719576127196126a7565b61272c601f8201601f19166020016126bd565b81815284602083860101111561274157600080fd5b816020850160208301376000918101602001919091529392505050565b6000806040838503121561277157600080fd5b82359150602083013567ffffffffffffffff81111561278f57600080fd5b61279b858286016126ee565b9150509250929050565b6000806000606084860312156127ba57600080fd5b6127c384612666565b92506127d160208501612666565b9150604084013590509250925092565b6000602082840312156127f357600080fd5b6125db82612666565b60006020828403121561280e57600080fd5b813567ffffffffffffffff81111561282557600080fd5b611b1c848285016126ee565b6020808252825182820181905260009190848201906040850190845b818110156128695783518352928401929184019160010161284d565b50909695505050505050565b600067ffffffffffffffff82111561288f5761288f6126a7565b5060051b60200190565b600082601f8301126128aa57600080fd5b813560206128bf6128ba83612875565b6126bd565b82815260059290921b840181019181810190868411156128de57600080fd5b8286015b848110156128f957803583529183019183016128e2565b509695505050505050565b60008060006060848603121561291957600080fd5b833567ffffffffffffffff8082111561293157600080fd5b61293d87838801612899565b945060209150818601358181111561295457600080fd5b8601601f8101881361296557600080fd5b80356129736128ba82612875565b81815260059190911b8201840190848101908a83111561299257600080fd5b8584015b838110156129ca578035868111156129ae5760008081fd5b6129bc8d89838901016126ee565b845250918601918601612996565b508097505050505050506129e060408501612666565b90509250925092565b600080604083850312156129fc57600080fd5b612a0583612666565b915060208301358015158114612a1a57600080fd5b809150509250929050565b60008060408385031215612a3857600080fd5b823567ffffffffffffffff80821115612a5057600080fd5b612a5c86838701612899565b9350602091508185013581811115612a7357600080fd5b8501601f81018713612a8457600080fd5b8035612a926128ba82612875565b81815260059190911b82018401908481019089831115612ab157600080fd5b8584015b83811015612ae957803586811115612acd5760008081fd5b612adb8c89838901016126ee565b845250918601918601612ab5565b508096505050505050509250929050565b60008060008060808587031215612b1057600080fd5b612b1985612666565b9350612b2760208601612666565b925060408501359150606085013567ffffffffffffffff811115612b4a57600080fd5b612b56878288016126ee565b91505092959194509250565b60008060408385031215612b7557600080fd5b612b7e83612666565b9150612b8c60208401612666565b90509250929050565b600080600060608486031215612baa57600080fd5b83359250602084013567ffffffffffffffff811115612bc857600080fd5b612bd4868287016126ee565b9250506129e060408501612666565b600181811c90821680612bf757607f821691505b60208210811415612c1857634e487b7160e01b600052602260045260246000fd5b50919050565b634e487b7160e01b600052603260045260246000fd5b828152604060208201526000611b1c604083018461260e565b634e487b7160e01b600052601160045260246000fd5b6000600019821415612c7757612c77612c4d565b5060010190565b60008351612c908184602088016125e2565b835190830190612ca48183602088016125e2565b01949350505050565b600082821015612cbf57612cbf612c4d565b500390565b634e487b7160e01b600052603160045260246000fd5b60006001600160a01b03808716835280861660208401525083604083015260806060830152612d0c608083018461260e565b9695505050505050565b600060208284031215612d2857600080fd5b81516125db816125a8565b60008251612d458184602087016125e2565b919091019291505056fe546974616e4e46543a207472616e7366657220746f206e6f6e20455243373231526563656976657220696d706c656d656e746572a164736f6c6343000809000a",
  "linkReferences": {},
  "deployedLinkReferences": {}
}