{
  "_format": "hh-sol-artifact-1",
  "contractName": "TitanNFT",
  "sourceName": "contracts/TitanNFT.sol",
  "abi": [
    {
      "anonymous": false,
      "inputs": [
        {
          "indexed": true,
          "internalType": "address",
          "name": "owner",
          "type": "address"
        },
        {
          "indexed": true,
          "internalType": "address",
          "name": "approved",
          "type": "address"
        },
        {
          "indexed": true,
          "internalType": "uint256",
          "name": "tokenId",
          "type": "uint256"
        }
      ],
      "name": "Approval",
      "type": "event"
    },
    {
      "anonymous": false,
      "inputs": [
        {
          "indexed": true,
          "internalType": "address",
          "name": "owner",
          "type": "address"
        },
        {
          "indexed": true,
          "internalType": "address",
          "name": "operator",
          "type": "address"
        },
        {
          "indexed": false,
          "internalType": "bool",
          "name": "approved",
          "type": "bool"
        }
      ],
      "name": "ApprovalForAll",
      "type": "event"
    },
    {
      "anonymous": false,
      "inputs": [
        {
          "indexed": false,
          "internalType": "uint256",
          "name": "tokenId",
          "type": "uint256"
        },
        {
          "indexed": false,
          "internalType": "uint8",
          "name": "attribute",
          "type": "uint8"
        }
      ],
      "name": "SetAttribute",
      "type": "event"
    },
    {
      "anonymous": false,
      "inputs": [
        {
          "indexed": true,
          "internalType": "address",
          "name": "from",
          "type": "address"
        },
        {
          "indexed": true,
          "internalType": "address",
          "name": "to",
          "type": "address"
        },
        {
          "indexed": true,
          "internalType": "uint256",
          "name": "tokenId",
          "type": "uint256"
        }
      ],
      "name": "Transfer",
      "type": "event"
    },
    {
      "inputs": [],
      "name": "BRIDGE",
      "outputs": [
        {
          "internalType": "address",
          "name": "",
          "type": "address"
        }
      ],
      "stateMutability": "view",
      "type": "function"
    },
    {
      "inputs": [],
      "name": "MAJOR_VERSION",
      "outputs": [
        {
          "internalType": "uint256",
          "name": "",
          "type": "uint256"
        }
      ],
      "stateMutability": "view",
      "type": "function"
    },
    {
      "inputs": [],
      "name": "MAX_ID",
      "outputs": [
        {
          "internalType": "uint256",
          "name": "",
          "type": "uint256"
        }
      ],
      "stateMutability": "view",
      "type": "function"
    },
    {
      "inputs": [],
      "name": "MINOR_VERSION",
      "outputs": [
        {
          "internalType": "uint256",
          "name": "",
          "type": "uint256"
        }
      ],
      "stateMutability": "view",
      "type": "function"
    },
    {
      "inputs": [],
      "name": "PATCH_VERSION",
      "outputs": [
        {
          "internalType": "uint256",
          "name": "",
          "type": "uint256"
        }
      ],
      "stateMutability": "view",
      "type": "function"
    },
    {
      "inputs": [],
      "name": "REMOTE_CHAIN_ID",
      "outputs": [
        {
          "internalType": "uint256",
          "name": "",
          "type": "uint256"
        }
      ],
      "stateMutability": "view",
      "type": "function"
    },
    {
      "inputs": [],
      "name": "REMOTE_TOKEN",
      "outputs": [
        {
          "internalType": "address",
          "name": "",
          "type": "address"
        }
      ],
      "stateMutability": "view",
      "type": "function"
    },
    {
      "inputs": [],
      "name": "_ERC721_RECEIVED",
      "outputs": [
        {
          "internalType": "bytes4",
          "name": "",
          "type": "bytes4"
        }
      ],
      "stateMutability": "view",
      "type": "function"
    },
    {
      "inputs": [],
      "name": "_INTERFACE_ID_ERC721",
      "outputs": [
        {
          "internalType": "bytes4",
          "name": "",
          "type": "bytes4"
        }
      ],
      "stateMutability": "view",
      "type": "function"
    },
    {
      "inputs": [],
      "name": "_INTERFACE_ID_ERC721_ENUMERABLE",
      "outputs": [
        {
          "internalType": "bytes4",
          "name": "",
          "type": "bytes4"
        }
      ],
      "stateMutability": "view",
      "type": "function"
    },
    {
      "inputs": [],
      "name": "_INTERFACE_ID_ERC721_METADATA",
      "outputs": [
        {
          "internalType": "bytes4",
          "name": "",
          "type": "bytes4"
        }
      ],
      "stateMutability": "view",
      "type": "function"
    },
    {
      "inputs": [
        {
          "internalType": "uint256",
          "name": "",
          "type": "uint256"
        }
      ],
      "name": "_allTokens",
      "outputs": [
        {
          "internalType": "uint256",
          "name": "",
          "type": "uint256"
        }
      ],
      "stateMutability": "view",
      "type": "function"
    },
    {
      "inputs": [
        {
          "internalType": "uint256",
          "name": "",
          "type": "uint256"
        }
      ],
      "name": "_allTokensIndex",
      "outputs": [
        {
          "internalType": "uint256",
          "name": "",
          "type": "uint256"
        }
      ],
      "stateMutability": "view",
      "type": "function"
    },
    {
      "inputs": [],
      "name": "_baseURI",
      "outputs": [
        {
          "internalType": "string",
          "name": "",
          "type": "string"
        }
      ],
      "stateMutability": "view",
      "type": "function"
    },
    {
      "inputs": [],
      "name": "_manager",
      "outputs": [
        {
          "internalType": "address",
          "name": "",
          "type": "address"
        }
      ],
      "stateMutability": "view",
      "type": "function"
    },
    {
      "inputs": [],
      "name": "_name",
      "outputs": [
        {
          "internalType": "string",
          "name": "",
          "type": "string"
        }
      ],
      "stateMutability": "view",
      "type": "function"
    },
    {
      "inputs": [
        {
          "internalType": "address",
          "name": "",
          "type": "address"
        },
        {
          "internalType": "address",
          "name": "",
          "type": "address"
        }
      ],
      "name": "_operatorApprovals",
      "outputs": [
        {
          "internalType": "bool",
          "name": "",
          "type": "bool"
        }
      ],
      "stateMutability": "view",
      "type": "function"
    },
    {
      "inputs": [
        {
          "internalType": "address",
          "name": "",
          "type": "address"
        },
        {
          "internalType": "uint256",
          "name": "",
          "type": "uint256"
        }
      ],
      "name": "_ownedTokens",
      "outputs": [
        {
          "internalType": "uint256",
          "name": "",
          "type": "uint256"
        }
      ],
      "stateMutability": "view",
      "type": "function"
    },
    {
      "inputs": [
        {
          "internalType": "address",
          "name": "",
          "type": "address"
        }
      ],
      "name": "_ownedTokensCount",
      "outputs": [
        {
          "internalType": "uint256",
          "name": "_value",
          "type": "uint256"
        }
      ],
      "stateMutability": "view",
      "type": "function"
    },
    {
      "inputs": [
        {
          "internalType": "uint256",
          "name": "",
          "type": "uint256"
        }
      ],
      "name": "_ownedTokensIndex",
      "outputs": [
        {
          "internalType": "uint256",
          "name": "",
          "type": "uint256"
        }
      ],
      "stateMutability": "view",
      "type": "function"
    },
    {
      "inputs": [],
      "name": "_owner",
      "outputs": [
        {
          "internalType": "address",
          "name": "",
          "type": "address"
        }
      ],
      "stateMutability": "view",
      "type": "function"
    },
    {
      "inputs": [],
      "name": "_symbol",
      "outputs": [
        {
          "internalType": "string",
          "name": "",
          "type": "string"
        }
      ],
      "stateMutability": "view",
      "type": "function"
    },
    {
      "inputs": [
        {
          "internalType": "uint256",
          "name": "",
          "type": "uint256"
        }
      ],
      "name": "_tokenApprovals",
      "outputs": [
        {
          "internalType": "address",
          "name": "",
          "type": "address"
        }
      ],
      "stateMutability": "view",
      "type": "function"
    },
    {
      "inputs": [
        {
          "internalType": "uint256",
          "name": "",
          "type": "uint256"
        }
      ],
      "name": "_tokenAttributes",
      "outputs": [
        {
          "internalType": "uint8",
          "name": "",
          "type": "uint8"
        }
      ],
      "stateMutability": "view",
      "type": "function"
    },
    {
      "inputs": [
        {
          "internalType": "uint256",
          "name": "",
          "type": "uint256"
        }
      ],
      "name": "_tokenOwner",
      "outputs": [
        {
          "internalType": "address",
          "name": "",
          "type": "address"
        }
      ],
      "stateMutability": "view",
      "type": "function"
    },
    {
      "inputs": [
        {
          "internalType": "uint256",
          "name": "",
          "type": "uint256"
        }
      ],
      "name": "_tokenURIs",
      "outputs": [
        {
          "internalType": "string",
          "name": "",
          "type": "string"
        }
      ],
      "stateMutability": "view",
      "type": "function"
    },
    {
      "inputs": [],
      "name": "allTokens",
      "outputs": [
        {
          "internalType": "uint256[]",
          "name": "",
          "type": "uint256[]"
        }
      ],
      "stateMutability": "view",
      "type": "function"
    },
    {
      "inputs": [
        {
          "internalType": "address",
          "name": "to",
          "type": "address"
        },
        {
          "internalType": "uint256",
          "name": "tokenId",
          "type": "uint256"
        }
      ],
      "name": "approve",
      "outputs": [],
      "stateMutability": "nonpayable",
      "type": "function"
    },
    {
      "inputs": [
        {
          "internalType": "address",
          "name": "owner_",
          "type": "address"
        }
      ],
      "name": "balanceOf",
      "outputs": [
        {
          "internalType": "uint256",
          "name": "",
          "type": "uint256"
        }
      ],
      "stateMutability": "view",
      "type": "function"
    },
    {
      "inputs": [],
      "name": "baseURI",
      "outputs": [
        {
          "internalType": "string",
          "name": "",
          "type": "string"
        }
      ],
      "stateMutability": "view",
      "type": "function"
    },
    {
      "inputs": [],
      "name": "bridge",
      "outputs": [
        {
          "internalType": "address",
          "name": "",
          "type": "address"
        }
      ],
      "stateMutability": "view",
      "type": "function"
    },
    {
      "inputs": [
        {
          "internalType": "uint256",
          "name": "tokenId",
          "type": "uint256"
        }
      ],
      "name": "getApproved",
      "outputs": [
        {
          "internalType": "address",
          "name": "",
          "type": "address"
        }
      ],
      "stateMutability": "view",
      "type": "function"
    },
    {
      "inputs": [
        {
          "internalType": "address",
          "name": "owner_",
          "type": "address"
        },
        {
          "internalType": "address",
          "name": "operator",
          "type": "address"
        }
      ],
      "name": "isApprovedForAll",
      "outputs": [
        {
          "internalType": "bool",
          "name": "",
          "type": "bool"
        }
      ],
      "stateMutability": "view",
      "type": "function"
    },
    {
      "inputs": [
        {
          "internalType": "address",
          "name": "addr",
          "type": "address"
        }
      ],
      "name": "isManager",
      "outputs": [
        {
          "internalType": "bool",
          "name": "",
          "type": "bool"
        }
      ],
      "stateMutability": "view",
      "type": "function"
    },
    {
      "inputs": [
        {
          "internalType": "address",
          "name": "addr",
          "type": "address"
        }
      ],
      "name": "isOwner",
      "outputs": [
        {
          "internalType": "bool",
          "name": "",
          "type": "bool"
        }
      ],
      "stateMutability": "view",
      "type": "function"
    },
    {
      "inputs": [],
      "name": "manager",
      "outputs": [
        {
          "internalType": "address",
          "name": "",
          "type": "address"
        }
      ],
      "stateMutability": "view",
      "type": "function"
    },
    {
      "inputs": [
        {
          "internalType": "uint256",
          "name": "tokenId",
          "type": "uint256"
        },
        {
          "internalType": "uint8",
          "name": "attribute",
          "type": "uint8"
        },
        {
          "internalType": "address",
          "name": "to",
          "type": "address"
        }
      ],
      "name": "mint",
      "outputs": [],
      "stateMutability": "nonpayable",
      "type": "function"
    },
    {
      "inputs": [
        {
          "internalType": "uint256[]",
          "name": "tokenIds",
          "type": "uint256[]"
        },
        {
          "internalType": "uint8[]",
          "name": "attributes",
          "type": "uint8[]"
        },
        {
          "internalType": "address",
          "name": "to",
          "type": "address"
        }
      ],
      "name": "multiMint",
      "outputs": [],
      "stateMutability": "nonpayable",
      "type": "function"
    },
    {
      "inputs": [],
      "name": "name",
      "outputs": [
        {
          "internalType": "string",
          "name": "",
          "type": "string"
        }
      ],
      "stateMutability": "view",
      "type": "function"
    },
    {
      "inputs": [],
      "name": "owner",
      "outputs": [
        {
          "internalType": "address",
          "name": "",
          "type": "address"
        }
      ],
      "stateMutability": "view",
      "type": "function"
    },
    {
      "inputs": [
        {
          "internalType": "uint256",
          "name": "tokenId",
          "type": "uint256"
        }
      ],
      "name": "ownerOf",
      "outputs": [
        {
          "internalType": "address",
          "name": "",
          "type": "address"
        }
      ],
      "stateMutability": "view",
      "type": "function"
    },
    {
      "inputs": [],
      "name": "pauseProxy",
      "outputs": [
        {
          "internalType": "bool",
          "name": "",
          "type": "bool"
        }
      ],
      "stateMutability": "view",
      "type": "function"
    },
    {
      "inputs": [],
      "name": "remoteChainId",
      "outputs": [
        {
          "internalType": "uint256",
          "name": "",
          "type": "uint256"
        }
      ],
      "stateMutability": "view",
      "type": "function"
    },
    {
      "inputs": [],
      "name": "remoteToken",
      "outputs": [
        {
          "internalType": "address",
          "name": "",
          "type": "address"
        }
      ],
      "stateMutability": "view",
      "type": "function"
    },
    {
      "inputs": [
        {
          "internalType": "address",
          "name": "from",
          "type": "address"
        },
        {
          "internalType": "address",
          "name": "to",
          "type": "address"
        },
        {
          "internalType": "uint256",
          "name": "tokenId",
          "type": "uint256"
        }
      ],
      "name": "safeTransferFrom",
      "outputs": [],
      "stateMutability": "nonpayable",
      "type": "function"
    },
    {
      "inputs": [
        {
          "internalType": "address",
          "name": "from",
          "type": "address"
        },
        {
          "internalType": "address",
          "name": "to",
          "type": "address"
        },
        {
          "internalType": "uint256",
          "name": "tokenId",
          "type": "uint256"
        },
        {
          "internalType": "bytes",
          "name": "_data",
          "type": "bytes"
        }
      ],
      "name": "safeTransferFrom",
      "outputs": [],
      "stateMutability": "nonpayable",
      "type": "function"
    },
    {
      "inputs": [
        {
          "internalType": "address",
          "name": "operator",
          "type": "address"
        },
        {
          "internalType": "bool",
          "name": "approved",
          "type": "bool"
        }
      ],
      "name": "setApprovalForAll",
      "outputs": [],
      "stateMutability": "nonpayable",
      "type": "function"
    },
    {
      "inputs": [
        {
          "internalType": "string",
          "name": "baseURI_",
          "type": "string"
        }
      ],
      "name": "setBaseURI",
      "outputs": [],
      "stateMutability": "nonpayable",
      "type": "function"
    },
    {
      "inputs": [
        {
          "internalType": "uint256",
          "name": "tokenId",
          "type": "uint256"
        },
        {
          "internalType": "string",
          "name": "_tokenURI",
          "type": "string"
        }
      ],
      "name": "setTokenURI",
      "outputs": [],
      "stateMutability": "nonpayable",
      "type": "function"
    },
    {
      "inputs": [
        {
          "internalType": "uint256[]",
          "name": "tokenIds",
          "type": "uint256[]"
        },
        {
          "internalType": "string[]",
          "name": "_tokenURIs",
          "type": "string[]"
        }
      ],
      "name": "setTokenURI",
      "outputs": [],
      "stateMutability": "nonpayable",
      "type": "function"
    },
    {
      "inputs": [
        {
          "internalType": "bytes4",
          "name": "interfaceId",
          "type": "bytes4"
        }
      ],
      "name": "supportsInterface",
      "outputs": [
        {
          "internalType": "bool",
          "name": "",
          "type": "bool"
        }
      ],
      "stateMutability": "view",
      "type": "function"
    },
    {
      "inputs": [],
      "name": "symbol",
      "outputs": [
        {
          "internalType": "string",
          "name": "",
          "type": "string"
        }
      ],
      "stateMutability": "view",
      "type": "function"
    },
    {
      "inputs": [
        {
          "internalType": "uint256",
          "name": "index",
          "type": "uint256"
        }
      ],
      "name": "tokenByIndex",
      "outputs": [
        {
          "internalType": "uint256",
          "name": "",
          "type": "uint256"
        }
      ],
      "stateMutability": "view",
      "type": "function"
    },
    {
      "inputs": [
        {
          "internalType": "address",
          "name": "owner_",
          "type": "address"
        },
        {
          "internalType": "uint256",
          "name": "index",
          "type": "uint256"
        }
      ],
      "name": "tokenOfOwnerByIndex",
      "outputs": [
        {
          "internalType": "uint256",
          "name": "",
          "type": "uint256"
        }
      ],
      "stateMutability": "view",
      "type": "function"
    },
    {
      "inputs": [
        {
          "internalType": "uint256",
          "name": "tokenId",
          "type": "uint256"
        }
      ],
      "name": "tokenURI",
      "outputs": [
        {
          "internalType": "string",
          "name": "",
          "type": "string"
        }
      ],
      "stateMutability": "view",
      "type": "function"
    },
    {
      "inputs": [
        {
          "internalType": "address",
          "name": "owner_",
          "type": "address"
        }
      ],
      "name": "tokensOfOwner",
      "outputs": [
        {
          "internalType": "uint256[]",
          "name": "",
          "type": "uint256[]"
        }
      ],
      "stateMutability": "view",
      "type": "function"
    },
    {
      "inputs": [],
      "name": "totalSupply",
      "outputs": [
        {
          "internalType": "uint256",
          "name": "",
          "type": "uint256"
        }
      ],
      "stateMutability": "view",
      "type": "function"
    },
    {
      "inputs": [
        {
          "internalType": "address",
          "name": "from",
          "type": "address"
        },
        {
          "internalType": "address",
          "name": "to",
          "type": "address"
        },
        {
          "internalType": "uint256",
          "name": "tokenId",
          "type": "uint256"
        }
      ],
      "name": "transferFrom",
      "outputs": [],
      "stateMutability": "nonpayable",
      "type": "function"
    }
  ],
  "bytecode": "0x60806040523480156200001157600080fd5b50620000246301ffc9a760e01b6200002a565b620000ae565b6001600160e01b03198082161415620000895760405162461bcd60e51b815260206004820152601c60248201527f4552433136353a20696e76616c696420696e7465726661636520696400000000604482015260640160405180910390fd5b6001600160e01b0319166000908152602081905260409020805460ff19166001179055565b612d1580620000be6000396000f3fe608060405234801561001057600080fd5b506004361061038e5760003560e01c80638462151c116101de578063b88d4fde1161010f578063e9518196116100ad578063f0329f6b1161007c578063f0329f6b14610822578063f3ae241514610835578063f663171814610848578063f786becd1461086857600080fd5b8063e95181961461079d578063e985e9c5146107a5578063edc3bc3f146107e1578063ee9a31a21461080f57600080fd5b8063d28d8852116100e9578063d28d885214610765578063d6c0b2c41461076d578063dece68541461077e578063e78cea921461078c57600080fd5b8063b88d4fde14610736578063c87b56dd14610749578063c8b915311461075c57600080fd5b8063a72636651161017c578063aafb2d4411610156578063aafb2d44146106fa578063b01ac5911461070d578063b09f12661461071b578063b2bdfa7b1461072357600080fd5b8063a72636651461069e578063a7cc0136146106be578063aa5965ae146106e757600080fd5b806394a509dd116101b857806394a509dd1461065557806395d89b4114610663578063a22cb4651461066b578063a2e9b4391461067e57600080fd5b80638462151c1461060a57806388290adc1461061d5780638da5cb5b1461064457600080fd5b8063481c6a75116102c35780636c0360eb11610261578063796db31211610230578063796db312146105b25780637a4d4cda146105db5780637d1d0c5b146105ee5780638033491c146105f757600080fd5b80636c0360eb1461057a5780636ff97f1d1461058257806370a0823114610597578063743976a0146105aa57600080fd5b806355f804b31161029d57806355f804b3146105395780636352211e1461054c57806363a8fd891461055f5780636bf2606a1461057157600080fd5b8063481c6a75146105025780634f3c5f06146105135780634f6ccce71461052657600080fd5b806317a3a79c1161033057806323b872dd1161030a57806323b872dd146104b65780632f54bf6e146104c95780632f745c59146104dc57806342842e0e146104ef57600080fd5b806317a3a79c1461046357806317bac0521461049857806318160ddd146104ae57600080fd5b8063081812fc1161036c578063081812fc14610415578063095ea7b3146104285780630bb78ec11461043d578063162094c41461045057600080fd5b806301ffc9a714610393578063033964be146103d557806306fdde0314610400575b600080fd5b6103c06103a136600461255d565b6001600160e01b03191660009081526020819052604090205460ff1690565b60405190151581526020015b60405180910390f35b6005546103e8906001600160a01b031681565b6040516001600160a01b0390911681526020016103cc565b610408610871565b6040516103cc91906125d9565b6103e86104233660046125ec565b610903565b61043b61043636600461261c565b61099f565b005b61040861044b3660046125ec565b610ad5565b61043b61045e366004612705565b610b6f565b6104866104713660046125ec565b600c6020526000908152604090205460ff1681565b60405160ff90911681526020016103cc565b6104a0606481565b6040519081526020016103cc565b6014546104a0565b61043b6104c436600461274c565b610c1d565b6103c06104d7366004612788565b610c9a565b6104a06104ea36600461261c565b610cc8565b61043b6104fd36600461274c565b610d6a565b6008546001600160a01b03166103e8565b6104a061052136600461261c565b610d85565b6104a06105343660046125ec565b610db6565b61043b6105473660046127a3565b610e40565b6103e861055a3660046125ec565b610eec565b6016546103c090610100900460ff1681565b6104a060035481565b610408610f7d565b61058a610f8c565b6040516103cc91906127d8565b6104a06105a5366004612788565b610fe3565b61040861107f565b6103e86105c03660046125ec565b600e602052600090815260409020546001600160a01b031681565b61043b6105e93660046128bc565b61108c565b6104a060045481565b61043b61060536600461298e565b611294565b61058a610618366004612788565b611399565b61062b630a85bd0160e11b81565b6040516001600160e01b031990911681526020016103cc565b6007546001600160a01b03166103e8565b61062b635b5e139f60e01b81565b610408611405565b61043b6106793660046129c1565b611414565b6104a061068c3660046125ec565b60136020526000908152604090205481565b6104a06106ac3660046125ec565b60156020526000908152604090205481565b6103e86106cc3660046125ec565b600f602052600090815260409020546001600160a01b031681565b6104a06106f53660046125ec565b6114d9565b61043b6107083660046129fd565b6114fa565b61062b63780e9d6360e01b81565b610408611645565b6007546103e8906001600160a01b031681565b61043b610744366004612ad2565b611652565b6104086107573660046125ec565b6116d6565b6104a060025481565b610408611840565b6005546001600160a01b03166103e8565b61062b6380ac58cd60e01b81565b6006546001600160a01b03166103e8565b6004546104a0565b6103c06107b3366004612b4e565b6001600160a01b03918216600090815260116020908152604080832093909416825291909152205460ff1690565b6103c06107ef366004612b4e565b601160209081526000928352604080842090915290825290205460ff1681565b6006546103e8906001600160a01b031681565b6008546103e8906001600160a01b031681565b6103c0610843366004612788565b61184d565b6104a0610856366004612788565b60106020526000908152604090205481565b6104a060015481565b60606009805461088090612b81565b80601f01602080910402602001604051908101604052809291908181526020018280546108ac90612b81565b80156108f95780601f106108ce576101008083540402835291602001916108f9565b820191906000526020600020905b8154815290600101906020018083116108dc57829003601f168201915b5050505050905090565b6000818152600e60205260408120546001600160a01b03166109835760405162461bcd60e51b815260206004820152602e60248201527f546974616e4e46543a20617070726f76656420717565727920666f72206e6f6e60448201526d32bc34b9ba32b73a103a37b5b2b760911b60648201526084015b60405180910390fd5b506000908152600f60205260409020546001600160a01b031690565b60006109aa82610eec565b9050806001600160a01b0316836001600160a01b03161415610a1a5760405162461bcd60e51b815260206004820152602360248201527f546974616e4e46543a20617070726f76616c20746f2063757272656e74206f776044820152623732b960e91b606482015260840161097a565b336001600160a01b0382161480610a5457506001600160a01b038116600090815260116020908152604080832033845290915290205460ff165b610ac65760405162461bcd60e51b815260206004820152603a60248201527f546974616e4e46543a20617070726f76652063616c6c6572206973206e6f742060448201527f6f776e6572206e6f7220617070726f76656420666f7220616c6c000000000000606482015260840161097a565b610ad0838361186e565b505050565b600b6020526000908152604090208054610aee90612b81565b80601f0160208091040260200160405190810160405280929190818152602001828054610b1a90612b81565b8015610b675780601f10610b3c57610100808354040283529160200191610b67565b820191906000526020600020905b815481529060010190602001808311610b4a57829003601f168201915b505050505081565b6008546001600160a01b03163314610bb75760405162461bcd60e51b815260206004820152600b60248201526a3737ba1036b0b730b3b2b960a91b604482015260640161097a565b60165460ff16151560011415610bf85760405162461bcd60e51b8152602060048201526006602482015265696e2075736560d01b604482015260640161097a565b6016805460ff19166001179055610c0f82826118dc565b50506016805460ff19169055565b610c27338261196e565b610c8f5760405162461bcd60e51b815260206004820152603360248201527f546974616e4e46543a207472616e736665722063616c6c6572206973206e6f74604482015272081bdddb995c881b9bdc88185c1c1c9bdd9959606a1b606482015260840161097a565b610ad0838383611a67565b6007546000906001600160a01b0383811691161415610cbb57506001919050565b506000919050565b919050565b6000610cd383610fe3565b8210610d2d5760405162461bcd60e51b815260206004820152602360248201527f546974616e4e46543a206f776e657220696e646578206f7574206f6620626f756044820152626e647360e81b606482015260840161097a565b6001600160a01b0383166000908152601260205260409020805483908110610d5757610d57612bbc565b9060005260206000200154905092915050565b610ad083838360405180602001604052806000815250611652565b60126020528160005260406000208181548110610da157600080fd5b90600052602060002001600091509150505481565b6000610dc160145490565b8210610e1b5760405162461bcd60e51b8152602060048201526024808201527f546974616e4e46543a20676c6f62616c20696e646578206f7574206f6620626f604482015263756e647360e01b606482015260840161097a565b60148281548110610e2e57610e2e612bbc565b90600052602060002001549050919050565b6008546001600160a01b03163314610e885760405162461bcd60e51b815260206004820152600b60248201526a3737ba1036b0b730b3b2b960a91b604482015260640161097a565b60165460ff16151560011415610ec95760405162461bcd60e51b8152602060048201526006602482015265696e2075736560d01b604482015260640161097a565b6016805460ff19166001179055610edf81611c46565b506016805460ff19169055565b6000818152600e60205260408120546001600160a01b031680610f775760405162461bcd60e51b815260206004820152602b60248201527f546974616e4e46543a206f776e657220717565727920666f72206e6f6e65786960448201527f7374656e7420746f6b656e000000000000000000000000000000000000000000606482015260840161097a565b92915050565b6060600d805461088090612b81565b606060148054806020026020016040519081016040528092919081815260200182805480156108f957602002820191906000526020600020905b815481526020019060010190808311610fc6575050505050905090565b60006001600160a01b0382166110615760405162461bcd60e51b815260206004820152602c60248201527f546974616e4e46543a2062616c616e636520717565727920666f72207468652060448201527f7a65726f20616464726573730000000000000000000000000000000000000000606482015260840161097a565b6001600160a01b038216600090815260106020526040902054610f77565b600d8054610aee90612b81565b6008546001600160a01b031633146110d45760405162461bcd60e51b815260206004820152600b60248201526a3737ba1036b0b730b3b2b960a91b604482015260640161097a565b60165460ff161515600114156111155760405162461bcd60e51b8152602060048201526006602482015265696e2075736560d01b604482015260640161097a565b6016805460ff19166001179055825115801590611133575081518351145b61116e5760405162461bcd60e51b815260206004820152600c60248201526b0eee4dedcce40d8cadccee8d60a31b604482015260640161097a565b60005b83518110156112845761119d8285838151811061119057611190612bbc565b6020026020010151611c5d565b8281815181106111af576111af612bbc565b6020026020010151600c60008684815181106111cd576111cd612bbc565b6020026020010151815260200190815260200160002060006101000a81548160ff021916908360ff1602179055507f1c3bae38576ca43cbddd4bb4ebcf80aafc228a3ac3494ecaf31217736f431dcb84828151811061122e5761122e612bbc565b602002602001015184838151811061124857611248612bbc565b602002602001015160405161126a92919091825260ff16602082015260400190565b60405180910390a18061127c81612be8565b915050611171565b50506016805460ff191690555050565b6008546001600160a01b031633146112dc5760405162461bcd60e51b815260206004820152600b60248201526a3737ba1036b0b730b3b2b960a91b604482015260640161097a565b60165460ff1615156001141561131d5760405162461bcd60e51b8152602060048201526006602482015265696e2075736560d01b604482015260640161097a565b6016805460ff191660011790556113348184611c5d565b6000838152600c6020908152604091829020805460ff191660ff86169081179091558251868152918201527f1c3bae38576ca43cbddd4bb4ebcf80aafc228a3ac3494ecaf31217736f431dcb910160405180910390a150506016805460ff1916905550565b6001600160a01b0381166000908152601260209081526040918290208054835181840281018401909452808452606093928301828280156113f957602002820191906000526020600020905b8154815260200190600101908083116113e5575b50505050509050919050565b6060600a805461088090612b81565b6001600160a01b03821633141561146d5760405162461bcd60e51b815260206004820152601b60248201527f546974616e4e46543a20617070726f766520746f2063616c6c65720000000000604482015260640161097a565b3360008181526011602090815260408083206001600160a01b03871680855290835292819020805460ff191686151590811790915590519081529192917f17307eab39ab6107e8899845ad3d59bd9653f200f220920489ca2b5937696c31910160405180910390a35050565b601481815481106114e957600080fd5b600091825260209091200154905081565b6008546001600160a01b031633146115425760405162461bcd60e51b815260206004820152600b60248201526a3737ba1036b0b730b3b2b960a91b604482015260640161097a565b60165460ff161515600114156115835760405162461bcd60e51b8152602060048201526006602482015265696e2075736560d01b604482015260640161097a565b6016805460ff191660011790558151158015906115a1575080518251145b6115dc5760405162461bcd60e51b815260206004820152600c60248201526b0eee4dedcce40d8cadccee8d60a31b604482015260640161097a565b60005b8251811015611636576116248382815181106115fd576115fd612bbc565b602002602001015183838151811061161757611617612bbc565b60200260200101516118dc565b8061162e81612be8565b9150506115df565b50506016805460ff1916905550565b600a8054610aee90612b81565b61165c338361196e565b6116c45760405162461bcd60e51b815260206004820152603360248201527f546974616e4e46543a207472616e736665722063616c6c6572206973206e6f74604482015272081bdddb995c881b9bdc88185c1c1c9bdd9959606a1b606482015260840161097a565b6116d084848484611c77565b50505050565b6000818152600e60205260409020546060906001600160a01b031661173d5760405162461bcd60e51b815260206004820152601b60248201527f546974616e4e46543a206e6f6e6578697374656e7420746f6b656e0000000000604482015260640161097a565b6000828152600b60205260408120805461175690612b81565b80601f016020809104026020016040519081016040528092919081815260200182805461178290612b81565b80156117cf5780601f106117a4576101008083540402835291602001916117cf565b820191906000526020600020905b8154815290600101906020018083116117b257829003601f168201915b5050505050905060006117e0610f7d565b90508051600014156117f3575092915050565b81511561182557808260405160200161180d929190612c03565b60405160208183030381529060405292505050919050565b8061182f85611d00565b60405160200161180d929190612c03565b60098054610aee90612b81565b6008546000906001600160a01b0383811691161415610cbb57506001919050565b6000818152600f6020526040902080546001600160a01b0319166001600160a01b03841690811790915581906118a382610eec565b6001600160a01b03167f8c5be1e5ebec7d5bd14f71427d1e84f3dd0314c0f7b2291e5b200ac8c7c3b92560405160405180910390a45050565b6000828152600e60205260409020546001600160a01b031661194f5760405162461bcd60e51b815260206004820152602660248201527f546974616e4e46543a2055524920736574206f66206e6f6e6578697374656e74604482015265103a37b5b2b760d11b606482015260840161097a565b6000828152600b602090815260409091208251610ad0928401906124ae565b6000818152600e60205260408120546001600160a01b03166119e95760405162461bcd60e51b815260206004820152602e60248201527f546974616e4e46543a206f70657261746f7220717565727920666f72206e6f6e60448201526d32bc34b9ba32b73a103a37b5b2b760911b606482015260840161097a565b60006119f483610eec565b9050806001600160a01b0316846001600160a01b03161480611a2f5750836001600160a01b0316611a2484610903565b6001600160a01b0316145b80611a5f57506001600160a01b0380821660009081526011602090815260408083209388168352929052205460ff165b949350505050565b826001600160a01b0316611a7a82610eec565b6001600160a01b031614611af65760405162461bcd60e51b815260206004820152602f60248201527f50726f6a656374546f6b656e3a207472616e73666572206f6620746f6b656e2060448201527f74686174206973206e6f74206f776e0000000000000000000000000000000000606482015260840161097a565b6001600160a01b038216611b5f5760405162461bcd60e51b815260206004820152602a60248201527f50726f6a656374546f6b656e3a207472616e7366657220746f20746865207a65604482015269726f206164647265737360b01b606482015260840161097a565b611b6881611daa565b6001600160a01b0383166000908152601060205260409020611b8990611de7565b6001600160a01b0382166000908152601060205260409020805460010190556000818152600e6020526040902080546001600160a01b0319166001600160a01b038416179055611bd98382611e3e565b6001600160a01b03828116600081815260126020818152604080842080548886526013845282862081905593835260018401815584529083209091018590555184938716917fddf252ad1be2c89b69c2b068fc378daa952ba7f163c4a11628f55a4df523b3ef91a4505050565b8051611c5990600d9060208401906124ae565b5050565b611c59828260405180602001604052806000815250611f4d565b611c82848484611a67565b611c8e848484846120a9565b6116d05760405162461bcd60e51b815260206004820152603460248201527f546974616e4e46543a207472616e7366657220746f206e6f6e2045524337323160448201527f526563656976657220696d706c656d656e746572000000000000000000000000606482015260840161097a565b60606000611d0d8361217a565b600101905060008167ffffffffffffffff811115611d2d57611d2d612646565b6040519080825280601f01601f191660200182016040528015611d57576020820181803683370190505b5090508181016020015b600019017f3031323334353637383961626364656600000000000000000000000000000000600a86061a8153600a8504945084611d9d57611da2565b611d61565b509392505050565b6000818152600f60205260409020546001600160a01b031615611de4576000818152600f6020526040902080546001600160a01b03191690555b50565b805480611e365760405162461bcd60e51b815260206004820152601b60248201527f436f756e7465723a2064656372656d656e74206f766572666c6f770000000000604482015260640161097a565b600019019055565b6001600160a01b038216600090815260126020526040812054611e6390600190612c32565b600083815260136020526040902054909150808214611f0a576001600160a01b0384166000908152601260205260408120805484908110611ea657611ea6612bbc565b906000526020600020015490508060126000876001600160a01b03166001600160a01b031681526020019081526020016000208381548110611eea57611eea612bbc565b600091825260208083209091019290925591825260139052604090208190555b6001600160a01b0384166000908152601260205260409020805480611f3157611f31612c49565b6001900381819060005260206000200160009055905550505050565b8115801590611f5d575060648211155b611fa95760405162461bcd60e51b815260206004820152601360248201527f6e6f7420616c6c6f77656420746f6b656e496400000000000000000000000000604482015260640161097a565b611fb3838361225c565b6001600160a01b038316600090815260126020908152604080832080548685526013845282852081905560018082018355918552838520018690556014805487865260159094529184208390558201815582527fce6d7b5282bd9a3661ae061feed1dbda4e52ab073b1f9285be6e155d9c38d4ec01839055612037908484846120a9565b610ad05760405162461bcd60e51b815260206004820152603460248201527f546974616e4e46543a207472616e7366657220746f206e6f6e2045524337323160448201527f526563656976657220696d706c656d656e746572000000000000000000000000606482015260840161097a565b60006001600160a01b0384163b6120c257506001611a5f565b600061214363150b7a0260e01b338887876040516024016120e69493929190612c5f565b604051602081830303815290604052906001600160e01b0319166020820180516001600160e01b038381831617835250505050604051806060016040528060348152602001612cd5603491396001600160a01b038816919061238e565b905060008180602001905181019061215b9190612c9b565b6001600160e01b031916630a85bd0160e11b1492505050949350505050565b6000807a184f03e93ff9f4daa797ed6e38ed64bf6a1f01000000000000000083106121c3577a184f03e93ff9f4daa797ed6e38ed64bf6a1f010000000000000000830492506040015b6d04ee2d6d415b85acef810000000083106121ef576d04ee2d6d415b85acef8100000000830492506020015b662386f26fc10000831061220d57662386f26fc10000830492506010015b6305f5e1008310612225576305f5e100830492506008015b612710831061223957612710830492506004015b6064831061224b576064830492506002015b600a8310610f775760010192915050565b6001600160a01b0382166122bd5760405162461bcd60e51b815260206004820152602260248201527f546974616e4e46543a206d696e7420746f20746865207a65726f206164647265604482015261737360f01b606482015260840161097a565b6000818152600e60205260409020546001600160a01b0316156123225760405162461bcd60e51b815260206004820152601e60248201527f546974616e4e46543a20746f6b656e20616c7265616479206d696e7465640000604482015260640161097a565b6000818152600e6020908152604080832080546001600160a01b0319166001600160a01b038716908117909155808452601090925280832080546001019055518392907fddf252ad1be2c89b69c2b068fc378daa952ba7f163c4a11628f55a4df523b3ef908290a45050565b6060611a5f848460008585600080866001600160a01b031685876040516123b59190612cb8565b60006040518083038185875af1925050503d80600081146123f2576040519150601f19603f3d011682016040523d82523d6000602084013e6123f7565b606091505b509150915061240887838387612413565b979650505050505050565b6060831561247f578251612478576001600160a01b0385163b6124785760405162461bcd60e51b815260206004820152601d60248201527f416464726573733a2063616c6c20746f206e6f6e2d636f6e7472616374000000604482015260640161097a565b5081611a5f565b611a5f83838151156124945781518083602001fd5b8060405162461bcd60e51b815260040161097a91906125d9565b8280546124ba90612b81565b90600052602060002090601f0160209004810192826124dc5760008555612522565b82601f106124f557805160ff1916838001178555612522565b82800160010185558215612522579182015b82811115612522578251825591602001919060010190612507565b5061252e929150612532565b5090565b5b8082111561252e5760008155600101612533565b6001600160e01b031981168114611de457600080fd5b60006020828403121561256f57600080fd5b813561257a81612547565b9392505050565b60005b8381101561259c578181015183820152602001612584565b838111156116d05750506000910152565b600081518084526125c5816020860160208601612581565b601f01601f19169290920160200192915050565b60208152600061257a60208301846125ad565b6000602082840312156125fe57600080fd5b5035919050565b80356001600160a01b0381168114610cc357600080fd5b6000806040838503121561262f57600080fd5b61263883612605565b946020939093013593505050565b634e487b7160e01b600052604160045260246000fd5b604051601f8201601f1916810167ffffffffffffffff8111828210171561268557612685612646565b604052919050565b600067ffffffffffffffff8311156126a7576126a7612646565b6126ba601f8401601f191660200161265c565b90508281528383830111156126ce57600080fd5b828260208301376000602084830101529392505050565b600082601f8301126126f657600080fd5b61257a8383356020850161268d565b6000806040838503121561271857600080fd5b82359150602083013567ffffffffffffffff81111561273657600080fd5b612742858286016126e5565b9150509250929050565b60008060006060848603121561276157600080fd5b61276a84612605565b925061277860208501612605565b9150604084013590509250925092565b60006020828403121561279a57600080fd5b61257a82612605565b6000602082840312156127b557600080fd5b813567ffffffffffffffff8111156127cc57600080fd5b611a5f848285016126e5565b6020808252825182820181905260009190848201906040850190845b81811015612810578351835292840192918401916001016127f4565b50909695505050505050565b600067ffffffffffffffff82111561283657612836612646565b5060051b60200190565b600082601f83011261285157600080fd5b813560206128666128618361281c565b61265c565b82815260059290921b8401810191818101908684111561288557600080fd5b8286015b848110156128a05780358352918301918301612889565b509695505050505050565b803560ff81168114610cc357600080fd5b6000806000606084860312156128d157600080fd5b833567ffffffffffffffff808211156128e957600080fd5b6128f587838801612840565b945060209150818601358181111561290c57600080fd5b86019050601f8101871361291f57600080fd5b803561292d6128618261281c565b81815260059190911b8201830190838101908983111561294c57600080fd5b928401925b8284101561297157612962846128ab565b82529284019290840190612951565b809650505050505061298560408501612605565b90509250925092565b6000806000606084860312156129a357600080fd5b833592506129b3602085016128ab565b915061298560408501612605565b600080604083850312156129d457600080fd5b6129dd83612605565b9150602083013580151581146129f257600080fd5b809150509250929050565b60008060408385031215612a1057600080fd5b823567ffffffffffffffff80821115612a2857600080fd5b612a3486838701612840565b9350602091508185013581811115612a4b57600080fd5b8501601f81018713612a5c57600080fd5b8035612a6a6128618261281c565b81815260059190911b82018401908481019089831115612a8957600080fd5b8584015b83811015612ac157803586811115612aa55760008081fd5b612ab38c89838901016126e5565b845250918601918601612a8d565b508096505050505050509250929050565b60008060008060808587031215612ae857600080fd5b612af185612605565b9350612aff60208601612605565b925060408501359150606085013567ffffffffffffffff811115612b2257600080fd5b8501601f81018713612b3357600080fd5b612b428782356020840161268d565b91505092959194509250565b60008060408385031215612b6157600080fd5b612b6a83612605565b9150612b7860208401612605565b90509250929050565b600181811c90821680612b9557607f821691505b60208210811415612bb657634e487b7160e01b600052602260045260246000fd5b50919050565b634e487b7160e01b600052603260045260246000fd5b634e487b7160e01b600052601160045260246000fd5b6000600019821415612bfc57612bfc612bd2565b5060010190565b60008351612c15818460208801612581565b835190830190612c29818360208801612581565b01949350505050565b600082821015612c4457612c44612bd2565b500390565b634e487b7160e01b600052603160045260246000fd5b60006001600160a01b03808716835280861660208401525083604083015260806060830152612c9160808301846125ad565b9695505050505050565b600060208284031215612cad57600080fd5b815161257a81612547565b60008251612cca818460208701612581565b919091019291505056fe546974616e4e46543a207472616e7366657220746f206e6f6e20455243373231526563656976657220696d706c656d656e746572a164736f6c6343000809000a",
  "linkReferences": {},
  "deployedLinkReferences": {}
}