{
  "_format": "hh-sol-artifact-1",
  "contractName": "TitanNFT",
  "sourceName": "contracts/TitanNFT.sol",
  "abi": [
    {
      "inputs": [
        {
          "internalType": "string",
          "name": "name_",
          "type": "string"
        },
        {
          "internalType": "string",
          "name": "symbol_",
          "type": "string"
        },
        {
          "internalType": "address",
          "name": "ownerAddress",
          "type": "address"
        },
        {
          "internalType": "uint256",
          "name": "_maxId",
          "type": "uint256"
        }
      ],
      "stateMutability": "nonpayable",
      "type": "constructor"
    },
    {
      "anonymous": false,
      "inputs": [
        {
          "indexed": true,
          "internalType": "address",
          "name": "owner",
          "type": "address"
        },
        {
          "indexed": true,
          "internalType": "address",
          "name": "approved",
          "type": "address"
        },
        {
          "indexed": true,
          "internalType": "uint256",
          "name": "tokenId",
          "type": "uint256"
        }
      ],
      "name": "Approval",
      "type": "event"
    },
    {
      "anonymous": false,
      "inputs": [
        {
          "indexed": true,
          "internalType": "address",
          "name": "owner",
          "type": "address"
        },
        {
          "indexed": true,
          "internalType": "address",
          "name": "operator",
          "type": "address"
        },
        {
          "indexed": false,
          "internalType": "bool",
          "name": "approved",
          "type": "bool"
        }
      ],
      "name": "ApprovalForAll",
      "type": "event"
    },
    {
      "anonymous": false,
      "inputs": [
        {
          "indexed": false,
          "internalType": "uint256",
          "name": "tokenId",
          "type": "uint256"
        },
        {
          "indexed": false,
          "internalType": "bytes",
          "name": "attribute",
          "type": "bytes"
        }
      ],
      "name": "SetAttribute",
      "type": "event"
    },
    {
      "anonymous": false,
      "inputs": [
        {
          "indexed": true,
          "internalType": "address",
          "name": "from",
          "type": "address"
        },
        {
          "indexed": true,
          "internalType": "address",
          "name": "to",
          "type": "address"
        },
        {
          "indexed": true,
          "internalType": "uint256",
          "name": "tokenId",
          "type": "uint256"
        }
      ],
      "name": "Transfer",
      "type": "event"
    },
    {
      "inputs": [],
      "name": "_ERC721_RECEIVED",
      "outputs": [
        {
          "internalType": "bytes4",
          "name": "",
          "type": "bytes4"
        }
      ],
      "stateMutability": "view",
      "type": "function"
    },
    {
      "inputs": [],
      "name": "_INTERFACE_ID_ERC721",
      "outputs": [
        {
          "internalType": "bytes4",
          "name": "",
          "type": "bytes4"
        }
      ],
      "stateMutability": "view",
      "type": "function"
    },
    {
      "inputs": [],
      "name": "_INTERFACE_ID_ERC721_ENUMERABLE",
      "outputs": [
        {
          "internalType": "bytes4",
          "name": "",
          "type": "bytes4"
        }
      ],
      "stateMutability": "view",
      "type": "function"
    },
    {
      "inputs": [],
      "name": "_INTERFACE_ID_ERC721_METADATA",
      "outputs": [
        {
          "internalType": "bytes4",
          "name": "",
          "type": "bytes4"
        }
      ],
      "stateMutability": "view",
      "type": "function"
    },
    {
      "inputs": [
        {
          "internalType": "uint256",
          "name": "",
          "type": "uint256"
        }
      ],
      "name": "_allTokens",
      "outputs": [
        {
          "internalType": "uint256",
          "name": "",
          "type": "uint256"
        }
      ],
      "stateMutability": "view",
      "type": "function"
    },
    {
      "inputs": [
        {
          "internalType": "uint256",
          "name": "",
          "type": "uint256"
        }
      ],
      "name": "_allTokensIndex",
      "outputs": [
        {
          "internalType": "uint256",
          "name": "",
          "type": "uint256"
        }
      ],
      "stateMutability": "view",
      "type": "function"
    },
    {
      "inputs": [],
      "name": "_baseURI",
      "outputs": [
        {
          "internalType": "string",
          "name": "",
          "type": "string"
        }
      ],
      "stateMutability": "view",
      "type": "function"
    },
    {
      "inputs": [],
      "name": "_name",
      "outputs": [
        {
          "internalType": "string",
          "name": "",
          "type": "string"
        }
      ],
      "stateMutability": "view",
      "type": "function"
    },
    {
      "inputs": [
        {
          "internalType": "address",
          "name": "",
          "type": "address"
        },
        {
          "internalType": "address",
          "name": "",
          "type": "address"
        }
      ],
      "name": "_operatorApprovals",
      "outputs": [
        {
          "internalType": "bool",
          "name": "",
          "type": "bool"
        }
      ],
      "stateMutability": "view",
      "type": "function"
    },
    {
      "inputs": [
        {
          "internalType": "address",
          "name": "",
          "type": "address"
        },
        {
          "internalType": "uint256",
          "name": "",
          "type": "uint256"
        }
      ],
      "name": "_ownedTokens",
      "outputs": [
        {
          "internalType": "uint256",
          "name": "",
          "type": "uint256"
        }
      ],
      "stateMutability": "view",
      "type": "function"
    },
    {
      "inputs": [
        {
          "internalType": "address",
          "name": "",
          "type": "address"
        }
      ],
      "name": "_ownedTokensCount",
      "outputs": [
        {
          "internalType": "uint256",
          "name": "_value",
          "type": "uint256"
        }
      ],
      "stateMutability": "view",
      "type": "function"
    },
    {
      "inputs": [
        {
          "internalType": "uint256",
          "name": "",
          "type": "uint256"
        }
      ],
      "name": "_ownedTokensIndex",
      "outputs": [
        {
          "internalType": "uint256",
          "name": "",
          "type": "uint256"
        }
      ],
      "stateMutability": "view",
      "type": "function"
    },
    {
      "inputs": [],
      "name": "_owner",
      "outputs": [
        {
          "internalType": "address",
          "name": "",
          "type": "address"
        }
      ],
      "stateMutability": "view",
      "type": "function"
    },
    {
      "inputs": [],
      "name": "_symbol",
      "outputs": [
        {
          "internalType": "string",
          "name": "",
          "type": "string"
        }
      ],
      "stateMutability": "view",
      "type": "function"
    },
    {
      "inputs": [
        {
          "internalType": "uint256",
          "name": "",
          "type": "uint256"
        }
      ],
      "name": "_tokenApprovals",
      "outputs": [
        {
          "internalType": "address",
          "name": "",
          "type": "address"
        }
      ],
      "stateMutability": "view",
      "type": "function"
    },
    {
      "inputs": [
        {
          "internalType": "uint256",
          "name": "",
          "type": "uint256"
        }
      ],
      "name": "_tokenAttributes",
      "outputs": [
        {
          "internalType": "bytes",
          "name": "",
          "type": "bytes"
        }
      ],
      "stateMutability": "view",
      "type": "function"
    },
    {
      "inputs": [
        {
          "internalType": "uint256",
          "name": "",
          "type": "uint256"
        }
      ],
      "name": "_tokenOwner",
      "outputs": [
        {
          "internalType": "address",
          "name": "",
          "type": "address"
        }
      ],
      "stateMutability": "view",
      "type": "function"
    },
    {
      "inputs": [
        {
          "internalType": "uint256",
          "name": "",
          "type": "uint256"
        }
      ],
      "name": "_tokenURIs",
      "outputs": [
        {
          "internalType": "string",
          "name": "",
          "type": "string"
        }
      ],
      "stateMutability": "view",
      "type": "function"
    },
    {
      "inputs": [],
      "name": "allTokens",
      "outputs": [
        {
          "internalType": "uint256[]",
          "name": "",
          "type": "uint256[]"
        }
      ],
      "stateMutability": "view",
      "type": "function"
    },
    {
      "inputs": [
        {
          "internalType": "address",
          "name": "to",
          "type": "address"
        },
        {
          "internalType": "uint256",
          "name": "tokenId",
          "type": "uint256"
        }
      ],
      "name": "approve",
      "outputs": [],
      "stateMutability": "nonpayable",
      "type": "function"
    },
    {
      "inputs": [
        {
          "internalType": "address",
          "name": "owner_",
          "type": "address"
        }
      ],
      "name": "balanceOf",
      "outputs": [
        {
          "internalType": "uint256",
          "name": "",
          "type": "uint256"
        }
      ],
      "stateMutability": "view",
      "type": "function"
    },
    {
      "inputs": [],
      "name": "baseURI",
      "outputs": [
        {
          "internalType": "string",
          "name": "",
          "type": "string"
        }
      ],
      "stateMutability": "view",
      "type": "function"
    },
    {
      "inputs": [
        {
          "internalType": "uint256",
          "name": "tokenId",
          "type": "uint256"
        }
      ],
      "name": "getApproved",
      "outputs": [
        {
          "internalType": "address",
          "name": "",
          "type": "address"
        }
      ],
      "stateMutability": "view",
      "type": "function"
    },
    {
      "inputs": [
        {
          "internalType": "address",
          "name": "owner_",
          "type": "address"
        },
        {
          "internalType": "address",
          "name": "operator",
          "type": "address"
        }
      ],
      "name": "isApprovedForAll",
      "outputs": [
        {
          "internalType": "bool",
          "name": "",
          "type": "bool"
        }
      ],
      "stateMutability": "view",
      "type": "function"
    },
    {
      "inputs": [
        {
          "internalType": "address",
          "name": "addr",
          "type": "address"
        }
      ],
      "name": "isOwner",
      "outputs": [
        {
          "internalType": "bool",
          "name": "",
          "type": "bool"
        }
      ],
      "stateMutability": "view",
      "type": "function"
    },
    {
      "inputs": [],
      "name": "maxId",
      "outputs": [
        {
          "internalType": "uint256",
          "name": "",
          "type": "uint256"
        }
      ],
      "stateMutability": "view",
      "type": "function"
    },
    {
      "inputs": [
        {
          "internalType": "uint256",
          "name": "tokenId",
          "type": "uint256"
        },
        {
          "internalType": "bytes",
          "name": "attribute",
          "type": "bytes"
        },
        {
          "internalType": "address",
          "name": "to",
          "type": "address"
        }
      ],
      "name": "mint",
      "outputs": [],
      "stateMutability": "nonpayable",
      "type": "function"
    },
    {
      "inputs": [
        {
          "internalType": "uint256[]",
          "name": "tokenIds",
          "type": "uint256[]"
        },
        {
          "internalType": "bytes[]",
          "name": "attributes",
          "type": "bytes[]"
        },
        {
          "internalType": "address",
          "name": "to",
          "type": "address"
        }
      ],
      "name": "multiMint",
      "outputs": [],
      "stateMutability": "nonpayable",
      "type": "function"
    },
    {
      "inputs": [],
      "name": "name",
      "outputs": [
        {
          "internalType": "string",
          "name": "",
          "type": "string"
        }
      ],
      "stateMutability": "view",
      "type": "function"
    },
    {
      "inputs": [],
      "name": "owner",
      "outputs": [
        {
          "internalType": "address",
          "name": "",
          "type": "address"
        }
      ],
      "stateMutability": "view",
      "type": "function"
    },
    {
      "inputs": [
        {
          "internalType": "uint256",
          "name": "tokenId",
          "type": "uint256"
        }
      ],
      "name": "ownerOf",
      "outputs": [
        {
          "internalType": "address",
          "name": "",
          "type": "address"
        }
      ],
      "stateMutability": "view",
      "type": "function"
    },
    {
      "inputs": [],
      "name": "pauseProxy",
      "outputs": [
        {
          "internalType": "bool",
          "name": "",
          "type": "bool"
        }
      ],
      "stateMutability": "view",
      "type": "function"
    },
    {
      "inputs": [
        {
          "internalType": "address",
          "name": "from",
          "type": "address"
        },
        {
          "internalType": "address",
          "name": "to",
          "type": "address"
        },
        {
          "internalType": "uint256",
          "name": "tokenId",
          "type": "uint256"
        }
      ],
      "name": "safeTransferFrom",
      "outputs": [],
      "stateMutability": "nonpayable",
      "type": "function"
    },
    {
      "inputs": [
        {
          "internalType": "address",
          "name": "from",
          "type": "address"
        },
        {
          "internalType": "address",
          "name": "to",
          "type": "address"
        },
        {
          "internalType": "uint256",
          "name": "tokenId",
          "type": "uint256"
        },
        {
          "internalType": "bytes",
          "name": "_data",
          "type": "bytes"
        }
      ],
      "name": "safeTransferFrom",
      "outputs": [],
      "stateMutability": "nonpayable",
      "type": "function"
    },
    {
      "inputs": [
        {
          "internalType": "address",
          "name": "operator",
          "type": "address"
        },
        {
          "internalType": "bool",
          "name": "approved",
          "type": "bool"
        }
      ],
      "name": "setApprovalForAll",
      "outputs": [],
      "stateMutability": "nonpayable",
      "type": "function"
    },
    {
      "inputs": [
        {
          "internalType": "uint256",
          "name": "tokenId",
          "type": "uint256"
        },
        {
          "internalType": "bytes",
          "name": "_attribute",
          "type": "bytes"
        }
      ],
      "name": "setAttribute",
      "outputs": [],
      "stateMutability": "nonpayable",
      "type": "function"
    },
    {
      "inputs": [
        {
          "internalType": "uint256[]",
          "name": "tokenIds",
          "type": "uint256[]"
        },
        {
          "internalType": "bytes[]",
          "name": "_attributes",
          "type": "bytes[]"
        }
      ],
      "name": "setAttributes",
      "outputs": [],
      "stateMutability": "nonpayable",
      "type": "function"
    },
    {
      "inputs": [
        {
          "internalType": "string",
          "name": "baseURI_",
          "type": "string"
        }
      ],
      "name": "setBaseURI",
      "outputs": [],
      "stateMutability": "nonpayable",
      "type": "function"
    },
    {
      "inputs": [
        {
          "internalType": "uint256",
          "name": "tokenId",
          "type": "uint256"
        },
        {
          "internalType": "string",
          "name": "_tokenURI",
          "type": "string"
        }
      ],
      "name": "setTokenURI",
      "outputs": [],
      "stateMutability": "nonpayable",
      "type": "function"
    },
    {
      "inputs": [
        {
          "internalType": "uint256[]",
          "name": "tokenIds",
          "type": "uint256[]"
        },
        {
          "internalType": "string[]",
          "name": "_tokenURIs",
          "type": "string[]"
        }
      ],
      "name": "setTokenURI",
      "outputs": [],
      "stateMutability": "nonpayable",
      "type": "function"
    },
    {
      "inputs": [
        {
          "internalType": "bytes4",
          "name": "interfaceId",
          "type": "bytes4"
        }
      ],
      "name": "supportsInterface",
      "outputs": [
        {
          "internalType": "bool",
          "name": "",
          "type": "bool"
        }
      ],
      "stateMutability": "view",
      "type": "function"
    },
    {
      "inputs": [],
      "name": "symbol",
      "outputs": [
        {
          "internalType": "string",
          "name": "",
          "type": "string"
        }
      ],
      "stateMutability": "view",
      "type": "function"
    },
    {
      "inputs": [
        {
          "internalType": "uint256",
          "name": "index",
          "type": "uint256"
        }
      ],
      "name": "tokenByIndex",
      "outputs": [
        {
          "internalType": "uint256",
          "name": "",
          "type": "uint256"
        }
      ],
      "stateMutability": "view",
      "type": "function"
    },
    {
      "inputs": [
        {
          "internalType": "address",
          "name": "owner_",
          "type": "address"
        },
        {
          "internalType": "uint256",
          "name": "index",
          "type": "uint256"
        }
      ],
      "name": "tokenOfOwnerByIndex",
      "outputs": [
        {
          "internalType": "uint256",
          "name": "",
          "type": "uint256"
        }
      ],
      "stateMutability": "view",
      "type": "function"
    },
    {
      "inputs": [
        {
          "internalType": "uint256",
          "name": "tokenId",
          "type": "uint256"
        }
      ],
      "name": "tokenURI",
      "outputs": [
        {
          "internalType": "string",
          "name": "",
          "type": "string"
        }
      ],
      "stateMutability": "view",
      "type": "function"
    },
    {
      "inputs": [
        {
          "internalType": "address",
          "name": "owner_",
          "type": "address"
        }
      ],
      "name": "tokensOfOwner",
      "outputs": [
        {
          "internalType": "uint256[]",
          "name": "",
          "type": "uint256[]"
        }
      ],
      "stateMutability": "view",
      "type": "function"
    },
    {
      "inputs": [],
      "name": "totalSupply",
      "outputs": [
        {
          "internalType": "uint256",
          "name": "",
          "type": "uint256"
        }
      ],
      "stateMutability": "view",
      "type": "function"
    },
    {
      "inputs": [
        {
          "internalType": "address",
          "name": "from",
          "type": "address"
        },
        {
          "internalType": "address",
          "name": "to",
          "type": "address"
        },
        {
          "internalType": "uint256",
          "name": "tokenId",
          "type": "uint256"
        }
      ],
      "name": "transferFrom",
      "outputs": [],
      "stateMutability": "nonpayable",
      "type": "function"
    }
  ],
  "bytecode": "0x60806040523480156200001157600080fd5b5060405162003387380380620033878339810160408190526200003491620002c9565b620000466301ffc9a760e01b620000d2565b600180546001600160a01b0319166001600160a01b03841617905583516200007690600290602087019062000156565b5082516200008c90600390602086019062000156565b506004819055620000a46380ac58cd60e01b620000d2565b620000b6635b5e139f60e01b620000d2565b620000c863780e9d6360e01b620000d2565b5050505062000399565b6001600160e01b03198082161415620001315760405162461bcd60e51b815260206004820152601c60248201527f4552433136353a20696e76616c696420696e7465726661636520696400000000604482015260640160405180910390fd5b6001600160e01b0319166000908152602081905260409020805460ff19166001179055565b82805462000164906200035c565b90600052602060002090601f016020900481019282620001885760008555620001d3565b82601f10620001a357805160ff1916838001178555620001d3565b82800160010185558215620001d3579182015b82811115620001d3578251825591602001919060010190620001b6565b50620001e1929150620001e5565b5090565b5b80821115620001e15760008155600101620001e6565b634e487b7160e01b600052604160045260246000fd5b600082601f8301126200022457600080fd5b81516001600160401b0380821115620002415762000241620001fc565b604051601f8301601f19908116603f011681019082821181831017156200026c576200026c620001fc565b816040528381526020925086838588010111156200028957600080fd5b600091505b83821015620002ad57858201830151818301840152908201906200028e565b83821115620002bf5760008385830101525b9695505050505050565b60008060008060808587031215620002e057600080fd5b84516001600160401b0380821115620002f857600080fd5b620003068883890162000212565b955060208701519150808211156200031d57600080fd5b506200032c8782880162000212565b604087015190945090506001600160a01b03811681146200034c57600080fd5b6060959095015193969295505050565b600181811c908216806200037157607f821691505b602082108114156200039357634e487b7160e01b600052602260045260246000fd5b50919050565b612fde80620003a96000396000f3fe608060405234801561001057600080fd5b50600436106103205760003560e01c806388290adc116101a7578063b01ac591116100ee578063d28d885211610097578063edc3bc3f11610071578063edc3bc3f146106f8578063f47c387814610726578063f66317181461073957600080fd5b8063d28d8852146106a6578063dece6854146106ae578063e985e9c5146106bc57600080fd5b8063b88d4fde116100c8578063b88d4fde14610677578063c5ea3c651461068a578063c87b56dd1461069357600080fd5b8063b01ac5911461064e578063b09f12661461065c578063b2bdfa7b1461066457600080fd5b8063a22cb46511610150578063a7cc01361161012a578063a7cc0136146105ff578063aa5965ae14610628578063aafb2d441461063b57600080fd5b8063a22cb465146105ac578063a2e9b439146105bf578063a7263665146105df57600080fd5b806394a509dd1161018157806394a509dd1461058357806395d89b41146105915780639be10b961461059957600080fd5b806388290adc14610538578063897f41521461055f5780638da5cb5b1461057257600080fd5b80634a1dbdc01161026b5780636c0360eb11610214578063743976a0116101ee578063743976a0146104f4578063796db312146104fc5780638462151c1461052557600080fd5b80636c0360eb146104c45780636ff97f1d146104cc57806370a08231146104e157600080fd5b806355f804b31161024557806355f804b31461048c5780636352211e1461049f57806363a8fd89146104b257600080fd5b80634a1dbdc0146104535780634f3c5f06146104665780634f6ccce71461047957600080fd5b806317a3a79c116102cd5780632f54bf6e116102a75780632f54bf6e1461041a5780632f745c591461042d57806342842e0e1461044057600080fd5b806317a3a79c146103e257806318160ddd146103f557806323b872dd1461040757600080fd5b8063095ea7b3116102fe578063095ea7b3146103a75780630bb78ec1146103bc578063162094c4146103cf57600080fd5b806301ffc9a71461032557806306fdde0314610367578063081812fc1461037c575b600080fd5b6103526103333660046127b2565b6001600160e01b03191660009081526020819052604090205460ff1690565b60405190151581526020015b60405180910390f35b61036f610759565b60405161035e919061282e565b61038f61038a366004612841565b6107eb565b6040516001600160a01b03909116815260200161035e565b6103ba6103b5366004612871565b610887565b005b61036f6103ca366004612841565b6109bd565b6103ba6103dd366004612952565b610a57565b61036f6103f0366004612841565b610b11565b600e545b60405190815260200161035e565b6103ba610415366004612999565b610b2a565b6103526104283660046129d5565b610ba7565b6103f961043b366004612871565b610bd5565b6103ba61044e366004612999565b610c77565b6103ba610461366004612aff565b610c92565b6103f9610474366004612871565b610de9565b6103f9610487366004612841565b610e1a565b6103ba61049a366004612b59565b610ea4565b61038f6104ad366004612841565b610f04565b60105461035290610100900460ff1681565b61036f610f95565b6104d4610fa4565b60405161035e9190612b8e565b6103f96104ef3660046129d5565b610ffb565b61036f611097565b61038f61050a366004612841565b6008602052600090815260409020546001600160a01b031681565b6104d46105333660046129d5565b6110a4565b610546630a85bd0160e11b81565b6040516001600160e01b0319909116815260200161035e565b6103ba61056d366004612bd2565b611110565b6001546001600160a01b031661038f565b610546635b5e139f60e01b81565b61036f6113d7565b6103ba6105a7366004612952565b6113e6565b6103ba6105ba366004612c46565b611492565b6103f96105cd366004612841565b600d6020526000908152604090205481565b6103f96105ed366004612841565b600f6020526000908152604090205481565b61038f61060d366004612841565b6009602052600090815260409020546001600160a01b031681565b6103f9610636366004612841565b611557565b6103ba610649366004612c82565b611578565b61054663780e9d6360e01b81565b61036f6116c0565b60015461038f906001600160a01b031681565b6103ba610685366004612d57565b6116cd565b6103f960045481565b61036f6106a1366004612841565b611751565b61036f6118bb565b6105466380ac58cd60e01b81565b6103526106ca366004612dbf565b6001600160a01b039182166000908152600b6020908152604080832093909416825291909152205460ff1690565b610352610706366004612dbf565b600b60209081526000928352604080842090915290825290205460ff1681565b6103ba610734366004612df2565b6118c8565b6103f96107473660046129d5565b600a6020526000908152604090205481565b60606002805461076890612e31565b80601f016020809104026020016040519081016040528092919081815260200182805461079490612e31565b80156107e15780601f106107b6576101008083540402835291602001916107e1565b820191906000526020600020905b8154815290600101906020018083116107c457829003601f168201915b5050505050905090565b6000818152600860205260408120546001600160a01b031661086b5760405162461bcd60e51b815260206004820152602e60248201527f546974616e4e46543a20617070726f76656420717565727920666f72206e6f6e60448201526d32bc34b9ba32b73a103a37b5b2b760911b60648201526084015b60405180910390fd5b506000908152600960205260409020546001600160a01b031690565b600061089282610f04565b9050806001600160a01b0316836001600160a01b031614156109025760405162461bcd60e51b815260206004820152602360248201527f546974616e4e46543a20617070726f76616c20746f2063757272656e74206f776044820152623732b960e91b6064820152608401610862565b336001600160a01b038216148061093c57506001600160a01b0381166000908152600b6020908152604080832033845290915290205460ff165b6109ae5760405162461bcd60e51b815260206004820152603a60248201527f546974616e4e46543a20617070726f76652063616c6c6572206973206e6f742060448201527f6f776e6572206e6f7220617070726f76656420666f7220616c6c0000000000006064820152608401610862565b6109b88383611a51565b505050565b600560205260009081526040902080546109d690612e31565b80601f0160208091040260200160405190810160405280929190818152602001828054610a0290612e31565b8015610a4f5780601f10610a2457610100808354040283529160200191610a4f565b820191906000526020600020905b815481529060010190602001808311610a3257829003601f168201915b505050505081565b6001546001600160a01b03163314610aab5760405162461bcd60e51b815260206004820152601760248201527631b0b63632b91034b9903737ba103a34329037bbb732b960491b6044820152606401610862565b60105460ff16151560011415610aec5760405162461bcd60e51b8152602060048201526006602482015265696e2075736560d01b6044820152606401610862565b6010805460ff19166001179055610b038282611abf565b50506010805460ff19169055565b600660205260009081526040902080546109d690612e31565b610b343382611b51565b610b9c5760405162461bcd60e51b815260206004820152603360248201527f546974616e4e46543a207472616e736665722063616c6c6572206973206e6f74604482015272081bdddb995c881b9bdc88185c1c1c9bdd9959606a1b6064820152608401610862565b6109b8838383611c4a565b6001546000906001600160a01b0383811691161415610bc857506001919050565b506000919050565b919050565b6000610be083610ffb565b8210610c3a5760405162461bcd60e51b815260206004820152602360248201527f546974616e4e46543a206f776e657220696e646578206f7574206f6620626f756044820152626e647360e81b6064820152608401610862565b6001600160a01b0383166000908152600c60205260409020805483908110610c6457610c64612e6c565b9060005260206000200154905092915050565b6109b8838383604051806020016040528060008152506116cd565b6001546001600160a01b03163314610ce65760405162461bcd60e51b815260206004820152601760248201527631b0b63632b91034b9903737ba103a34329037bbb732b960491b6044820152606401610862565b60105460ff16151560011415610d275760405162461bcd60e51b8152602060048201526006602482015265696e2075736560d01b6044820152606401610862565b6010805460ff19166001179055815115801590610d45575080518251145b610d805760405162461bcd60e51b815260206004820152600c60248201526b0eee4dedcce40d8cadccee8d60a31b6044820152606401610862565b60005b8251811015610dda57610dc8838281518110610da157610da1612e6c565b6020026020010151838381518110610dbb57610dbb612e6c565b6020026020010151611e29565b80610dd281612e98565b915050610d83565b50506010805460ff1916905550565b600c6020528160005260406000208181548110610e0557600080fd5b90600052602060002001600091509150505481565b6000610e25600e5490565b8210610e7f5760405162461bcd60e51b8152602060048201526024808201527f546974616e4e46543a20676c6f62616c20696e646578206f7574206f6620626f604482015263756e647360e01b6064820152608401610862565b600e8281548110610e9257610e92612e6c565b90600052602060002001549050919050565b6001546001600160a01b03163314610ef85760405162461bcd60e51b815260206004820152601760248201527631b0b63632b91034b9903737ba103a34329037bbb732b960491b6044820152606401610862565b610f0181611ef9565b50565b6000818152600860205260408120546001600160a01b031680610f8f5760405162461bcd60e51b815260206004820152602b60248201527f546974616e4e46543a206f776e657220717565727920666f72206e6f6e65786960448201527f7374656e7420746f6b656e0000000000000000000000000000000000000000006064820152608401610862565b92915050565b60606007805461076890612e31565b6060600e8054806020026020016040519081016040528092919081815260200182805480156107e157602002820191906000526020600020905b815481526020019060010190808311610fde575050505050905090565b60006001600160a01b0382166110795760405162461bcd60e51b815260206004820152602c60248201527f546974616e4e46543a2062616c616e636520717565727920666f72207468652060448201527f7a65726f206164647265737300000000000000000000000000000000000000006064820152608401610862565b6001600160a01b0382166000908152600a6020526040902054610f8f565b600780546109d690612e31565b6001600160a01b0381166000908152600c602090815260409182902080548351818402810184019094528084526060939283018282801561110457602002820191906000526020600020905b8154815260200190600101908083116110f0575b50505050509050919050565b6001546001600160a01b031633146111645760405162461bcd60e51b815260206004820152601760248201527631b0b63632b91034b9903737ba103a34329037bbb732b960491b6044820152606401610862565b60105460ff161515600114156111a55760405162461bcd60e51b8152602060048201526006602482015265696e2075736560d01b6044820152606401610862565b6010805460ff191660011790558251158015906111c3575081518351145b6111fe5760405162461bcd60e51b815260206004820152600c60248201526b0eee4dedcce40d8cadccee8d60a31b6044820152606401610862565b60005b83518110156113c75760045484828151811061121f5761121f612e6c565b6020026020010151111561126b5760405162461bcd60e51b81526020600482015260136024820152721b9bdd08185b1b1bddd959081d1bdad95b9259606a1b6044820152606401610862565b61128e8285838151811061128157611281612e6c565b6020026020010151611f10565b6112b08482815181106112a3576112a3612e6c565b6020026020010151611f2a565b600560008684815181106112c6576112c6612e6c565b6020026020010151815260200190815260200160002090805190602001906112ef929190612703565b5082818151811061130257611302612e6c565b60200260200101516006600086848151811061132057611320612e6c565b602002602001015181526020019081526020016000209080519060200190611349929190612703565b507f4d9b1f1701290894a3ce2b80ebc08192c14f3750d521c806657dc51b9705260a84828151811061137d5761137d612e6c565b602002602001015184838151811061139757611397612e6c565b60200260200101516040516113ad929190612eb3565b60405180910390a1806113bf81612e98565b915050611201565b50506010805460ff191690555050565b60606003805461076890612e31565b6001546001600160a01b0316331461143a5760405162461bcd60e51b815260206004820152601760248201527631b0b63632b91034b9903737ba103a34329037bbb732b960491b6044820152606401610862565b60105460ff1615156001141561147b5760405162461bcd60e51b8152602060048201526006602482015265696e2075736560d01b6044820152606401610862565b6010805460ff19166001179055610b038282611e29565b6001600160a01b0382163314156114eb5760405162461bcd60e51b815260206004820152601b60248201527f546974616e4e46543a20617070726f766520746f2063616c6c657200000000006044820152606401610862565b336000818152600b602090815260408083206001600160a01b03871680855290835292819020805460ff191686151590811790915590519081529192917f17307eab39ab6107e8899845ad3d59bd9653f200f220920489ca2b5937696c31910160405180910390a35050565b600e818154811061156757600080fd5b600091825260209091200154905081565b6001546001600160a01b031633146115cc5760405162461bcd60e51b815260206004820152601760248201527631b0b63632b91034b9903737ba103a34329037bbb732b960491b6044820152606401610862565b60105460ff1615156001141561160d5760405162461bcd60e51b8152602060048201526006602482015265696e2075736560d01b6044820152606401610862565b6010805460ff1916600117905581511580159061162b575080518251145b6116665760405162461bcd60e51b815260206004820152600c60248201526b0eee4dedcce40d8cadccee8d60a31b6044820152606401610862565b60005b8251811015610dda576116ae83828151811061168757611687612e6c565b60200260200101518383815181106116a1576116a1612e6c565b6020026020010151611abf565b806116b881612e98565b915050611669565b600380546109d690612e31565b6116d73383611b51565b61173f5760405162461bcd60e51b815260206004820152603360248201527f546974616e4e46543a207472616e736665722063616c6c6572206973206e6f74604482015272081bdddb995c881b9bdc88185c1c1c9bdd9959606a1b6064820152608401610862565b61174b84848484611fd4565b50505050565b6000818152600860205260409020546060906001600160a01b03166117b85760405162461bcd60e51b815260206004820152601b60248201527f546974616e4e46543a206e6f6e6578697374656e7420746f6b656e00000000006044820152606401610862565b600082815260056020526040812080546117d190612e31565b80601f01602080910402602001604051908101604052809291908181526020018280546117fd90612e31565b801561184a5780601f1061181f5761010080835404028352916020019161184a565b820191906000526020600020905b81548152906001019060200180831161182d57829003601f168201915b50505050509050600061185b610f95565b905080516000141561186e575092915050565b8151156118a0578082604051602001611888929190612ecc565b60405160208183030381529060405292505050919050565b806118aa85611f2a565b604051602001611888929190612ecc565b600280546109d690612e31565b6001546001600160a01b0316331461191c5760405162461bcd60e51b815260206004820152601760248201527631b0b63632b91034b9903737ba103a34329037bbb732b960491b6044820152606401610862565b60105460ff1615156001141561195d5760405162461bcd60e51b8152602060048201526006602482015265696e2075736560d01b6044820152606401610862565b6010805460ff191660011790556004548311156119b25760405162461bcd60e51b81526020600482015260136024820152721b9bdd08185b1b1bddd959081d1bdad95b9259606a1b6044820152606401610862565b6119bc8184611f10565b6119c583611f2a565b600084815260056020908152604090912082516119e89391929190910190612703565b5060008381526006602090815260409091208351611a0892850190612703565b507f4d9b1f1701290894a3ce2b80ebc08192c14f3750d521c806657dc51b9705260a8383604051611a3a929190612eb3565b60405180910390a150506010805460ff1916905550565b600081815260096020526040902080546001600160a01b0319166001600160a01b0384169081179091558190611a8682610f04565b6001600160a01b03167f8c5be1e5ebec7d5bd14f71427d1e84f3dd0314c0f7b2291e5b200ac8c7c3b92560405160405180910390a45050565b6000828152600860205260409020546001600160a01b0316611b325760405162461bcd60e51b815260206004820152602660248201527f546974616e4e46543a2055524920736574206f66206e6f6e6578697374656e74604482015265103a37b5b2b760d11b6064820152608401610862565b600082815260056020908152604090912082516109b892840190612703565b6000818152600860205260408120546001600160a01b0316611bcc5760405162461bcd60e51b815260206004820152602e60248201527f546974616e4e46543a206f70657261746f7220717565727920666f72206e6f6e60448201526d32bc34b9ba32b73a103a37b5b2b760911b6064820152608401610862565b6000611bd783610f04565b9050806001600160a01b0316846001600160a01b03161480611c125750836001600160a01b0316611c07846107eb565b6001600160a01b0316145b80611c4257506001600160a01b038082166000908152600b602090815260408083209388168352929052205460ff165b949350505050565b826001600160a01b0316611c5d82610f04565b6001600160a01b031614611cd95760405162461bcd60e51b815260206004820152602f60248201527f50726f6a656374546f6b656e3a207472616e73666572206f6620746f6b656e2060448201527f74686174206973206e6f74206f776e00000000000000000000000000000000006064820152608401610862565b6001600160a01b038216611d425760405162461bcd60e51b815260206004820152602a60248201527f50726f6a656374546f6b656e3a207472616e7366657220746f20746865207a65604482015269726f206164647265737360b01b6064820152608401610862565b611d4b8161205d565b6001600160a01b0383166000908152600a60205260409020611d6c90612098565b6001600160a01b0382166000908152600a6020526040902080546001019055600081815260086020526040902080546001600160a01b0319166001600160a01b038416179055611dbc83826120ef565b6001600160a01b038281166000818152600c602081815260408084208054888652600d845282862081905593835260018401815584529083209091018590555184938716917fddf252ad1be2c89b69c2b068fc378daa952ba7f163c4a11628f55a4df523b3ef91a4505050565b6000828152600860205260409020546001600160a01b0316611e9c5760405162461bcd60e51b815260206004820152602660248201527f546974616e4e46543a2055524920736574206f66206e6f6e6578697374656e74604482015265103a37b5b2b760d11b6064820152608401610862565b60008281526006602090815260409091208251611ebb92840190612703565b507f4d9b1f1701290894a3ce2b80ebc08192c14f3750d521c806657dc51b9705260a8282604051611eed929190612eb3565b60405180910390a15050565b8051611f0c906007906020840190612703565b5050565b611f0c8282604051806020016040528060008152506121fe565b60606000611f37836122fe565b600101905060008167ffffffffffffffff811115611f5757611f5761289b565b6040519080825280601f01601f191660200182016040528015611f81576020820181803683370190505b5090508181016020015b600019017f3031323334353637383961626364656600000000000000000000000000000000600a86061a8153600a8504945084611fc757611fcc565b611f8b565b509392505050565b611fdf848484611c4a565b611feb848484846123e0565b61174b5760405162461bcd60e51b815260206004820152603460248201527f546974616e4e46543a207472616e7366657220746f206e6f6e2045524337323160448201527f526563656976657220696d706c656d656e7465720000000000000000000000006064820152608401610862565b6000818152600960205260409020546001600160a01b031615610f0157600090815260096020526040902080546001600160a01b0319169055565b8054806120e75760405162461bcd60e51b815260206004820152601b60248201527f436f756e7465723a2064656372656d656e74206f766572666c6f7700000000006044820152606401610862565b600019019055565b6001600160a01b0382166000908152600c602052604081205461211490600190612efb565b6000838152600d60205260409020549091508082146121bb576001600160a01b0384166000908152600c6020526040812080548490811061215757612157612e6c565b9060005260206000200154905080600c6000876001600160a01b03166001600160a01b03168152602001908152602001600020838154811061219b5761219b612e6c565b6000918252602080832090910192909255918252600d9052604090208190555b6001600160a01b0384166000908152600c602052604090208054806121e2576121e2612f12565b6001900381819060005260206000200160009055905550505050565b61220883836124b1565b6001600160a01b0383166000908152600c602090815260408083208054868552600d84528285208190556001808201835591855283852001869055600e8054878652600f9094529184208390558201815582527fbb7b4a454dc3493923482f07822329ed19e8244eff582cc204f8554c3620c3fd0183905561228c908484846123e0565b6109b85760405162461bcd60e51b815260206004820152603460248201527f546974616e4e46543a207472616e7366657220746f206e6f6e2045524337323160448201527f526563656976657220696d706c656d656e7465720000000000000000000000006064820152608401610862565b6000807a184f03e93ff9f4daa797ed6e38ed64bf6a1f0100000000000000008310612347577a184f03e93ff9f4daa797ed6e38ed64bf6a1f010000000000000000830492506040015b6d04ee2d6d415b85acef81000000008310612373576d04ee2d6d415b85acef8100000000830492506020015b662386f26fc10000831061239157662386f26fc10000830492506010015b6305f5e10083106123a9576305f5e100830492506008015b61271083106123bd57612710830492506004015b606483106123cf576064830492506002015b600a8310610f8f5760010192915050565b60006001600160a01b0384163b6123f957506001611c42565b600061247a63150b7a0260e01b3388878760405160240161241d9493929190612f28565b604051602081830303815290604052906001600160e01b0319166020820180516001600160e01b038381831617835250505050604051806060016040528060348152602001612f9e603491396001600160a01b03881691906125e3565b90506000818060200190518101906124929190612f64565b6001600160e01b031916630a85bd0160e11b1492505050949350505050565b6001600160a01b0382166125125760405162461bcd60e51b815260206004820152602260248201527f546974616e4e46543a206d696e7420746f20746865207a65726f206164647265604482015261737360f01b6064820152608401610862565b6000818152600860205260409020546001600160a01b0316156125775760405162461bcd60e51b815260206004820152601e60248201527f546974616e4e46543a20746f6b656e20616c7265616479206d696e74656400006044820152606401610862565b600081815260086020908152604080832080546001600160a01b0319166001600160a01b038716908117909155808452600a90925280832080546001019055518392907fddf252ad1be2c89b69c2b068fc378daa952ba7f163c4a11628f55a4df523b3ef908290a45050565b6060611c42848460008585600080866001600160a01b0316858760405161260a9190612f81565b60006040518083038185875af1925050503d8060008114612647576040519150601f19603f3d011682016040523d82523d6000602084013e61264c565b606091505b509150915061265d87838387612668565b979650505050505050565b606083156126d45782516126cd576001600160a01b0385163b6126cd5760405162461bcd60e51b815260206004820152601d60248201527f416464726573733a2063616c6c20746f206e6f6e2d636f6e74726163740000006044820152606401610862565b5081611c42565b611c4283838151156126e95781518083602001fd5b8060405162461bcd60e51b8152600401610862919061282e565b82805461270f90612e31565b90600052602060002090601f0160209004810192826127315760008555612777565b82601f1061274a57805160ff1916838001178555612777565b82800160010185558215612777579182015b8281111561277757825182559160200191906001019061275c565b50612783929150612787565b5090565b5b808211156127835760008155600101612788565b6001600160e01b031981168114610f0157600080fd5b6000602082840312156127c457600080fd5b81356127cf8161279c565b9392505050565b60005b838110156127f15781810151838201526020016127d9565b8381111561174b5750506000910152565b6000815180845261281a8160208601602086016127d6565b601f01601f19169290920160200192915050565b6020815260006127cf6020830184612802565b60006020828403121561285357600080fd5b5035919050565b80356001600160a01b0381168114610bd057600080fd5b6000806040838503121561288457600080fd5b61288d8361285a565b946020939093013593505050565b634e487b7160e01b600052604160045260246000fd5b604051601f8201601f1916810167ffffffffffffffff811182821017156128da576128da61289b565b604052919050565b600082601f8301126128f357600080fd5b813567ffffffffffffffff81111561290d5761290d61289b565b612920601f8201601f19166020016128b1565b81815284602083860101111561293557600080fd5b816020850160208301376000918101602001919091529392505050565b6000806040838503121561296557600080fd5b82359150602083013567ffffffffffffffff81111561298357600080fd5b61298f858286016128e2565b9150509250929050565b6000806000606084860312156129ae57600080fd5b6129b78461285a565b92506129c56020850161285a565b9150604084013590509250925092565b6000602082840312156129e757600080fd5b6127cf8261285a565b600067ffffffffffffffff821115612a0a57612a0a61289b565b5060051b60200190565b600082601f830112612a2557600080fd5b81356020612a3a612a35836129f0565b6128b1565b82815260059290921b84018101918181019086841115612a5957600080fd5b8286015b84811015612a745780358352918301918301612a5d565b509695505050505050565b600082601f830112612a9057600080fd5b81356020612aa0612a35836129f0565b82815260059290921b84018101918181019086841115612abf57600080fd5b8286015b84811015612a7457803567ffffffffffffffff811115612ae35760008081fd5b612af18986838b01016128e2565b845250918301918301612ac3565b60008060408385031215612b1257600080fd5b823567ffffffffffffffff80821115612b2a57600080fd5b612b3686838701612a14565b93506020850135915080821115612b4c57600080fd5b5061298f85828601612a7f565b600060208284031215612b6b57600080fd5b813567ffffffffffffffff811115612b8257600080fd5b611c42848285016128e2565b6020808252825182820181905260009190848201906040850190845b81811015612bc657835183529284019291840191600101612baa565b50909695505050505050565b600080600060608486031215612be757600080fd5b833567ffffffffffffffff80821115612bff57600080fd5b612c0b87838801612a14565b94506020860135915080821115612c2157600080fd5b50612c2e86828701612a7f565b925050612c3d6040850161285a565b90509250925092565b60008060408385031215612c5957600080fd5b612c628361285a565b915060208301358015158114612c7757600080fd5b809150509250929050565b60008060408385031215612c9557600080fd5b823567ffffffffffffffff80821115612cad57600080fd5b612cb986838701612a14565b9350602091508185013581811115612cd057600080fd5b8501601f81018713612ce157600080fd5b8035612cef612a35826129f0565b81815260059190911b82018401908481019089831115612d0e57600080fd5b8584015b83811015612d4657803586811115612d2a5760008081fd5b612d388c89838901016128e2565b845250918601918601612d12565b508096505050505050509250929050565b60008060008060808587031215612d6d57600080fd5b612d768561285a565b9350612d846020860161285a565b925060408501359150606085013567ffffffffffffffff811115612da757600080fd5b612db3878288016128e2565b91505092959194509250565b60008060408385031215612dd257600080fd5b612ddb8361285a565b9150612de96020840161285a565b90509250929050565b600080600060608486031215612e0757600080fd5b83359250602084013567ffffffffffffffff811115612e2557600080fd5b612c2e868287016128e2565b600181811c90821680612e4557607f821691505b60208210811415612e6657634e487b7160e01b600052602260045260246000fd5b50919050565b634e487b7160e01b600052603260045260246000fd5b634e487b7160e01b600052601160045260246000fd5b6000600019821415612eac57612eac612e82565b5060010190565b828152604060208201526000611c426040830184612802565b60008351612ede8184602088016127d6565b835190830190612ef28183602088016127d6565b01949350505050565b600082821015612f0d57612f0d612e82565b500390565b634e487b7160e01b600052603160045260246000fd5b60006001600160a01b03808716835280861660208401525083604083015260806060830152612f5a6080830184612802565b9695505050505050565b600060208284031215612f7657600080fd5b81516127cf8161279c565b60008251612f938184602087016127d6565b919091019291505056fe546974616e4e46543a207472616e7366657220746f206e6f6e20455243373231526563656976657220696d706c656d656e746572a164736f6c6343000809000a",
  "linkReferences": {},
  "deployedLinkReferences": {}
}