{
  "address": "0xa00Efd0856c449C4B02467A941E1Ec531618d9eB",
  "abi": [
    {
      "inputs": [
        {
          "internalType": "string",
          "name": "name_",
          "type": "string"
        },
        {
          "internalType": "string",
          "name": "symbol_",
          "type": "string"
        },
        {
          "internalType": "address",
          "name": "ownerAddress",
          "type": "address"
        },
        {
          "internalType": "uint256",
          "name": "_maxId",
          "type": "uint256"
        }
      ],
      "stateMutability": "nonpayable",
      "type": "constructor"
    },
    {
      "anonymous": false,
      "inputs": [
        {
          "indexed": true,
          "internalType": "address",
          "name": "previousOwner",
          "type": "address"
        },
        {
          "indexed": true,
          "internalType": "address",
          "name": "newOwner",
          "type": "address"
        }
      ],
      "name": "OwnershipTransferred",
      "type": "event"
    },
    {
      "anonymous": false,
      "inputs": [
        {
          "indexed": true,
          "internalType": "address",
          "name": "implementation",
          "type": "address"
        }
      ],
      "name": "Upgraded",
      "type": "event"
    },
    {
      "stateMutability": "payable",
      "type": "fallback"
    },
    {
      "inputs": [],
      "name": "_ERC721_RECEIVED",
      "outputs": [
        {
          "internalType": "bytes4",
          "name": "",
          "type": "bytes4"
        }
      ],
      "stateMutability": "view",
      "type": "function"
    },
    {
      "inputs": [],
      "name": "_INTERFACE_ID_ERC721",
      "outputs": [
        {
          "internalType": "bytes4",
          "name": "",
          "type": "bytes4"
        }
      ],
      "stateMutability": "view",
      "type": "function"
    },
    {
      "inputs": [],
      "name": "_INTERFACE_ID_ERC721_ENUMERABLE",
      "outputs": [
        {
          "internalType": "bytes4",
          "name": "",
          "type": "bytes4"
        }
      ],
      "stateMutability": "view",
      "type": "function"
    },
    {
      "inputs": [],
      "name": "_INTERFACE_ID_ERC721_METADATA",
      "outputs": [
        {
          "internalType": "bytes4",
          "name": "",
          "type": "bytes4"
        }
      ],
      "stateMutability": "view",
      "type": "function"
    },
    {
      "inputs": [
        {
          "internalType": "uint256",
          "name": "",
          "type": "uint256"
        }
      ],
      "name": "_allTokens",
      "outputs": [
        {
          "internalType": "uint256",
          "name": "",
          "type": "uint256"
        }
      ],
      "stateMutability": "view",
      "type": "function"
    },
    {
      "inputs": [
        {
          "internalType": "uint256",
          "name": "",
          "type": "uint256"
        }
      ],
      "name": "_allTokensIndex",
      "outputs": [
        {
          "internalType": "uint256",
          "name": "",
          "type": "uint256"
        }
      ],
      "stateMutability": "view",
      "type": "function"
    },
    {
      "inputs": [],
      "name": "_baseURI",
      "outputs": [
        {
          "internalType": "string",
          "name": "",
          "type": "string"
        }
      ],
      "stateMutability": "view",
      "type": "function"
    },
    {
      "inputs": [],
      "name": "_name",
      "outputs": [
        {
          "internalType": "string",
          "name": "",
          "type": "string"
        }
      ],
      "stateMutability": "view",
      "type": "function"
    },
    {
      "inputs": [
        {
          "internalType": "address",
          "name": "",
          "type": "address"
        },
        {
          "internalType": "address",
          "name": "",
          "type": "address"
        }
      ],
      "name": "_operatorApprovals",
      "outputs": [
        {
          "internalType": "bool",
          "name": "",
          "type": "bool"
        }
      ],
      "stateMutability": "view",
      "type": "function"
    },
    {
      "inputs": [
        {
          "internalType": "address",
          "name": "",
          "type": "address"
        },
        {
          "internalType": "uint256",
          "name": "",
          "type": "uint256"
        }
      ],
      "name": "_ownedTokens",
      "outputs": [
        {
          "internalType": "uint256",
          "name": "",
          "type": "uint256"
        }
      ],
      "stateMutability": "view",
      "type": "function"
    },
    {
      "inputs": [
        {
          "internalType": "address",
          "name": "",
          "type": "address"
        }
      ],
      "name": "_ownedTokensCount",
      "outputs": [
        {
          "internalType": "uint256",
          "name": "_value",
          "type": "uint256"
        }
      ],
      "stateMutability": "view",
      "type": "function"
    },
    {
      "inputs": [
        {
          "internalType": "uint256",
          "name": "",
          "type": "uint256"
        }
      ],
      "name": "_ownedTokensIndex",
      "outputs": [
        {
          "internalType": "uint256",
          "name": "",
          "type": "uint256"
        }
      ],
      "stateMutability": "view",
      "type": "function"
    },
    {
      "inputs": [],
      "name": "_owner",
      "outputs": [
        {
          "internalType": "address",
          "name": "",
          "type": "address"
        }
      ],
      "stateMutability": "view",
      "type": "function"
    },
    {
      "inputs": [],
      "name": "_symbol",
      "outputs": [
        {
          "internalType": "string",
          "name": "",
          "type": "string"
        }
      ],
      "stateMutability": "view",
      "type": "function"
    },
    {
      "inputs": [
        {
          "internalType": "uint256",
          "name": "",
          "type": "uint256"
        }
      ],
      "name": "_tokenApprovals",
      "outputs": [
        {
          "internalType": "address",
          "name": "",
          "type": "address"
        }
      ],
      "stateMutability": "view",
      "type": "function"
    },
    {
      "inputs": [
        {
          "internalType": "uint256",
          "name": "",
          "type": "uint256"
        }
      ],
      "name": "_tokenAttributes",
      "outputs": [
        {
          "internalType": "bytes",
          "name": "",
          "type": "bytes"
        }
      ],
      "stateMutability": "view",
      "type": "function"
    },
    {
      "inputs": [
        {
          "internalType": "uint256",
          "name": "",
          "type": "uint256"
        }
      ],
      "name": "_tokenOwner",
      "outputs": [
        {
          "internalType": "address",
          "name": "",
          "type": "address"
        }
      ],
      "stateMutability": "view",
      "type": "function"
    },
    {
      "inputs": [
        {
          "internalType": "uint256",
          "name": "",
          "type": "uint256"
        }
      ],
      "name": "_tokenURIs",
      "outputs": [
        {
          "internalType": "string",
          "name": "",
          "type": "string"
        }
      ],
      "stateMutability": "view",
      "type": "function"
    },
    {
      "inputs": [],
      "name": "implementation",
      "outputs": [
        {
          "internalType": "address",
          "name": "",
          "type": "address"
        }
      ],
      "stateMutability": "view",
      "type": "function"
    },
    {
      "inputs": [],
      "name": "maxId",
      "outputs": [
        {
          "internalType": "uint256",
          "name": "",
          "type": "uint256"
        }
      ],
      "stateMutability": "view",
      "type": "function"
    },
    {
      "inputs": [],
      "name": "pauseProxy",
      "outputs": [
        {
          "internalType": "bool",
          "name": "",
          "type": "bool"
        }
      ],
      "stateMutability": "view",
      "type": "function"
    },
    {
      "inputs": [
        {
          "internalType": "bool",
          "name": "_pause",
          "type": "bool"
        }
      ],
      "name": "setProxyPause",
      "outputs": [],
      "stateMutability": "nonpayable",
      "type": "function"
    },
    {
      "inputs": [
        {
          "internalType": "bytes4",
          "name": "interfaceId",
          "type": "bytes4"
        }
      ],
      "name": "supportsInterface",
      "outputs": [
        {
          "internalType": "bool",
          "name": "",
          "type": "bool"
        }
      ],
      "stateMutability": "view",
      "type": "function"
    },
    {
      "inputs": [
        {
          "internalType": "address",
          "name": "newOwner",
          "type": "address"
        }
      ],
      "name": "transferOwnership",
      "outputs": [],
      "stateMutability": "nonpayable",
      "type": "function"
    },
    {
      "inputs": [
        {
          "internalType": "address",
          "name": "impl",
          "type": "address"
        }
      ],
      "name": "upgradeTo",
      "outputs": [],
      "stateMutability": "nonpayable",
      "type": "function"
    },
    {
      "stateMutability": "payable",
      "type": "receive"
    }
  ],
  "args": [
    "Titan NFTs",
    "TITAN",
    "0xc1eba383D94c6021160042491A5dfaF1d82694E6",
    "100"
  ],
  "numDeployments": 1,
  "solcInputHash": "9e97e05d7400dea52da8558ef85316ad",
  "bytecode": "0x60806040523480156200001157600080fd5b50604051620011c7380380620011c7833981016040819052620000349162000367565b620000466301ffc9a760e01b62000170565b6200007360017f360894a13ba1a3210667c828492db98dca3e2076cc3735a920a3ca505d382bbd620003fa565b7f360894a13ba1a3210667c828492db98dca3e2076cc3735a920a3ca505d382bbc14620000a457620000a462000420565b600180546001600160a01b0319166001600160a01b0384161790558351620000d4906002906020870190620001f4565b508251620000ea906003906020860190620001f4565b5060048190556010805460ff191690556200010c6380ac58cd60e01b62000170565b6200011e635b5e139f60e01b62000170565b6200013063780e9d6360e01b62000170565b6040516001600160a01b038316906000907f8be0079c531659141344cd1fd0a4f28419497f9722a3daafe3b4186f6b6457e0908290a35050505062000473565b6001600160e01b03198082161415620001cf5760405162461bcd60e51b815260206004820152601c60248201527f4552433136353a20696e76616c696420696e7465726661636520696400000000604482015260640160405180910390fd5b6001600160e01b0319166000908152602081905260409020805460ff19166001179055565b828054620002029062000436565b90600052602060002090601f01602090048101928262000226576000855562000271565b82601f106200024157805160ff191683800117855562000271565b8280016001018555821562000271579182015b828111156200027157825182559160200191906001019062000254565b506200027f92915062000283565b5090565b5b808211156200027f576000815560010162000284565b634e487b7160e01b600052604160045260246000fd5b600082601f830112620002c257600080fd5b81516001600160401b0380821115620002df57620002df6200029a565b604051601f8301601f19908116603f011681019082821181831017156200030a576200030a6200029a565b816040528381526020925086838588010111156200032757600080fd5b600091505b838210156200034b57858201830151818301840152908201906200032c565b838211156200035d5760008385830101525b9695505050505050565b600080600080608085870312156200037e57600080fd5b84516001600160401b03808211156200039657600080fd5b620003a488838901620002b0565b95506020870151915080821115620003bb57600080fd5b50620003ca87828801620002b0565b604087015190945090506001600160a01b0381168114620003ea57600080fd5b6060959095015193969295505050565b6000828210156200041b57634e487b7160e01b600052601160045260246000fd5b500390565b634e487b7160e01b600052600160045260246000fd5b600181811c908216806200044b57607f821691505b602082108114156200046d57634e487b7160e01b600052602260045260246000fd5b50919050565b610d4480620004836000396000f3fe60806040526004361061019a5760003560e01c8063a2e9b439116100e1578063b2bdfa7b1161008a578063dece685411610064578063dece685414610511578063edc3bc3f1461052c578063f2fde38b14610567578063f663171814610587576101ec565b8063b2bdfa7b146104c6578063c5ea3c65146104e6578063d28d8852146104fc576101ec565b8063aa5965ae116100bb578063aa5965ae14610476578063b01ac59114610496578063b09f1266146104b1576101ec565b8063a2e9b439146103e6578063a726366514610413578063a7cc013614610440576101ec565b806363a8fd89116101435780637cb00d251161011d5780637cb00d251461037757806388290adc1461039757806394a509dd146103cb576101ec565b806363a8fd891461030d578063743976a01461032c578063796db31214610341576101ec565b80633659cfe6116101745780633659cfe6146102925780634f3c5f06146102b25780635c60da1b146102e0576101ec565b806301ffc9a7146101f65780630bb78ec11461024557806317a3a79c14610272576101ec565b366101ec5760405162461bcd60e51b815260206004820152601460248201527f63616e6e6f74207265636569766520457468657200000000000000000000000060448201526064015b60405180910390fd5b6101f46105b4565b005b34801561020257600080fd5b50610230610211366004610b9c565b6001600160e01b03191660009081526020819052604090205460ff1690565b60405190151581526020015b60405180910390f35b34801561025157600080fd5b50610265610260366004610bcd565b61067c565b60405161023c9190610c33565b34801561027e57600080fd5b5061026561028d366004610bcd565b610716565b34801561029e57600080fd5b506101f46102ad366004610c62565b61072f565b3480156102be57600080fd5b506102d26102cd366004610c7d565b6108a8565b60405190815260200161023c565b3480156102ec57600080fd5b506102f56108d9565b6040516001600160a01b03909116815260200161023c565b34801561031957600080fd5b5060105461023090610100900460ff1681565b34801561033857600080fd5b50610265610908565b34801561034d57600080fd5b506102f561035c366004610bcd565b6008602052600090815260409020546001600160a01b031681565b34801561038357600080fd5b506101f4610392366004610ca7565b610915565b3480156103a357600080fd5b506103b2630a85bd0160e11b81565b6040516001600160e01b0319909116815260200161023c565b3480156103d757600080fd5b506103b2635b5e139f60e01b81565b3480156103f257600080fd5b506102d2610401366004610bcd565b600d6020526000908152604090205481565b34801561041f57600080fd5b506102d261042e366004610bcd565b600f6020526000908152604090205481565b34801561044c57600080fd5b506102f561045b366004610bcd565b6009602052600090815260409020546001600160a01b031681565b34801561048257600080fd5b506102d2610491366004610bcd565b610989565b3480156104a257600080fd5b506103b263780e9d6360e01b81565b3480156104bd57600080fd5b506102656109aa565b3480156104d257600080fd5b506001546102f5906001600160a01b031681565b3480156104f257600080fd5b506102d260045481565b34801561050857600080fd5b506102656109b7565b34801561051d57600080fd5b506103b26380ac58cd60e01b81565b34801561053857600080fd5b50610230610547366004610cc9565b600b60209081526000928352604080842090915290825290205460ff1681565b34801561057357600080fd5b506101f4610582366004610c62565b6109c4565b34801561059357600080fd5b506102d26105a2366004610c62565b600a6020526000908152604090205481565b60006105de7f360894a13ba1a3210667c828492db98dca3e2076cc3735a920a3ca505d382bbc5490565b90506001600160a01b038116158015906106005750601054610100900460ff16155b6106585760405162461bcd60e51b815260206004820152602360248201527f45524337323150726f78793a20696d706c204f522070726f78792069732066616044820152626c736560e81b60648201526084016101e3565b3660008037600080366000845af43d6000803e808015610677573d6000f35b3d6000fd5b6005602052600090815260409020805461069590610cfc565b80601f01602080910402602001604051908101604052809291908181526020018280546106c190610cfc565b801561070e5780601f106106e35761010080835404028352916020019161070e565b820191906000526020600020905b8154815290600101906020018083116106f157829003601f168201915b505050505081565b6006602052600090815260409020805461069590610cfc565b6001546001600160a01b031633146107895760405162461bcd60e51b815260206004820152601760248201527f63616c6c6572206973206e6f7420746865206f776e657200000000000000000060448201526064016101e3565b6001600160a01b0381166107df5760405162461bcd60e51b815260206004820152601a60248201527f45524337323150726f78793a20696e707574206973207a65726f00000000000060448201526064016101e3565b806001600160a01b03166108117f360894a13ba1a3210667c828492db98dca3e2076cc3735a920a3ca505d382bbc5490565b6001600160a01b031614156108685760405162461bcd60e51b815260206004820152601160248201527f45524337323150726f78793a2073616d6500000000000000000000000000000060448201526064016101e3565b61087181610aec565b6040516001600160a01b038216907fbc7cd75a20ee27fd9adebab32041f755214dbc6bffa90cc0225b39da2e5c2d3b90600090a250565b600c60205281600052604060002081815481106108c457600080fd5b90600052602060002001600091509150505481565b60006109037f360894a13ba1a3210667c828492db98dca3e2076cc3735a920a3ca505d382bbc5490565b905090565b6007805461069590610cfc565b6001546001600160a01b0316331461096f5760405162461bcd60e51b815260206004820152601760248201527f63616c6c6572206973206e6f7420746865206f776e657200000000000000000060448201526064016101e3565b601080549115156101000261ff0019909216919091179055565b600e818154811061099957600080fd5b600091825260209091200154905081565b6003805461069590610cfc565b6002805461069590610cfc565b6001546001600160a01b03163314610a1e5760405162461bcd60e51b815260206004820152601760248201527f63616c6c6572206973206e6f7420746865206f776e657200000000000000000060448201526064016101e3565b6001600160a01b038116610a835760405162461bcd60e51b815260206004820152602660248201527f4f776e61626c653a206e6577206f776e657220697320746865207a65726f206160448201526564647265737360d01b60648201526084016101e3565b6001546040516001600160a01b038084169216907f8be0079c531659141344cd1fd0a4f28419497f9722a3daafe3b4186f6b6457e090600090a36001805473ffffffffffffffffffffffffffffffffffffffff19166001600160a01b0392909216919091179055565b6001600160a01b0381163b610b785760405162461bcd60e51b815260206004820152604660248201527f50726f7879426173653a2043616e6e6f742073657420612070726f787920696d60448201527f706c656d656e746174696f6e20746f2061206e6f6e2d636f6e7472616374206160648201526564647265737360d01b608482015260a4016101e3565b7f360894a13ba1a3210667c828492db98dca3e2076cc3735a920a3ca505d382bbc55565b600060208284031215610bae57600080fd5b81356001600160e01b031981168114610bc657600080fd5b9392505050565b600060208284031215610bdf57600080fd5b5035919050565b6000815180845260005b81811015610c0c57602081850181015186830182015201610bf0565b81811115610c1e576000602083870101525b50601f01601f19169290920160200192915050565b602081526000610bc66020830184610be6565b80356001600160a01b0381168114610c5d57600080fd5b919050565b600060208284031215610c7457600080fd5b610bc682610c46565b60008060408385031215610c9057600080fd5b610c9983610c46565b946020939093013593505050565b600060208284031215610cb957600080fd5b81358015158114610bc657600080fd5b60008060408385031215610cdc57600080fd5b610ce583610c46565b9150610cf360208401610c46565b90509250929050565b600181811c90821680610d1057607f821691505b60208210811415610d3157634e487b7160e01b600052602260045260246000fd5b5091905056fea164736f6c6343000809000a",
  "devdoc": {
    "kind": "dev",
    "methods": {
      "constructor": {
        "details": "Initializes the contract by setting a `name` and a `symbol` to the token collection."
      },
      "implementation()": {
        "details": "returns the implementation"
      },
      "setProxyPause(bool)": {
        "params": {
          "_pause": "true:pause or false:resume"
        }
      },
      "supportsInterface(bytes4)": {
        "details": "See {IERC165-supportsInterface}. Time complexity O(1), guaranteed to always use less than 30 000 gas."
      },
      "upgradeTo(address)": {
        "params": {
          "impl": "New implementation contract address"
        }
      }
    },
    "version": 1
  },
  "userdoc": {
    "kind": "user",
    "methods": {
      "setProxyPause(bool)": {
        "notice": "Set pause state"
      },
      "upgradeTo(address)": {
        "notice": "Set implementation contract"
      }
    },
    "version": 1
  },
  "storageLayout": {
    "storage": [
      {
        "astId": 1821,
        "contract": "contracts/TitanNFTProxy.sol:TitanNFTProxy",
        "label": "_supportedInterfaces",
        "offset": 0,
        "slot": "0",
        "type": "t_mapping(t_bytes4,t_bool)"
      },
      {
        "astId": 4385,
        "contract": "contracts/TitanNFTProxy.sol:TitanNFTProxy",
        "label": "_owner",
        "offset": 0,
        "slot": "1",
        "type": "t_address"
      },
      {
        "astId": 4387,
        "contract": "contracts/TitanNFTProxy.sol:TitanNFTProxy",
        "label": "_name",
        "offset": 0,
        "slot": "2",
        "type": "t_string_storage"
      },
      {
        "astId": 4389,
        "contract": "contracts/TitanNFTProxy.sol:TitanNFTProxy",
        "label": "_symbol",
        "offset": 0,
        "slot": "3",
        "type": "t_string_storage"
      },
      {
        "astId": 4391,
        "contract": "contracts/TitanNFTProxy.sol:TitanNFTProxy",
        "label": "maxId",
        "offset": 0,
        "slot": "4",
        "type": "t_uint256"
      },
      {
        "astId": 4395,
        "contract": "contracts/TitanNFTProxy.sol:TitanNFTProxy",
        "label": "_tokenURIs",
        "offset": 0,
        "slot": "5",
        "type": "t_mapping(t_uint256,t_string_storage)"
      },
      {
        "astId": 4399,
        "contract": "contracts/TitanNFTProxy.sol:TitanNFTProxy",
        "label": "_tokenAttributes",
        "offset": 0,
        "slot": "6",
        "type": "t_mapping(t_uint256,t_bytes_storage)"
      },
      {
        "astId": 4401,
        "contract": "contracts/TitanNFTProxy.sol:TitanNFTProxy",
        "label": "_baseURI",
        "offset": 0,
        "slot": "7",
        "type": "t_string_storage"
      },
      {
        "astId": 4405,
        "contract": "contracts/TitanNFTProxy.sol:TitanNFTProxy",
        "label": "_tokenOwner",
        "offset": 0,
        "slot": "8",
        "type": "t_mapping(t_uint256,t_address)"
      },
      {
        "astId": 4409,
        "contract": "contracts/TitanNFTProxy.sol:TitanNFTProxy",
        "label": "_tokenApprovals",
        "offset": 0,
        "slot": "9",
        "type": "t_mapping(t_uint256,t_address)"
      },
      {
        "astId": 4414,
        "contract": "contracts/TitanNFTProxy.sol:TitanNFTProxy",
        "label": "_ownedTokensCount",
        "offset": 0,
        "slot": "10",
        "type": "t_mapping(t_address,t_struct(Counter)527_storage)"
      },
      {
        "astId": 4420,
        "contract": "contracts/TitanNFTProxy.sol:TitanNFTProxy",
        "label": "_operatorApprovals",
        "offset": 0,
        "slot": "11",
        "type": "t_mapping(t_address,t_mapping(t_address,t_bool))"
      },
      {
        "astId": 4425,
        "contract": "contracts/TitanNFTProxy.sol:TitanNFTProxy",
        "label": "_ownedTokens",
        "offset": 0,
        "slot": "12",
        "type": "t_mapping(t_address,t_array(t_uint256)dyn_storage)"
      },
      {
        "astId": 4429,
        "contract": "contracts/TitanNFTProxy.sol:TitanNFTProxy",
        "label": "_ownedTokensIndex",
        "offset": 0,
        "slot": "13",
        "type": "t_mapping(t_uint256,t_uint256)"
      },
      {
        "astId": 4432,
        "contract": "contracts/TitanNFTProxy.sol:TitanNFTProxy",
        "label": "_allTokens",
        "offset": 0,
        "slot": "14",
        "type": "t_array(t_uint256)dyn_storage"
      },
      {
        "astId": 4436,
        "contract": "contracts/TitanNFTProxy.sol:TitanNFTProxy",
        "label": "_allTokensIndex",
        "offset": 0,
        "slot": "15",
        "type": "t_mapping(t_uint256,t_uint256)"
      },
      {
        "astId": 4438,
        "contract": "contracts/TitanNFTProxy.sol:TitanNFTProxy",
        "label": "_lock",
        "offset": 0,
        "slot": "16",
        "type": "t_bool"
      },
      {
        "astId": 4440,
        "contract": "contracts/TitanNFTProxy.sol:TitanNFTProxy",
        "label": "pauseProxy",
        "offset": 1,
        "slot": "16",
        "type": "t_bool"
      }
    ],
    "types": {
      "t_address": {
        "encoding": "inplace",
        "label": "address",
        "numberOfBytes": "20"
      },
      "t_array(t_uint256)dyn_storage": {
        "base": "t_uint256",
        "encoding": "dynamic_array",
        "label": "uint256[]",
        "numberOfBytes": "32"
      },
      "t_bool": {
        "encoding": "inplace",
        "label": "bool",
        "numberOfBytes": "1"
      },
      "t_bytes4": {
        "encoding": "inplace",
        "label": "bytes4",
        "numberOfBytes": "4"
      },
      "t_bytes_storage": {
        "encoding": "bytes",
        "label": "bytes",
        "numberOfBytes": "32"
      },
      "t_mapping(t_address,t_array(t_uint256)dyn_storage)": {
        "encoding": "mapping",
        "key": "t_address",
        "label": "mapping(address => uint256[])",
        "numberOfBytes": "32",
        "value": "t_array(t_uint256)dyn_storage"
      },
      "t_mapping(t_address,t_bool)": {
        "encoding": "mapping",
        "key": "t_address",
        "label": "mapping(address => bool)",
        "numberOfBytes": "32",
        "value": "t_bool"
      },
      "t_mapping(t_address,t_mapping(t_address,t_bool))": {
        "encoding": "mapping",
        "key": "t_address",
        "label": "mapping(address => mapping(address => bool))",
        "numberOfBytes": "32",
        "value": "t_mapping(t_address,t_bool)"
      },
      "t_mapping(t_address,t_struct(Counter)527_storage)": {
        "encoding": "mapping",
        "key": "t_address",
        "label": "mapping(address => struct Counters.Counter)",
        "numberOfBytes": "32",
        "value": "t_struct(Counter)527_storage"
      },
      "t_mapping(t_bytes4,t_bool)": {
        "encoding": "mapping",
        "key": "t_bytes4",
        "label": "mapping(bytes4 => bool)",
        "numberOfBytes": "32",
        "value": "t_bool"
      },
      "t_mapping(t_uint256,t_address)": {
        "encoding": "mapping",
        "key": "t_uint256",
        "label": "mapping(uint256 => address)",
        "numberOfBytes": "32",
        "value": "t_address"
      },
      "t_mapping(t_uint256,t_bytes_storage)": {
        "encoding": "mapping",
        "key": "t_uint256",
        "label": "mapping(uint256 => bytes)",
        "numberOfBytes": "32",
        "value": "t_bytes_storage"
      },
      "t_mapping(t_uint256,t_string_storage)": {
        "encoding": "mapping",
        "key": "t_uint256",
        "label": "mapping(uint256 => string)",
        "numberOfBytes": "32",
        "value": "t_string_storage"
      },
      "t_mapping(t_uint256,t_uint256)": {
        "encoding": "mapping",
        "key": "t_uint256",
        "label": "mapping(uint256 => uint256)",
        "numberOfBytes": "32",
        "value": "t_uint256"
      },
      "t_string_storage": {
        "encoding": "bytes",
        "label": "string",
        "numberOfBytes": "32"
      },
      "t_struct(Counter)527_storage": {
        "encoding": "inplace",
        "label": "struct Counters.Counter",
        "members": [
          {
            "astId": 526,
            "contract": "contracts/TitanNFTProxy.sol:TitanNFTProxy",
            "label": "_value",
            "offset": 0,
            "slot": "0",
            "type": "t_uint256"
          }
        ],
        "numberOfBytes": "32"
      },
      "t_uint256": {
        "encoding": "inplace",
        "label": "uint256",
        "numberOfBytes": "32"
      }
    }
  }
}