{
  "address": "0x63D03a5AA8c070f5D3a4342bcCF4816b5F709e2b",
  "abi": [
    {
      "inputs": [
        {
          "internalType": "string",
          "name": "name_",
          "type": "string"
        },
        {
          "internalType": "string",
          "name": "symbol_",
          "type": "string"
        },
        {
          "internalType": "address",
          "name": "ownerAddress",
          "type": "address"
        },
        {
          "internalType": "uint256",
          "name": "_maxId",
          "type": "uint256"
        }
      ],
      "stateMutability": "nonpayable",
      "type": "constructor"
    },
    {
      "anonymous": false,
      "inputs": [
        {
          "indexed": true,
          "internalType": "address",
          "name": "owner",
          "type": "address"
        },
        {
          "indexed": true,
          "internalType": "address",
          "name": "approved",
          "type": "address"
        },
        {
          "indexed": true,
          "internalType": "uint256",
          "name": "tokenId",
          "type": "uint256"
        }
      ],
      "name": "Approval",
      "type": "event"
    },
    {
      "anonymous": false,
      "inputs": [
        {
          "indexed": true,
          "internalType": "address",
          "name": "owner",
          "type": "address"
        },
        {
          "indexed": true,
          "internalType": "address",
          "name": "operator",
          "type": "address"
        },
        {
          "indexed": false,
          "internalType": "bool",
          "name": "approved",
          "type": "bool"
        }
      ],
      "name": "ApprovalForAll",
      "type": "event"
    },
    {
      "anonymous": false,
      "inputs": [
        {
          "indexed": false,
          "internalType": "uint256",
          "name": "tokenId",
          "type": "uint256"
        },
        {
          "indexed": false,
          "internalType": "bytes",
          "name": "attribute",
          "type": "bytes"
        }
      ],
      "name": "SetAttribute",
      "type": "event"
    },
    {
      "anonymous": false,
      "inputs": [
        {
          "indexed": true,
          "internalType": "address",
          "name": "from",
          "type": "address"
        },
        {
          "indexed": true,
          "internalType": "address",
          "name": "to",
          "type": "address"
        },
        {
          "indexed": true,
          "internalType": "uint256",
          "name": "tokenId",
          "type": "uint256"
        }
      ],
      "name": "Transfer",
      "type": "event"
    },
    {
      "inputs": [],
      "name": "_ERC721_RECEIVED",
      "outputs": [
        {
          "internalType": "bytes4",
          "name": "",
          "type": "bytes4"
        }
      ],
      "stateMutability": "view",
      "type": "function"
    },
    {
      "inputs": [],
      "name": "_INTERFACE_ID_ERC721",
      "outputs": [
        {
          "internalType": "bytes4",
          "name": "",
          "type": "bytes4"
        }
      ],
      "stateMutability": "view",
      "type": "function"
    },
    {
      "inputs": [],
      "name": "_INTERFACE_ID_ERC721_ENUMERABLE",
      "outputs": [
        {
          "internalType": "bytes4",
          "name": "",
          "type": "bytes4"
        }
      ],
      "stateMutability": "view",
      "type": "function"
    },
    {
      "inputs": [],
      "name": "_INTERFACE_ID_ERC721_METADATA",
      "outputs": [
        {
          "internalType": "bytes4",
          "name": "",
          "type": "bytes4"
        }
      ],
      "stateMutability": "view",
      "type": "function"
    },
    {
      "inputs": [
        {
          "internalType": "uint256",
          "name": "",
          "type": "uint256"
        }
      ],
      "name": "_allTokens",
      "outputs": [
        {
          "internalType": "uint256",
          "name": "",
          "type": "uint256"
        }
      ],
      "stateMutability": "view",
      "type": "function"
    },
    {
      "inputs": [
        {
          "internalType": "uint256",
          "name": "",
          "type": "uint256"
        }
      ],
      "name": "_allTokensIndex",
      "outputs": [
        {
          "internalType": "uint256",
          "name": "",
          "type": "uint256"
        }
      ],
      "stateMutability": "view",
      "type": "function"
    },
    {
      "inputs": [],
      "name": "_baseURI",
      "outputs": [
        {
          "internalType": "string",
          "name": "",
          "type": "string"
        }
      ],
      "stateMutability": "view",
      "type": "function"
    },
    {
      "inputs": [],
      "name": "_name",
      "outputs": [
        {
          "internalType": "string",
          "name": "",
          "type": "string"
        }
      ],
      "stateMutability": "view",
      "type": "function"
    },
    {
      "inputs": [
        {
          "internalType": "address",
          "name": "",
          "type": "address"
        },
        {
          "internalType": "address",
          "name": "",
          "type": "address"
        }
      ],
      "name": "_operatorApprovals",
      "outputs": [
        {
          "internalType": "bool",
          "name": "",
          "type": "bool"
        }
      ],
      "stateMutability": "view",
      "type": "function"
    },
    {
      "inputs": [
        {
          "internalType": "address",
          "name": "",
          "type": "address"
        },
        {
          "internalType": "uint256",
          "name": "",
          "type": "uint256"
        }
      ],
      "name": "_ownedTokens",
      "outputs": [
        {
          "internalType": "uint256",
          "name": "",
          "type": "uint256"
        }
      ],
      "stateMutability": "view",
      "type": "function"
    },
    {
      "inputs": [
        {
          "internalType": "address",
          "name": "",
          "type": "address"
        }
      ],
      "name": "_ownedTokensCount",
      "outputs": [
        {
          "internalType": "uint256",
          "name": "_value",
          "type": "uint256"
        }
      ],
      "stateMutability": "view",
      "type": "function"
    },
    {
      "inputs": [
        {
          "internalType": "uint256",
          "name": "",
          "type": "uint256"
        }
      ],
      "name": "_ownedTokensIndex",
      "outputs": [
        {
          "internalType": "uint256",
          "name": "",
          "type": "uint256"
        }
      ],
      "stateMutability": "view",
      "type": "function"
    },
    {
      "inputs": [],
      "name": "_owner",
      "outputs": [
        {
          "internalType": "address",
          "name": "",
          "type": "address"
        }
      ],
      "stateMutability": "view",
      "type": "function"
    },
    {
      "inputs": [],
      "name": "_symbol",
      "outputs": [
        {
          "internalType": "string",
          "name": "",
          "type": "string"
        }
      ],
      "stateMutability": "view",
      "type": "function"
    },
    {
      "inputs": [
        {
          "internalType": "uint256",
          "name": "",
          "type": "uint256"
        }
      ],
      "name": "_tokenApprovals",
      "outputs": [
        {
          "internalType": "address",
          "name": "",
          "type": "address"
        }
      ],
      "stateMutability": "view",
      "type": "function"
    },
    {
      "inputs": [
        {
          "internalType": "uint256",
          "name": "",
          "type": "uint256"
        }
      ],
      "name": "_tokenAttributes",
      "outputs": [
        {
          "internalType": "bytes",
          "name": "",
          "type": "bytes"
        }
      ],
      "stateMutability": "view",
      "type": "function"
    },
    {
      "inputs": [
        {
          "internalType": "uint256",
          "name": "",
          "type": "uint256"
        }
      ],
      "name": "_tokenOwner",
      "outputs": [
        {
          "internalType": "address",
          "name": "",
          "type": "address"
        }
      ],
      "stateMutability": "view",
      "type": "function"
    },
    {
      "inputs": [
        {
          "internalType": "uint256",
          "name": "",
          "type": "uint256"
        }
      ],
      "name": "_tokenURIs",
      "outputs": [
        {
          "internalType": "string",
          "name": "",
          "type": "string"
        }
      ],
      "stateMutability": "view",
      "type": "function"
    },
    {
      "inputs": [],
      "name": "allTokens",
      "outputs": [
        {
          "internalType": "uint256[]",
          "name": "",
          "type": "uint256[]"
        }
      ],
      "stateMutability": "view",
      "type": "function"
    },
    {
      "inputs": [
        {
          "internalType": "address",
          "name": "to",
          "type": "address"
        },
        {
          "internalType": "uint256",
          "name": "tokenId",
          "type": "uint256"
        }
      ],
      "name": "approve",
      "outputs": [],
      "stateMutability": "nonpayable",
      "type": "function"
    },
    {
      "inputs": [
        {
          "internalType": "address",
          "name": "owner_",
          "type": "address"
        }
      ],
      "name": "balanceOf",
      "outputs": [
        {
          "internalType": "uint256",
          "name": "",
          "type": "uint256"
        }
      ],
      "stateMutability": "view",
      "type": "function"
    },
    {
      "inputs": [],
      "name": "baseURI",
      "outputs": [
        {
          "internalType": "string",
          "name": "",
          "type": "string"
        }
      ],
      "stateMutability": "view",
      "type": "function"
    },
    {
      "inputs": [
        {
          "internalType": "uint256",
          "name": "tokenId",
          "type": "uint256"
        }
      ],
      "name": "getApproved",
      "outputs": [
        {
          "internalType": "address",
          "name": "",
          "type": "address"
        }
      ],
      "stateMutability": "view",
      "type": "function"
    },
    {
      "inputs": [
        {
          "internalType": "address",
          "name": "owner_",
          "type": "address"
        },
        {
          "internalType": "address",
          "name": "operator",
          "type": "address"
        }
      ],
      "name": "isApprovedForAll",
      "outputs": [
        {
          "internalType": "bool",
          "name": "",
          "type": "bool"
        }
      ],
      "stateMutability": "view",
      "type": "function"
    },
    {
      "inputs": [
        {
          "internalType": "address",
          "name": "addr",
          "type": "address"
        }
      ],
      "name": "isOwner",
      "outputs": [
        {
          "internalType": "bool",
          "name": "",
          "type": "bool"
        }
      ],
      "stateMutability": "view",
      "type": "function"
    },
    {
      "inputs": [],
      "name": "maxId",
      "outputs": [
        {
          "internalType": "uint256",
          "name": "",
          "type": "uint256"
        }
      ],
      "stateMutability": "view",
      "type": "function"
    },
    {
      "inputs": [
        {
          "internalType": "uint256",
          "name": "tokenId",
          "type": "uint256"
        },
        {
          "internalType": "bytes",
          "name": "attribute",
          "type": "bytes"
        },
        {
          "internalType": "address",
          "name": "to",
          "type": "address"
        }
      ],
      "name": "mint",
      "outputs": [],
      "stateMutability": "nonpayable",
      "type": "function"
    },
    {
      "inputs": [
        {
          "internalType": "uint256[]",
          "name": "tokenIds",
          "type": "uint256[]"
        },
        {
          "internalType": "bytes[]",
          "name": "attributes",
          "type": "bytes[]"
        },
        {
          "internalType": "address",
          "name": "to",
          "type": "address"
        }
      ],
      "name": "multiMint",
      "outputs": [],
      "stateMutability": "nonpayable",
      "type": "function"
    },
    {
      "inputs": [],
      "name": "name",
      "outputs": [
        {
          "internalType": "string",
          "name": "",
          "type": "string"
        }
      ],
      "stateMutability": "view",
      "type": "function"
    },
    {
      "inputs": [],
      "name": "owner",
      "outputs": [
        {
          "internalType": "address",
          "name": "",
          "type": "address"
        }
      ],
      "stateMutability": "view",
      "type": "function"
    },
    {
      "inputs": [
        {
          "internalType": "uint256",
          "name": "tokenId",
          "type": "uint256"
        }
      ],
      "name": "ownerOf",
      "outputs": [
        {
          "internalType": "address",
          "name": "",
          "type": "address"
        }
      ],
      "stateMutability": "view",
      "type": "function"
    },
    {
      "inputs": [],
      "name": "pauseProxy",
      "outputs": [
        {
          "internalType": "bool",
          "name": "",
          "type": "bool"
        }
      ],
      "stateMutability": "view",
      "type": "function"
    },
    {
      "inputs": [
        {
          "internalType": "address",
          "name": "from",
          "type": "address"
        },
        {
          "internalType": "address",
          "name": "to",
          "type": "address"
        },
        {
          "internalType": "uint256",
          "name": "tokenId",
          "type": "uint256"
        }
      ],
      "name": "safeTransferFrom",
      "outputs": [],
      "stateMutability": "nonpayable",
      "type": "function"
    },
    {
      "inputs": [
        {
          "internalType": "address",
          "name": "from",
          "type": "address"
        },
        {
          "internalType": "address",
          "name": "to",
          "type": "address"
        },
        {
          "internalType": "uint256",
          "name": "tokenId",
          "type": "uint256"
        },
        {
          "internalType": "bytes",
          "name": "_data",
          "type": "bytes"
        }
      ],
      "name": "safeTransferFrom",
      "outputs": [],
      "stateMutability": "nonpayable",
      "type": "function"
    },
    {
      "inputs": [
        {
          "internalType": "address",
          "name": "operator",
          "type": "address"
        },
        {
          "internalType": "bool",
          "name": "approved",
          "type": "bool"
        }
      ],
      "name": "setApprovalForAll",
      "outputs": [],
      "stateMutability": "nonpayable",
      "type": "function"
    },
    {
      "inputs": [
        {
          "internalType": "uint256",
          "name": "tokenId",
          "type": "uint256"
        },
        {
          "internalType": "bytes",
          "name": "_attribute",
          "type": "bytes"
        }
      ],
      "name": "setAttribute",
      "outputs": [],
      "stateMutability": "nonpayable",
      "type": "function"
    },
    {
      "inputs": [
        {
          "internalType": "uint256[]",
          "name": "tokenIds",
          "type": "uint256[]"
        },
        {
          "internalType": "bytes[]",
          "name": "_attributes",
          "type": "bytes[]"
        }
      ],
      "name": "setAttributes",
      "outputs": [],
      "stateMutability": "nonpayable",
      "type": "function"
    },
    {
      "inputs": [
        {
          "internalType": "string",
          "name": "baseURI_",
          "type": "string"
        }
      ],
      "name": "setBaseURI",
      "outputs": [],
      "stateMutability": "nonpayable",
      "type": "function"
    },
    {
      "inputs": [
        {
          "internalType": "uint256",
          "name": "tokenId",
          "type": "uint256"
        },
        {
          "internalType": "string",
          "name": "_tokenURI",
          "type": "string"
        }
      ],
      "name": "setTokenURI",
      "outputs": [],
      "stateMutability": "nonpayable",
      "type": "function"
    },
    {
      "inputs": [
        {
          "internalType": "uint256[]",
          "name": "tokenIds",
          "type": "uint256[]"
        },
        {
          "internalType": "string[]",
          "name": "_tokenURIs",
          "type": "string[]"
        }
      ],
      "name": "setTokenURI",
      "outputs": [],
      "stateMutability": "nonpayable",
      "type": "function"
    },
    {
      "inputs": [
        {
          "internalType": "bytes4",
          "name": "interfaceId",
          "type": "bytes4"
        }
      ],
      "name": "supportsInterface",
      "outputs": [
        {
          "internalType": "bool",
          "name": "",
          "type": "bool"
        }
      ],
      "stateMutability": "view",
      "type": "function"
    },
    {
      "inputs": [],
      "name": "symbol",
      "outputs": [
        {
          "internalType": "string",
          "name": "",
          "type": "string"
        }
      ],
      "stateMutability": "view",
      "type": "function"
    },
    {
      "inputs": [
        {
          "internalType": "uint256",
          "name": "index",
          "type": "uint256"
        }
      ],
      "name": "tokenByIndex",
      "outputs": [
        {
          "internalType": "uint256",
          "name": "",
          "type": "uint256"
        }
      ],
      "stateMutability": "view",
      "type": "function"
    },
    {
      "inputs": [
        {
          "internalType": "address",
          "name": "owner_",
          "type": "address"
        },
        {
          "internalType": "uint256",
          "name": "index",
          "type": "uint256"
        }
      ],
      "name": "tokenOfOwnerByIndex",
      "outputs": [
        {
          "internalType": "uint256",
          "name": "",
          "type": "uint256"
        }
      ],
      "stateMutability": "view",
      "type": "function"
    },
    {
      "inputs": [
        {
          "internalType": "uint256",
          "name": "tokenId",
          "type": "uint256"
        }
      ],
      "name": "tokenURI",
      "outputs": [
        {
          "internalType": "string",
          "name": "",
          "type": "string"
        }
      ],
      "stateMutability": "view",
      "type": "function"
    },
    {
      "inputs": [
        {
          "internalType": "address",
          "name": "owner_",
          "type": "address"
        }
      ],
      "name": "tokensOfOwner",
      "outputs": [
        {
          "internalType": "uint256[]",
          "name": "",
          "type": "uint256[]"
        }
      ],
      "stateMutability": "view",
      "type": "function"
    },
    {
      "inputs": [],
      "name": "totalSupply",
      "outputs": [
        {
          "internalType": "uint256",
          "name": "",
          "type": "uint256"
        }
      ],
      "stateMutability": "view",
      "type": "function"
    },
    {
      "inputs": [
        {
          "internalType": "address",
          "name": "from",
          "type": "address"
        },
        {
          "internalType": "address",
          "name": "to",
          "type": "address"
        },
        {
          "internalType": "uint256",
          "name": "tokenId",
          "type": "uint256"
        }
      ],
      "name": "transferFrom",
      "outputs": [],
      "stateMutability": "nonpayable",
      "type": "function"
    }
  ],
  "transactionHash": "0x4670639ba55666ae3e01242c75ad3d7353d0e2e0c86ba3c372a8e7ccc289e8cf",
  "args": [
    "Titan NFTs",
    "TITAN",
    "0x796C1f28c777b8a5851D356EBbc9DeC2ee51137F",
    "100"
  ],
  "numDeployments": 1,
  "solcInputHash": "05a775a899d7c9542c69905f1fe1629f",
  "bytecode": "0x60806040523480156200001157600080fd5b50604051620032f8380380620032f88339810160408190526200003491620002c9565b620000466301ffc9a760e01b620000d2565b600180546001600160a01b0319166001600160a01b03841617905583516200007690600290602087019062000156565b5082516200008c90600390602086019062000156565b506004819055620000a46380ac58cd60e01b620000d2565b620000b6635b5e139f60e01b620000d2565b620000c863780e9d6360e01b620000d2565b5050505062000399565b6001600160e01b03198082161415620001315760405162461bcd60e51b815260206004820152601c60248201527f4552433136353a20696e76616c696420696e7465726661636520696400000000604482015260640160405180910390fd5b6001600160e01b0319166000908152602081905260409020805460ff19166001179055565b82805462000164906200035c565b90600052602060002090601f016020900481019282620001885760008555620001d3565b82601f10620001a357805160ff1916838001178555620001d3565b82800160010185558215620001d3579182015b82811115620001d3578251825591602001919060010190620001b6565b50620001e1929150620001e5565b5090565b5b80821115620001e15760008155600101620001e6565b634e487b7160e01b600052604160045260246000fd5b600082601f8301126200022457600080fd5b81516001600160401b0380821115620002415762000241620001fc565b604051601f8301601f19908116603f011681019082821181831017156200026c576200026c620001fc565b816040528381526020925086838588010111156200028957600080fd5b600091505b83821015620002ad57858201830151818301840152908201906200028e565b83821115620002bf5760008385830101525b9695505050505050565b60008060008060808587031215620002e057600080fd5b84516001600160401b0380821115620002f857600080fd5b620003068883890162000212565b955060208701519150808211156200031d57600080fd5b506200032c8782880162000212565b604087015190945090506001600160a01b03811681146200034c57600080fd5b6060959095015193969295505050565b600181811c908216806200037157607f821691505b602082108114156200039357634e487b7160e01b600052602260045260246000fd5b50919050565b612f4f80620003a96000396000f3fe608060405234801561001057600080fd5b50600436106103205760003560e01c806388290adc116101a7578063b01ac591116100ee578063d28d885211610097578063edc3bc3f11610071578063edc3bc3f146106f8578063f47c387814610726578063f66317181461073957600080fd5b8063d28d8852146106a6578063dece6854146106ae578063e985e9c5146106bc57600080fd5b8063b88d4fde116100c8578063b88d4fde14610677578063c5ea3c651461068a578063c87b56dd1461069357600080fd5b8063b01ac5911461064e578063b09f12661461065c578063b2bdfa7b1461066457600080fd5b8063a22cb46511610150578063a7cc01361161012a578063a7cc0136146105ff578063aa5965ae14610628578063aafb2d441461063b57600080fd5b8063a22cb465146105ac578063a2e9b439146105bf578063a7263665146105df57600080fd5b806394a509dd1161018157806394a509dd1461058357806395d89b41146105915780639be10b961461059957600080fd5b806388290adc14610538578063897f41521461055f5780638da5cb5b1461057257600080fd5b80634a1dbdc01161026b5780636c0360eb11610214578063743976a0116101ee578063743976a0146104f4578063796db312146104fc5780638462151c1461052557600080fd5b80636c0360eb146104c45780636ff97f1d146104cc57806370a08231146104e157600080fd5b806355f804b31161024557806355f804b31461048c5780636352211e1461049f57806363a8fd89146104b257600080fd5b80634a1dbdc0146104535780634f3c5f06146104665780634f6ccce71461047957600080fd5b806317a3a79c116102cd5780632f54bf6e116102a75780632f54bf6e1461041a5780632f745c591461042d57806342842e0e1461044057600080fd5b806317a3a79c146103e257806318160ddd146103f557806323b872dd1461040757600080fd5b8063095ea7b3116102fe578063095ea7b3146103a75780630bb78ec1146103bc578063162094c4146103cf57600080fd5b806301ffc9a71461032557806306fdde0314610367578063081812fc1461037c575b600080fd5b610352610333366004612723565b6001600160e01b03191660009081526020819052604090205460ff1690565b60405190151581526020015b60405180910390f35b61036f610759565b60405161035e919061279f565b61038f61038a3660046127b2565b6107eb565b6040516001600160a01b03909116815260200161035e565b6103ba6103b53660046127e2565b610887565b005b61036f6103ca3660046127b2565b6109bd565b6103ba6103dd3660046128c3565b610a57565b61036f6103f03660046127b2565b610b11565b600e545b60405190815260200161035e565b6103ba61041536600461290a565b610b2a565b610352610428366004612946565b610ba7565b6103f961043b3660046127e2565b610bd5565b6103ba61044e36600461290a565b610c77565b6103ba610461366004612a70565b610c92565b6103f96104743660046127e2565b610de9565b6103f96104873660046127b2565b610e1a565b6103ba61049a366004612aca565b610ea4565b61038f6104ad3660046127b2565b610f04565b60105461035290610100900460ff1681565b61036f610f95565b6104d4610fa4565b60405161035e9190612aff565b6103f96104ef366004612946565b610ffb565b61036f611097565b61038f61050a3660046127b2565b6008602052600090815260409020546001600160a01b031681565b6104d4610533366004612946565b6110a4565b610546630a85bd0160e11b81565b6040516001600160e01b0319909116815260200161035e565b6103ba61056d366004612b43565b611110565b6001546001600160a01b031661038f565b610546635b5e139f60e01b81565b61036f611375565b6103ba6105a73660046128c3565b611384565b6103ba6105ba366004612bb7565b611430565b6103f96105cd3660046127b2565b600d6020526000908152604090205481565b6103f96105ed3660046127b2565b600f6020526000908152604090205481565b61038f61060d3660046127b2565b6009602052600090815260409020546001600160a01b031681565b6103f96106363660046127b2565b6114f5565b6103ba610649366004612bf3565b611516565b61054663780e9d6360e01b81565b61036f61165e565b60015461038f906001600160a01b031681565b6103ba610685366004612cc8565b61166b565b6103f960045481565b61036f6106a13660046127b2565b6116ef565b61036f611859565b6105466380ac58cd60e01b81565b6103526106ca366004612d30565b6001600160a01b039182166000908152600b6020908152604080832093909416825291909152205460ff1690565b610352610706366004612d30565b600b60209081526000928352604080842090915290825290205460ff1681565b6103ba610734366004612d63565b611866565b6103f9610747366004612946565b600a6020526000908152604090205481565b60606002805461076890612da2565b80601f016020809104026020016040519081016040528092919081815260200182805461079490612da2565b80156107e15780601f106107b6576101008083540402835291602001916107e1565b820191906000526020600020905b8154815290600101906020018083116107c457829003601f168201915b5050505050905090565b6000818152600860205260408120546001600160a01b031661086b5760405162461bcd60e51b815260206004820152602e60248201527f546974616e4e46543a20617070726f76656420717565727920666f72206e6f6e60448201526d32bc34b9ba32b73a103a37b5b2b760911b60648201526084015b60405180910390fd5b506000908152600960205260409020546001600160a01b031690565b600061089282610f04565b9050806001600160a01b0316836001600160a01b031614156109025760405162461bcd60e51b815260206004820152602360248201527f546974616e4e46543a20617070726f76616c20746f2063757272656e74206f776044820152623732b960e91b6064820152608401610862565b336001600160a01b038216148061093c57506001600160a01b0381166000908152600b6020908152604080832033845290915290205460ff165b6109ae5760405162461bcd60e51b815260206004820152603a60248201527f546974616e4e46543a20617070726f76652063616c6c6572206973206e6f742060448201527f6f776e6572206e6f7220617070726f76656420666f7220616c6c0000000000006064820152608401610862565b6109b883836119c2565b505050565b600560205260009081526040902080546109d690612da2565b80601f0160208091040260200160405190810160405280929190818152602001828054610a0290612da2565b8015610a4f5780601f10610a2457610100808354040283529160200191610a4f565b820191906000526020600020905b815481529060010190602001808311610a3257829003601f168201915b505050505081565b6001546001600160a01b03163314610aab5760405162461bcd60e51b815260206004820152601760248201527631b0b63632b91034b9903737ba103a34329037bbb732b960491b6044820152606401610862565b60105460ff16151560011415610aec5760405162461bcd60e51b8152602060048201526006602482015265696e2075736560d01b6044820152606401610862565b6010805460ff19166001179055610b038282611a30565b50506010805460ff19169055565b600660205260009081526040902080546109d690612da2565b610b343382611ac2565b610b9c5760405162461bcd60e51b815260206004820152603360248201527f546974616e4e46543a207472616e736665722063616c6c6572206973206e6f74604482015272081bdddb995c881b9bdc88185c1c1c9bdd9959606a1b6064820152608401610862565b6109b8838383611bbb565b6001546000906001600160a01b0383811691161415610bc857506001919050565b506000919050565b919050565b6000610be083610ffb565b8210610c3a5760405162461bcd60e51b815260206004820152602360248201527f546974616e4e46543a206f776e657220696e646578206f7574206f6620626f756044820152626e647360e81b6064820152608401610862565b6001600160a01b0383166000908152600c60205260409020805483908110610c6457610c64612ddd565b9060005260206000200154905092915050565b6109b88383836040518060200160405280600081525061166b565b6001546001600160a01b03163314610ce65760405162461bcd60e51b815260206004820152601760248201527631b0b63632b91034b9903737ba103a34329037bbb732b960491b6044820152606401610862565b60105460ff16151560011415610d275760405162461bcd60e51b8152602060048201526006602482015265696e2075736560d01b6044820152606401610862565b6010805460ff19166001179055815115801590610d45575080518251145b610d805760405162461bcd60e51b815260206004820152600c60248201526b0eee4dedcce40d8cadccee8d60a31b6044820152606401610862565b60005b8251811015610dda57610dc8838281518110610da157610da1612ddd565b6020026020010151838381518110610dbb57610dbb612ddd565b6020026020010151611d9a565b80610dd281612e09565b915050610d83565b50506010805460ff1916905550565b600c6020528160005260406000208181548110610e0557600080fd5b90600052602060002001600091509150505481565b6000610e25600e5490565b8210610e7f5760405162461bcd60e51b8152602060048201526024808201527f546974616e4e46543a20676c6f62616c20696e646578206f7574206f6620626f604482015263756e647360e01b6064820152608401610862565b600e8281548110610e9257610e92612ddd565b90600052602060002001549050919050565b6001546001600160a01b03163314610ef85760405162461bcd60e51b815260206004820152601760248201527631b0b63632b91034b9903737ba103a34329037bbb732b960491b6044820152606401610862565b610f0181611e6a565b50565b6000818152600860205260408120546001600160a01b031680610f8f5760405162461bcd60e51b815260206004820152602b60248201527f546974616e4e46543a206f776e657220717565727920666f72206e6f6e65786960448201527f7374656e7420746f6b656e0000000000000000000000000000000000000000006064820152608401610862565b92915050565b60606007805461076890612da2565b6060600e8054806020026020016040519081016040528092919081815260200182805480156107e157602002820191906000526020600020905b815481526020019060010190808311610fde575050505050905090565b60006001600160a01b0382166110795760405162461bcd60e51b815260206004820152602c60248201527f546974616e4e46543a2062616c616e636520717565727920666f72207468652060448201527f7a65726f206164647265737300000000000000000000000000000000000000006064820152608401610862565b6001600160a01b0382166000908152600a6020526040902054610f8f565b600780546109d690612da2565b6001600160a01b0381166000908152600c602090815260409182902080548351818402810184019094528084526060939283018282801561110457602002820191906000526020600020905b8154815260200190600101908083116110f0575b50505050509050919050565b6001546001600160a01b031633146111645760405162461bcd60e51b815260206004820152601760248201527631b0b63632b91034b9903737ba103a34329037bbb732b960491b6044820152606401610862565b60105460ff161515600114156111a55760405162461bcd60e51b8152602060048201526006602482015265696e2075736560d01b6044820152606401610862565b6010805460ff191660011790558251158015906111c3575081518351145b6111fe5760405162461bcd60e51b815260206004820152600c60248201526b0eee4dedcce40d8cadccee8d60a31b6044820152606401610862565b60005b83518110156113655760045484828151811061121f5761121f612ddd565b6020026020010151111561126b5760405162461bcd60e51b81526020600482015260136024820152721b9bdd08185b1b1bddd959081d1bdad95b9259606a1b6044820152606401610862565b61128e8285838151811061128157611281612ddd565b6020026020010151611e81565b8281815181106112a0576112a0612ddd565b6020026020010151600660008684815181106112be576112be612ddd565b6020026020010151815260200190815260200160002090805190602001906112e7929190612674565b507f4d9b1f1701290894a3ce2b80ebc08192c14f3750d521c806657dc51b9705260a84828151811061131b5761131b612ddd565b602002602001015184838151811061133557611335612ddd565b602002602001015160405161134b929190612e24565b60405180910390a18061135d81612e09565b915050611201565b50506010805460ff191690555050565b60606003805461076890612da2565b6001546001600160a01b031633146113d85760405162461bcd60e51b815260206004820152601760248201527631b0b63632b91034b9903737ba103a34329037bbb732b960491b6044820152606401610862565b60105460ff161515600114156114195760405162461bcd60e51b8152602060048201526006602482015265696e2075736560d01b6044820152606401610862565b6010805460ff19166001179055610b038282611d9a565b6001600160a01b0382163314156114895760405162461bcd60e51b815260206004820152601b60248201527f546974616e4e46543a20617070726f766520746f2063616c6c657200000000006044820152606401610862565b336000818152600b602090815260408083206001600160a01b03871680855290835292819020805460ff191686151590811790915590519081529192917f17307eab39ab6107e8899845ad3d59bd9653f200f220920489ca2b5937696c31910160405180910390a35050565b600e818154811061150557600080fd5b600091825260209091200154905081565b6001546001600160a01b0316331461156a5760405162461bcd60e51b815260206004820152601760248201527631b0b63632b91034b9903737ba103a34329037bbb732b960491b6044820152606401610862565b60105460ff161515600114156115ab5760405162461bcd60e51b8152602060048201526006602482015265696e2075736560d01b6044820152606401610862565b6010805460ff191660011790558151158015906115c9575080518251145b6116045760405162461bcd60e51b815260206004820152600c60248201526b0eee4dedcce40d8cadccee8d60a31b6044820152606401610862565b60005b8251811015610dda5761164c83828151811061162557611625612ddd565b602002602001015183838151811061163f5761163f612ddd565b6020026020010151611a30565b8061165681612e09565b915050611607565b600380546109d690612da2565b6116753383611ac2565b6116dd5760405162461bcd60e51b815260206004820152603360248201527f546974616e4e46543a207472616e736665722063616c6c6572206973206e6f74604482015272081bdddb995c881b9bdc88185c1c1c9bdd9959606a1b6064820152608401610862565b6116e984848484611e9b565b50505050565b6000818152600860205260409020546060906001600160a01b03166117565760405162461bcd60e51b815260206004820152601b60248201527f546974616e4e46543a206e6f6e6578697374656e7420746f6b656e00000000006044820152606401610862565b6000828152600560205260408120805461176f90612da2565b80601f016020809104026020016040519081016040528092919081815260200182805461179b90612da2565b80156117e85780601f106117bd576101008083540402835291602001916117e8565b820191906000526020600020905b8154815290600101906020018083116117cb57829003601f168201915b5050505050905060006117f9610f95565b905080516000141561180c575092915050565b81511561183e578082604051602001611826929190612e3d565b60405160208183030381529060405292505050919050565b8061184885611f24565b604051602001611826929190612e3d565b600280546109d690612da2565b6001546001600160a01b031633146118ba5760405162461bcd60e51b815260206004820152601760248201527631b0b63632b91034b9903737ba103a34329037bbb732b960491b6044820152606401610862565b60105460ff161515600114156118fb5760405162461bcd60e51b8152602060048201526006602482015265696e2075736560d01b6044820152606401610862565b6010805460ff191660011790556004548311156119505760405162461bcd60e51b81526020600482015260136024820152721b9bdd08185b1b1bddd959081d1bdad95b9259606a1b6044820152606401610862565b61195a8184611e81565b6000838152600660209081526040909120835161197992850190612674565b507f4d9b1f1701290894a3ce2b80ebc08192c14f3750d521c806657dc51b9705260a83836040516119ab929190612e24565b60405180910390a150506010805460ff1916905550565b600081815260096020526040902080546001600160a01b0319166001600160a01b03841690811790915581906119f782610f04565b6001600160a01b03167f8c5be1e5ebec7d5bd14f71427d1e84f3dd0314c0f7b2291e5b200ac8c7c3b92560405160405180910390a45050565b6000828152600860205260409020546001600160a01b0316611aa35760405162461bcd60e51b815260206004820152602660248201527f546974616e4e46543a2055524920736574206f66206e6f6e6578697374656e74604482015265103a37b5b2b760d11b6064820152608401610862565b600082815260056020908152604090912082516109b892840190612674565b6000818152600860205260408120546001600160a01b0316611b3d5760405162461bcd60e51b815260206004820152602e60248201527f546974616e4e46543a206f70657261746f7220717565727920666f72206e6f6e60448201526d32bc34b9ba32b73a103a37b5b2b760911b6064820152608401610862565b6000611b4883610f04565b9050806001600160a01b0316846001600160a01b03161480611b835750836001600160a01b0316611b78846107eb565b6001600160a01b0316145b80611bb357506001600160a01b038082166000908152600b602090815260408083209388168352929052205460ff165b949350505050565b826001600160a01b0316611bce82610f04565b6001600160a01b031614611c4a5760405162461bcd60e51b815260206004820152602f60248201527f50726f6a656374546f6b656e3a207472616e73666572206f6620746f6b656e2060448201527f74686174206973206e6f74206f776e00000000000000000000000000000000006064820152608401610862565b6001600160a01b038216611cb35760405162461bcd60e51b815260206004820152602a60248201527f50726f6a656374546f6b656e3a207472616e7366657220746f20746865207a65604482015269726f206164647265737360b01b6064820152608401610862565b611cbc81611fce565b6001600160a01b0383166000908152600a60205260409020611cdd90612009565b6001600160a01b0382166000908152600a6020526040902080546001019055600081815260086020526040902080546001600160a01b0319166001600160a01b038416179055611d2d8382612060565b6001600160a01b038281166000818152600c602081815260408084208054888652600d845282862081905593835260018401815584529083209091018590555184938716917fddf252ad1be2c89b69c2b068fc378daa952ba7f163c4a11628f55a4df523b3ef91a4505050565b6000828152600860205260409020546001600160a01b0316611e0d5760405162461bcd60e51b815260206004820152602660248201527f546974616e4e46543a2055524920736574206f66206e6f6e6578697374656e74604482015265103a37b5b2b760d11b6064820152608401610862565b60008281526006602090815260409091208251611e2c92840190612674565b507f4d9b1f1701290894a3ce2b80ebc08192c14f3750d521c806657dc51b9705260a8282604051611e5e929190612e24565b60405180910390a15050565b8051611e7d906007906020840190612674565b5050565b611e7d82826040518060200160405280600081525061216f565b611ea6848484611bbb565b611eb28484848461226f565b6116e95760405162461bcd60e51b815260206004820152603460248201527f546974616e4e46543a207472616e7366657220746f206e6f6e2045524337323160448201527f526563656976657220696d706c656d656e7465720000000000000000000000006064820152608401610862565b60606000611f3183612340565b600101905060008167ffffffffffffffff811115611f5157611f5161280c565b6040519080825280601f01601f191660200182016040528015611f7b576020820181803683370190505b5090508181016020015b600019017f3031323334353637383961626364656600000000000000000000000000000000600a86061a8153600a8504945084611fc157611fc6565b611f85565b509392505050565b6000818152600960205260409020546001600160a01b031615610f0157600090815260096020526040902080546001600160a01b0319169055565b8054806120585760405162461bcd60e51b815260206004820152601b60248201527f436f756e7465723a2064656372656d656e74206f766572666c6f7700000000006044820152606401610862565b600019019055565b6001600160a01b0382166000908152600c602052604081205461208590600190612e6c565b6000838152600d602052604090205490915080821461212c576001600160a01b0384166000908152600c602052604081208054849081106120c8576120c8612ddd565b9060005260206000200154905080600c6000876001600160a01b03166001600160a01b03168152602001908152602001600020838154811061210c5761210c612ddd565b6000918252602080832090910192909255918252600d9052604090208190555b6001600160a01b0384166000908152600c6020526040902080548061215357612153612e83565b6001900381819060005260206000200160009055905550505050565b6121798383612422565b6001600160a01b0383166000908152600c602090815260408083208054868552600d84528285208190556001808201835591855283852001869055600e8054878652600f9094529184208390558201815582527fbb7b4a454dc3493923482f07822329ed19e8244eff582cc204f8554c3620c3fd018390556121fd9084848461226f565b6109b85760405162461bcd60e51b815260206004820152603460248201527f546974616e4e46543a207472616e7366657220746f206e6f6e2045524337323160448201527f526563656976657220696d706c656d656e7465720000000000000000000000006064820152608401610862565b60006001600160a01b0384163b61228857506001611bb3565b600061230963150b7a0260e01b338887876040516024016122ac9493929190612e99565b604051602081830303815290604052906001600160e01b0319166020820180516001600160e01b038381831617835250505050604051806060016040528060348152602001612f0f603491396001600160a01b0388169190612554565b90506000818060200190518101906123219190612ed5565b6001600160e01b031916630a85bd0160e11b1492505050949350505050565b6000807a184f03e93ff9f4daa797ed6e38ed64bf6a1f0100000000000000008310612389577a184f03e93ff9f4daa797ed6e38ed64bf6a1f010000000000000000830492506040015b6d04ee2d6d415b85acef810000000083106123b5576d04ee2d6d415b85acef8100000000830492506020015b662386f26fc1000083106123d357662386f26fc10000830492506010015b6305f5e10083106123eb576305f5e100830492506008015b61271083106123ff57612710830492506004015b60648310612411576064830492506002015b600a8310610f8f5760010192915050565b6001600160a01b0382166124835760405162461bcd60e51b815260206004820152602260248201527f546974616e4e46543a206d696e7420746f20746865207a65726f206164647265604482015261737360f01b6064820152608401610862565b6000818152600860205260409020546001600160a01b0316156124e85760405162461bcd60e51b815260206004820152601e60248201527f546974616e4e46543a20746f6b656e20616c7265616479206d696e74656400006044820152606401610862565b600081815260086020908152604080832080546001600160a01b0319166001600160a01b038716908117909155808452600a90925280832080546001019055518392907fddf252ad1be2c89b69c2b068fc378daa952ba7f163c4a11628f55a4df523b3ef908290a45050565b6060611bb3848460008585600080866001600160a01b0316858760405161257b9190612ef2565b60006040518083038185875af1925050503d80600081146125b8576040519150601f19603f3d011682016040523d82523d6000602084013e6125bd565b606091505b50915091506125ce878383876125d9565b979650505050505050565b6060831561264557825161263e576001600160a01b0385163b61263e5760405162461bcd60e51b815260206004820152601d60248201527f416464726573733a2063616c6c20746f206e6f6e2d636f6e74726163740000006044820152606401610862565b5081611bb3565b611bb3838381511561265a5781518083602001fd5b8060405162461bcd60e51b8152600401610862919061279f565b82805461268090612da2565b90600052602060002090601f0160209004810192826126a257600085556126e8565b82601f106126bb57805160ff19168380011785556126e8565b828001600101855582156126e8579182015b828111156126e85782518255916020019190600101906126cd565b506126f49291506126f8565b5090565b5b808211156126f457600081556001016126f9565b6001600160e01b031981168114610f0157600080fd5b60006020828403121561273557600080fd5b81356127408161270d565b9392505050565b60005b8381101561276257818101518382015260200161274a565b838111156116e95750506000910152565b6000815180845261278b816020860160208601612747565b601f01601f19169290920160200192915050565b6020815260006127406020830184612773565b6000602082840312156127c457600080fd5b5035919050565b80356001600160a01b0381168114610bd057600080fd5b600080604083850312156127f557600080fd5b6127fe836127cb565b946020939093013593505050565b634e487b7160e01b600052604160045260246000fd5b604051601f8201601f1916810167ffffffffffffffff8111828210171561284b5761284b61280c565b604052919050565b600082601f83011261286457600080fd5b813567ffffffffffffffff81111561287e5761287e61280c565b612891601f8201601f1916602001612822565b8181528460208386010111156128a657600080fd5b816020850160208301376000918101602001919091529392505050565b600080604083850312156128d657600080fd5b82359150602083013567ffffffffffffffff8111156128f457600080fd5b61290085828601612853565b9150509250929050565b60008060006060848603121561291f57600080fd5b612928846127cb565b9250612936602085016127cb565b9150604084013590509250925092565b60006020828403121561295857600080fd5b612740826127cb565b600067ffffffffffffffff82111561297b5761297b61280c565b5060051b60200190565b600082601f83011261299657600080fd5b813560206129ab6129a683612961565b612822565b82815260059290921b840181019181810190868411156129ca57600080fd5b8286015b848110156129e557803583529183019183016129ce565b509695505050505050565b600082601f830112612a0157600080fd5b81356020612a116129a683612961565b82815260059290921b84018101918181019086841115612a3057600080fd5b8286015b848110156129e557803567ffffffffffffffff811115612a545760008081fd5b612a628986838b0101612853565b845250918301918301612a34565b60008060408385031215612a8357600080fd5b823567ffffffffffffffff80821115612a9b57600080fd5b612aa786838701612985565b93506020850135915080821115612abd57600080fd5b50612900858286016129f0565b600060208284031215612adc57600080fd5b813567ffffffffffffffff811115612af357600080fd5b611bb384828501612853565b6020808252825182820181905260009190848201906040850190845b81811015612b3757835183529284019291840191600101612b1b565b50909695505050505050565b600080600060608486031215612b5857600080fd5b833567ffffffffffffffff80821115612b7057600080fd5b612b7c87838801612985565b94506020860135915080821115612b9257600080fd5b50612b9f868287016129f0565b925050612bae604085016127cb565b90509250925092565b60008060408385031215612bca57600080fd5b612bd3836127cb565b915060208301358015158114612be857600080fd5b809150509250929050565b60008060408385031215612c0657600080fd5b823567ffffffffffffffff80821115612c1e57600080fd5b612c2a86838701612985565b9350602091508185013581811115612c4157600080fd5b8501601f81018713612c5257600080fd5b8035612c606129a682612961565b81815260059190911b82018401908481019089831115612c7f57600080fd5b8584015b83811015612cb757803586811115612c9b5760008081fd5b612ca98c8983890101612853565b845250918601918601612c83565b508096505050505050509250929050565b60008060008060808587031215612cde57600080fd5b612ce7856127cb565b9350612cf5602086016127cb565b925060408501359150606085013567ffffffffffffffff811115612d1857600080fd5b612d2487828801612853565b91505092959194509250565b60008060408385031215612d4357600080fd5b612d4c836127cb565b9150612d5a602084016127cb565b90509250929050565b600080600060608486031215612d7857600080fd5b83359250602084013567ffffffffffffffff811115612d9657600080fd5b612b9f86828701612853565b600181811c90821680612db657607f821691505b60208210811415612dd757634e487b7160e01b600052602260045260246000fd5b50919050565b634e487b7160e01b600052603260045260246000fd5b634e487b7160e01b600052601160045260246000fd5b6000600019821415612e1d57612e1d612df3565b5060010190565b828152604060208201526000611bb36040830184612773565b60008351612e4f818460208801612747565b835190830190612e63818360208801612747565b01949350505050565b600082821015612e7e57612e7e612df3565b500390565b634e487b7160e01b600052603160045260246000fd5b60006001600160a01b03808716835280861660208401525083604083015260806060830152612ecb6080830184612773565b9695505050505050565b600060208284031215612ee757600080fd5b81516127408161270d565b60008251612f04818460208701612747565b919091019291505056fe546974616e4e46543a207472616e7366657220746f206e6f6e20455243373231526563656976657220696d706c656d656e746572a164736f6c6343000809000a",
  "devdoc": {
    "details": "see https://eips.ethereum.org/EIPS/eip-721",
    "kind": "dev",
    "methods": {
      "approve(address,uint256)": {
        "details": "See {IERC721-approve}."
      },
      "balanceOf(address)": {
        "details": "See {IERC721-balanceOf}."
      },
      "baseURI()": {
        "details": "Returns the base URI set via {_setBaseURI}. This will be automatically added as a prefix in {tokenURI} to each token's URI, or to the token ID if no specific URI is set for that token ID."
      },
      "getApproved(uint256)": {
        "details": "See {IERC721-getApproved}."
      },
      "isApprovedForAll(address,address)": {
        "details": "See {IERC721-isApprovedForAll}."
      },
      "isOwner(address)": {
        "details": "Returns the address of the current owner."
      },
      "name()": {
        "details": "See {IERC721Metadata-name}."
      },
      "owner()": {
        "details": "Returns the address of the current owner."
      },
      "ownerOf(uint256)": {
        "details": "See {IERC721-ownerOf}."
      },
      "safeTransferFrom(address,address,uint256)": {
        "details": "See {IERC721-safeTransferFrom}."
      },
      "safeTransferFrom(address,address,uint256,bytes)": {
        "details": "See {IERC721-safeTransferFrom}."
      },
      "setApprovalForAll(address,bool)": {
        "details": "See {IERC721-setApprovalForAll}."
      },
      "supportsInterface(bytes4)": {
        "details": "Overrides supportsInterface"
      },
      "symbol()": {
        "details": "See {IERC721Metadata-symbol}."
      },
      "tokenByIndex(uint256)": {
        "details": "See {IERC721Enumerable-tokenByIndex}."
      },
      "tokenOfOwnerByIndex(address,uint256)": {
        "details": "See {IERC721Enumerable-tokenOfOwnerByIndex}."
      },
      "tokenURI(uint256)": {
        "details": "See {IERC721Metadata-tokenURI}."
      },
      "totalSupply()": {
        "details": "See {IERC721Enumerable-totalSupply}."
      },
      "transferFrom(address,address,uint256)": {
        "details": "See {IERC721-transferFrom}."
      }
    },
    "title": "ERC721 Non-Fungible Token Standard basic implementation",
    "version": 1
  },
  "userdoc": {
    "kind": "user",
    "methods": {},
    "version": 1
  },
  "storageLayout": {
    "storage": [
      {
        "astId": 1821,
        "contract": "contracts/TitanNFT.sol:TitanNFT",
        "label": "_supportedInterfaces",
        "offset": 0,
        "slot": "0",
        "type": "t_mapping(t_bytes4,t_bool)"
      },
      {
        "astId": 3382,
        "contract": "contracts/TitanNFT.sol:TitanNFT",
        "label": "_owner",
        "offset": 0,
        "slot": "1",
        "type": "t_address"
      },
      {
        "astId": 3384,
        "contract": "contracts/TitanNFT.sol:TitanNFT",
        "label": "_name",
        "offset": 0,
        "slot": "2",
        "type": "t_string_storage"
      },
      {
        "astId": 3386,
        "contract": "contracts/TitanNFT.sol:TitanNFT",
        "label": "_symbol",
        "offset": 0,
        "slot": "3",
        "type": "t_string_storage"
      },
      {
        "astId": 3388,
        "contract": "contracts/TitanNFT.sol:TitanNFT",
        "label": "maxId",
        "offset": 0,
        "slot": "4",
        "type": "t_uint256"
      },
      {
        "astId": 3392,
        "contract": "contracts/TitanNFT.sol:TitanNFT",
        "label": "_tokenURIs",
        "offset": 0,
        "slot": "5",
        "type": "t_mapping(t_uint256,t_string_storage)"
      },
      {
        "astId": 3396,
        "contract": "contracts/TitanNFT.sol:TitanNFT",
        "label": "_tokenAttributes",
        "offset": 0,
        "slot": "6",
        "type": "t_mapping(t_uint256,t_bytes_storage)"
      },
      {
        "astId": 3398,
        "contract": "contracts/TitanNFT.sol:TitanNFT",
        "label": "_baseURI",
        "offset": 0,
        "slot": "7",
        "type": "t_string_storage"
      },
      {
        "astId": 3402,
        "contract": "contracts/TitanNFT.sol:TitanNFT",
        "label": "_tokenOwner",
        "offset": 0,
        "slot": "8",
        "type": "t_mapping(t_uint256,t_address)"
      },
      {
        "astId": 3406,
        "contract": "contracts/TitanNFT.sol:TitanNFT",
        "label": "_tokenApprovals",
        "offset": 0,
        "slot": "9",
        "type": "t_mapping(t_uint256,t_address)"
      },
      {
        "astId": 3411,
        "contract": "contracts/TitanNFT.sol:TitanNFT",
        "label": "_ownedTokensCount",
        "offset": 0,
        "slot": "10",
        "type": "t_mapping(t_address,t_struct(Counter)527_storage)"
      },
      {
        "astId": 3417,
        "contract": "contracts/TitanNFT.sol:TitanNFT",
        "label": "_operatorApprovals",
        "offset": 0,
        "slot": "11",
        "type": "t_mapping(t_address,t_mapping(t_address,t_bool))"
      },
      {
        "astId": 3422,
        "contract": "contracts/TitanNFT.sol:TitanNFT",
        "label": "_ownedTokens",
        "offset": 0,
        "slot": "12",
        "type": "t_mapping(t_address,t_array(t_uint256)dyn_storage)"
      },
      {
        "astId": 3426,
        "contract": "contracts/TitanNFT.sol:TitanNFT",
        "label": "_ownedTokensIndex",
        "offset": 0,
        "slot": "13",
        "type": "t_mapping(t_uint256,t_uint256)"
      },
      {
        "astId": 3429,
        "contract": "contracts/TitanNFT.sol:TitanNFT",
        "label": "_allTokens",
        "offset": 0,
        "slot": "14",
        "type": "t_array(t_uint256)dyn_storage"
      },
      {
        "astId": 3433,
        "contract": "contracts/TitanNFT.sol:TitanNFT",
        "label": "_allTokensIndex",
        "offset": 0,
        "slot": "15",
        "type": "t_mapping(t_uint256,t_uint256)"
      },
      {
        "astId": 3435,
        "contract": "contracts/TitanNFT.sol:TitanNFT",
        "label": "_lock",
        "offset": 0,
        "slot": "16",
        "type": "t_bool"
      },
      {
        "astId": 3437,
        "contract": "contracts/TitanNFT.sol:TitanNFT",
        "label": "pauseProxy",
        "offset": 1,
        "slot": "16",
        "type": "t_bool"
      }
    ],
    "types": {
      "t_address": {
        "encoding": "inplace",
        "label": "address",
        "numberOfBytes": "20"
      },
      "t_array(t_uint256)dyn_storage": {
        "base": "t_uint256",
        "encoding": "dynamic_array",
        "label": "uint256[]",
        "numberOfBytes": "32"
      },
      "t_bool": {
        "encoding": "inplace",
        "label": "bool",
        "numberOfBytes": "1"
      },
      "t_bytes4": {
        "encoding": "inplace",
        "label": "bytes4",
        "numberOfBytes": "4"
      },
      "t_bytes_storage": {
        "encoding": "bytes",
        "label": "bytes",
        "numberOfBytes": "32"
      },
      "t_mapping(t_address,t_array(t_uint256)dyn_storage)": {
        "encoding": "mapping",
        "key": "t_address",
        "label": "mapping(address => uint256[])",
        "numberOfBytes": "32",
        "value": "t_array(t_uint256)dyn_storage"
      },
      "t_mapping(t_address,t_bool)": {
        "encoding": "mapping",
        "key": "t_address",
        "label": "mapping(address => bool)",
        "numberOfBytes": "32",
        "value": "t_bool"
      },
      "t_mapping(t_address,t_mapping(t_address,t_bool))": {
        "encoding": "mapping",
        "key": "t_address",
        "label": "mapping(address => mapping(address => bool))",
        "numberOfBytes": "32",
        "value": "t_mapping(t_address,t_bool)"
      },
      "t_mapping(t_address,t_struct(Counter)527_storage)": {
        "encoding": "mapping",
        "key": "t_address",
        "label": "mapping(address => struct Counters.Counter)",
        "numberOfBytes": "32",
        "value": "t_struct(Counter)527_storage"
      },
      "t_mapping(t_bytes4,t_bool)": {
        "encoding": "mapping",
        "key": "t_bytes4",
        "label": "mapping(bytes4 => bool)",
        "numberOfBytes": "32",
        "value": "t_bool"
      },
      "t_mapping(t_uint256,t_address)": {
        "encoding": "mapping",
        "key": "t_uint256",
        "label": "mapping(uint256 => address)",
        "numberOfBytes": "32",
        "value": "t_address"
      },
      "t_mapping(t_uint256,t_bytes_storage)": {
        "encoding": "mapping",
        "key": "t_uint256",
        "label": "mapping(uint256 => bytes)",
        "numberOfBytes": "32",
        "value": "t_bytes_storage"
      },
      "t_mapping(t_uint256,t_string_storage)": {
        "encoding": "mapping",
        "key": "t_uint256",
        "label": "mapping(uint256 => string)",
        "numberOfBytes": "32",
        "value": "t_string_storage"
      },
      "t_mapping(t_uint256,t_uint256)": {
        "encoding": "mapping",
        "key": "t_uint256",
        "label": "mapping(uint256 => uint256)",
        "numberOfBytes": "32",
        "value": "t_uint256"
      },
      "t_string_storage": {
        "encoding": "bytes",
        "label": "string",
        "numberOfBytes": "32"
      },
      "t_struct(Counter)527_storage": {
        "encoding": "inplace",
        "label": "struct Counters.Counter",
        "members": [
          {
            "astId": 526,
            "contract": "contracts/TitanNFT.sol:TitanNFT",
            "label": "_value",
            "offset": 0,
            "slot": "0",
            "type": "t_uint256"
          }
        ],
        "numberOfBytes": "32"
      },
      "t_uint256": {
        "encoding": "inplace",
        "label": "uint256",
        "numberOfBytes": "32"
      }
    }
  }
}