{
  "address": "0x33Ca9E08b04E20eF3Beef4D77b18D8D4323FFf10",
  "abi": [
    {
      "inputs": [
        {
          "internalType": "string",
          "name": "name_",
          "type": "string"
        },
        {
          "internalType": "string",
          "name": "symbol_",
          "type": "string"
        },
        {
          "internalType": "address",
          "name": "ownerAddress",
          "type": "address"
        },
        {
          "internalType": "address",
          "name": "managerAddress",
          "type": "address"
        }
      ],
      "stateMutability": "nonpayable",
      "type": "constructor"
    },
    {
      "anonymous": false,
      "inputs": [
        {
          "indexed": true,
          "internalType": "address",
          "name": "previousManager",
          "type": "address"
        },
        {
          "indexed": true,
          "internalType": "address",
          "name": "newManager",
          "type": "address"
        }
      ],
      "name": "ManagershipTransferred",
      "type": "event"
    },
    {
      "anonymous": false,
      "inputs": [
        {
          "indexed": true,
          "internalType": "address",
          "name": "previousOwner",
          "type": "address"
        },
        {
          "indexed": true,
          "internalType": "address",
          "name": "newOwner",
          "type": "address"
        }
      ],
      "name": "OwnershipTransferred",
      "type": "event"
    },
    {
      "anonymous": false,
      "inputs": [
        {
          "indexed": true,
          "internalType": "address",
          "name": "implementation",
          "type": "address"
        }
      ],
      "name": "Upgraded",
      "type": "event"
    },
    {
      "stateMutability": "payable",
      "type": "fallback"
    },
    {
      "inputs": [],
      "name": "BRIDGE",
      "outputs": [
        {
          "internalType": "address",
          "name": "",
          "type": "address"
        }
      ],
      "stateMutability": "view",
      "type": "function"
    },
    {
      "inputs": [],
      "name": "MAJOR_VERSION",
      "outputs": [
        {
          "internalType": "uint256",
          "name": "",
          "type": "uint256"
        }
      ],
      "stateMutability": "view",
      "type": "function"
    },
    {
      "inputs": [],
      "name": "MAX_ID",
      "outputs": [
        {
          "internalType": "uint256",
          "name": "",
          "type": "uint256"
        }
      ],
      "stateMutability": "view",
      "type": "function"
    },
    {
      "inputs": [],
      "name": "MINOR_VERSION",
      "outputs": [
        {
          "internalType": "uint256",
          "name": "",
          "type": "uint256"
        }
      ],
      "stateMutability": "view",
      "type": "function"
    },
    {
      "inputs": [],
      "name": "PATCH_VERSION",
      "outputs": [
        {
          "internalType": "uint256",
          "name": "",
          "type": "uint256"
        }
      ],
      "stateMutability": "view",
      "type": "function"
    },
    {
      "inputs": [],
      "name": "REMOTE_CHAIN_ID",
      "outputs": [
        {
          "internalType": "uint256",
          "name": "",
          "type": "uint256"
        }
      ],
      "stateMutability": "view",
      "type": "function"
    },
    {
      "inputs": [],
      "name": "REMOTE_TOKEN",
      "outputs": [
        {
          "internalType": "address",
          "name": "",
          "type": "address"
        }
      ],
      "stateMutability": "view",
      "type": "function"
    },
    {
      "inputs": [],
      "name": "_ERC721_RECEIVED",
      "outputs": [
        {
          "internalType": "bytes4",
          "name": "",
          "type": "bytes4"
        }
      ],
      "stateMutability": "view",
      "type": "function"
    },
    {
      "inputs": [],
      "name": "_INTERFACE_ID_ERC721",
      "outputs": [
        {
          "internalType": "bytes4",
          "name": "",
          "type": "bytes4"
        }
      ],
      "stateMutability": "view",
      "type": "function"
    },
    {
      "inputs": [],
      "name": "_INTERFACE_ID_ERC721_ENUMERABLE",
      "outputs": [
        {
          "internalType": "bytes4",
          "name": "",
          "type": "bytes4"
        }
      ],
      "stateMutability": "view",
      "type": "function"
    },
    {
      "inputs": [],
      "name": "_INTERFACE_ID_ERC721_METADATA",
      "outputs": [
        {
          "internalType": "bytes4",
          "name": "",
          "type": "bytes4"
        }
      ],
      "stateMutability": "view",
      "type": "function"
    },
    {
      "inputs": [
        {
          "internalType": "uint256",
          "name": "",
          "type": "uint256"
        }
      ],
      "name": "_allTokens",
      "outputs": [
        {
          "internalType": "uint256",
          "name": "",
          "type": "uint256"
        }
      ],
      "stateMutability": "view",
      "type": "function"
    },
    {
      "inputs": [
        {
          "internalType": "uint256",
          "name": "",
          "type": "uint256"
        }
      ],
      "name": "_allTokensIndex",
      "outputs": [
        {
          "internalType": "uint256",
          "name": "",
          "type": "uint256"
        }
      ],
      "stateMutability": "view",
      "type": "function"
    },
    {
      "inputs": [],
      "name": "_baseURI",
      "outputs": [
        {
          "internalType": "string",
          "name": "",
          "type": "string"
        }
      ],
      "stateMutability": "view",
      "type": "function"
    },
    {
      "inputs": [],
      "name": "_manager",
      "outputs": [
        {
          "internalType": "address",
          "name": "",
          "type": "address"
        }
      ],
      "stateMutability": "view",
      "type": "function"
    },
    {
      "inputs": [],
      "name": "_name",
      "outputs": [
        {
          "internalType": "string",
          "name": "",
          "type": "string"
        }
      ],
      "stateMutability": "view",
      "type": "function"
    },
    {
      "inputs": [
        {
          "internalType": "address",
          "name": "",
          "type": "address"
        },
        {
          "internalType": "address",
          "name": "",
          "type": "address"
        }
      ],
      "name": "_operatorApprovals",
      "outputs": [
        {
          "internalType": "bool",
          "name": "",
          "type": "bool"
        }
      ],
      "stateMutability": "view",
      "type": "function"
    },
    {
      "inputs": [
        {
          "internalType": "address",
          "name": "",
          "type": "address"
        },
        {
          "internalType": "uint256",
          "name": "",
          "type": "uint256"
        }
      ],
      "name": "_ownedTokens",
      "outputs": [
        {
          "internalType": "uint256",
          "name": "",
          "type": "uint256"
        }
      ],
      "stateMutability": "view",
      "type": "function"
    },
    {
      "inputs": [
        {
          "internalType": "address",
          "name": "",
          "type": "address"
        }
      ],
      "name": "_ownedTokensCount",
      "outputs": [
        {
          "internalType": "uint256",
          "name": "_value",
          "type": "uint256"
        }
      ],
      "stateMutability": "view",
      "type": "function"
    },
    {
      "inputs": [
        {
          "internalType": "uint256",
          "name": "",
          "type": "uint256"
        }
      ],
      "name": "_ownedTokensIndex",
      "outputs": [
        {
          "internalType": "uint256",
          "name": "",
          "type": "uint256"
        }
      ],
      "stateMutability": "view",
      "type": "function"
    },
    {
      "inputs": [],
      "name": "_owner",
      "outputs": [
        {
          "internalType": "address",
          "name": "",
          "type": "address"
        }
      ],
      "stateMutability": "view",
      "type": "function"
    },
    {
      "inputs": [],
      "name": "_symbol",
      "outputs": [
        {
          "internalType": "string",
          "name": "",
          "type": "string"
        }
      ],
      "stateMutability": "view",
      "type": "function"
    },
    {
      "inputs": [
        {
          "internalType": "uint256",
          "name": "",
          "type": "uint256"
        }
      ],
      "name": "_tokenApprovals",
      "outputs": [
        {
          "internalType": "address",
          "name": "",
          "type": "address"
        }
      ],
      "stateMutability": "view",
      "type": "function"
    },
    {
      "inputs": [
        {
          "internalType": "uint256",
          "name": "",
          "type": "uint256"
        }
      ],
      "name": "_tokenAttributes",
      "outputs": [
        {
          "internalType": "uint8",
          "name": "",
          "type": "uint8"
        }
      ],
      "stateMutability": "view",
      "type": "function"
    },
    {
      "inputs": [
        {
          "internalType": "uint256",
          "name": "",
          "type": "uint256"
        }
      ],
      "name": "_tokenOwner",
      "outputs": [
        {
          "internalType": "address",
          "name": "",
          "type": "address"
        }
      ],
      "stateMutability": "view",
      "type": "function"
    },
    {
      "inputs": [
        {
          "internalType": "uint256",
          "name": "",
          "type": "uint256"
        }
      ],
      "name": "_tokenURIs",
      "outputs": [
        {
          "internalType": "string",
          "name": "",
          "type": "string"
        }
      ],
      "stateMutability": "view",
      "type": "function"
    },
    {
      "inputs": [],
      "name": "implementation",
      "outputs": [
        {
          "internalType": "address",
          "name": "",
          "type": "address"
        }
      ],
      "stateMutability": "view",
      "type": "function"
    },
    {
      "inputs": [],
      "name": "pauseProxy",
      "outputs": [
        {
          "internalType": "bool",
          "name": "",
          "type": "bool"
        }
      ],
      "stateMutability": "view",
      "type": "function"
    },
    {
      "inputs": [],
      "name": "renounceManagership",
      "outputs": [],
      "stateMutability": "nonpayable",
      "type": "function"
    },
    {
      "inputs": [],
      "name": "renounceOwnership",
      "outputs": [],
      "stateMutability": "nonpayable",
      "type": "function"
    },
    {
      "inputs": [
        {
          "internalType": "bool",
          "name": "_pause",
          "type": "bool"
        }
      ],
      "name": "setProxyPause",
      "outputs": [],
      "stateMutability": "nonpayable",
      "type": "function"
    },
    {
      "inputs": [
        {
          "internalType": "bytes4",
          "name": "interfaceId",
          "type": "bytes4"
        }
      ],
      "name": "supportsInterface",
      "outputs": [
        {
          "internalType": "bool",
          "name": "",
          "type": "bool"
        }
      ],
      "stateMutability": "view",
      "type": "function"
    },
    {
      "inputs": [
        {
          "internalType": "address",
          "name": "newManager",
          "type": "address"
        }
      ],
      "name": "transferManagership",
      "outputs": [],
      "stateMutability": "nonpayable",
      "type": "function"
    },
    {
      "inputs": [
        {
          "internalType": "address",
          "name": "newOwner",
          "type": "address"
        }
      ],
      "name": "transferOwnership",
      "outputs": [],
      "stateMutability": "nonpayable",
      "type": "function"
    },
    {
      "inputs": [
        {
          "internalType": "address",
          "name": "impl",
          "type": "address"
        }
      ],
      "name": "upgradeTo",
      "outputs": [],
      "stateMutability": "nonpayable",
      "type": "function"
    },
    {
      "stateMutability": "payable",
      "type": "receive"
    }
  ],
  "transactionHash": "0x3260d152ff546d6b5bbbc8c4a2ef445f7e330c87b6c5eb2dc3ab6102edfc2cf6",
  "args": [
    "L2 Titan NFTs",
    "TITAN",
    "0x796C1f28c777b8a5851D356EBbc9DeC2ee51137F",
    "0x796C1f28c777b8a5851D356EBbc9DeC2ee51137F"
  ],
  "numDeployments": 1,
  "solcInputHash": "3eddb2d2ecb83fa06fe4be77f584852f",
  "bytecode": "0x60806040523480156200001157600080fd5b50604051620015473803806200154783398101604081905262000034916200038a565b620000466301ffc9a760e01b62000176565b6200007360017f360894a13ba1a3210667c828492db98dca3e2076cc3735a920a3ca505d382bbd62000419565b7f360894a13ba1a3210667c828492db98dca3e2076cc3735a920a3ca505d382bbc14620000a457620000a46200043f565b600780546001600160a01b038085166001600160a01b03199283161790925560088054928416929091169190911790558351620000e9906009906020870190620001fa565b508251620000ff90600a906020860190620001fa565b50620001126380ac58cd60e01b62000176565b62000124635b5e139f60e01b62000176565b6200013663780e9d6360e01b62000176565b6040516001600160a01b038316906000907f8be0079c531659141344cd1fd0a4f28419497f9722a3daafe3b4186f6b6457e0908290a35050505062000492565b6001600160e01b03198082161415620001d55760405162461bcd60e51b815260206004820152601c60248201527f4552433136353a20696e76616c696420696e7465726661636520696400000000604482015260640160405180910390fd5b6001600160e01b0319166000908152602081905260409020805460ff19166001179055565b828054620002089062000455565b90600052602060002090601f0160209004810192826200022c576000855562000277565b82601f106200024757805160ff191683800117855562000277565b8280016001018555821562000277579182015b82811115620002775782518255916020019190600101906200025a565b506200028592915062000289565b5090565b5b808211156200028557600081556001016200028a565b634e487b7160e01b600052604160045260246000fd5b600082601f830112620002c857600080fd5b81516001600160401b0380821115620002e557620002e5620002a0565b604051601f8301601f19908116603f01168101908282118183101715620003105762000310620002a0565b816040528381526020925086838588010111156200032d57600080fd5b600091505b8382101562000351578582018301518183018401529082019062000332565b83821115620003635760008385830101525b9695505050505050565b80516001600160a01b03811681146200038557600080fd5b919050565b60008060008060808587031215620003a157600080fd5b84516001600160401b0380821115620003b957600080fd5b620003c788838901620002b6565b95506020870151915080821115620003de57600080fd5b50620003ed87828801620002b6565b935050620003fe604086016200036d565b91506200040e606086016200036d565b905092959194509250565b6000828210156200043a57634e487b7160e01b600052601160045260246000fd5b500390565b634e487b7160e01b600052600160045260246000fd5b600181811c908216806200046a57607f821691505b602082108114156200048c57634e487b7160e01b600052602260045260246000fd5b50919050565b6110a580620004a26000396000f3fe6080604052600436106102385760003560e01c806394a509dd11610138578063ccc39909116100b0578063ee9a31a21161007f578063f2fde38b11610064578063f2fde38b14610712578063f663171814610732578063f786becd1461075f5761028a565b8063ee9a31a2146106d2578063f0329f6b146106f25761028a565b8063ccc3990914610647578063d28d885214610667578063dece68541461067c578063edc3bc3f146106975761028a565b8063aa5965ae11610107578063b09f1266116100ec578063b09f1266146105fc578063b2bdfa7b14610611578063c8b91531146106315761028a565b8063aa5965ae146105c1578063b01ac591146105e15761028a565b806394a509dd14610516578063a2e9b43914610531578063a72636651461055e578063a7cc01361461058b5761028a565b806363a8fd89116101cb578063743976a01161019a5780637cb00d251161017f5780637cb00d25146104ac5780637d1d0c5b146104cc57806388290adc146104e25761028a565b8063743976a014610461578063796db312146104765761028a565b806363a8fd89146104025780636bf2606a146104215780636c146d9b14610437578063715018a61461044c5761028a565b806317bac0521161020757806317bac0521461038a5780633659cfe6146103ad5780634f3c5f06146103cd5780635c60da1b146103ed5761028a565b806301ffc9a714610294578063033964be146102e35780630bb78ec11461031b57806317a3a79c146103485761028a565b3661028a5760405162461bcd60e51b815260206004820152601460248201527f63616e6e6f74207265636569766520457468657200000000000000000000000060448201526064015b60405180910390fd5b610292610775565b005b3480156102a057600080fd5b506102ce6102af366004610f08565b6001600160e01b03191660009081526020819052604090205460ff1690565b60405190151581526020015b60405180910390f35b3480156102ef57600080fd5b50600554610303906001600160a01b031681565b6040516001600160a01b0390911681526020016102da565b34801561032757600080fd5b5061033b610336366004610f39565b61083d565b6040516102da9190610f52565b34801561035457600080fd5b50610378610363366004610f39565b600c6020526000908152604090205460ff1681565b60405160ff90911681526020016102da565b34801561039657600080fd5b5061039f606481565b6040519081526020016102da565b3480156103b957600080fd5b506102926103c8366004610fc3565b6108d7565b3480156103d957600080fd5b5061039f6103e8366004610fde565b610a3c565b3480156103f957600080fd5b50610303610a6d565b34801561040e57600080fd5b506016546102ce90610100900460ff1681565b34801561042d57600080fd5b5061039f60035481565b34801561044357600080fd5b50610292610a9c565b34801561045857600080fd5b50610292610b2e565b34801561046d57600080fd5b5061033b610bbe565b34801561048257600080fd5b50610303610491366004610f39565b600e602052600090815260409020546001600160a01b031681565b3480156104b857600080fd5b506102926104c7366004611008565b610bcb565b3480156104d857600080fd5b5061039f60045481565b3480156104ee57600080fd5b506104fd630a85bd0160e11b81565b6040516001600160e01b031990911681526020016102da565b34801561052257600080fd5b506104fd635b5e139f60e01b81565b34801561053d57600080fd5b5061039f61054c366004610f39565b60136020526000908152604090205481565b34801561056a57600080fd5b5061039f610579366004610f39565b60156020526000908152604090205481565b34801561059757600080fd5b506103036105a6366004610f39565b600f602052600090815260409020546001600160a01b031681565b3480156105cd57600080fd5b5061039f6105dc366004610f39565b610c2b565b3480156105ed57600080fd5b506104fd63780e9d6360e01b81565b34801561060857600080fd5b5061033b610c4c565b34801561061d57600080fd5b50600754610303906001600160a01b031681565b34801561063d57600080fd5b5061039f60025481565b34801561065357600080fd5b50610292610662366004610fc3565b610c59565b34801561067357600080fd5b5061033b610d53565b34801561068857600080fd5b506104fd6380ac58cd60e01b81565b3480156106a357600080fd5b506102ce6106b236600461102a565b601160209081526000928352604080842090915290825290205460ff1681565b3480156106de57600080fd5b50600654610303906001600160a01b031681565b3480156106fe57600080fd5b50600854610303906001600160a01b031681565b34801561071e57600080fd5b5061029261072d366004610fc3565b610d60565b34801561073e57600080fd5b5061039f61074d366004610fc3565b60106020526000908152604090205481565b34801561076b57600080fd5b5061039f60015481565b600061079f7f360894a13ba1a3210667c828492db98dca3e2076cc3735a920a3ca505d382bbc5490565b90506001600160a01b038116158015906107c15750601654610100900460ff16155b6108195760405162461bcd60e51b815260206004820152602360248201527f45524337323150726f78793a20696d706c204f522070726f78792069732066616044820152626c736560e81b6064820152608401610281565b3660008037600080366000845af43d6000803e808015610838573d6000f35b3d6000fd5b600b60205260009081526040902080546108569061105d565b80601f01602080910402602001604051908101604052809291908181526020018280546108829061105d565b80156108cf5780601f106108a4576101008083540402835291602001916108cf565b820191906000526020600020905b8154815290600101906020018083116108b257829003601f168201915b505050505081565b6007546001600160a01b0316331461091d5760405162461bcd60e51b81526020600482015260096024820152683737ba1037bbb732b960b91b6044820152606401610281565b6001600160a01b0381166109735760405162461bcd60e51b815260206004820152601a60248201527f45524337323150726f78793a20696e707574206973207a65726f0000000000006044820152606401610281565b806001600160a01b03166109a57f360894a13ba1a3210667c828492db98dca3e2076cc3735a920a3ca505d382bbc5490565b6001600160a01b031614156109fc5760405162461bcd60e51b815260206004820152601160248201527f45524337323150726f78793a2073616d650000000000000000000000000000006044820152606401610281565b610a0581610e58565b6040516001600160a01b038216907fbc7cd75a20ee27fd9adebab32041f755214dbc6bffa90cc0225b39da2e5c2d3b90600090a250565b60126020528160005260406000208181548110610a5857600080fd5b90600052602060002001600091509150505481565b6000610a977f360894a13ba1a3210667c828492db98dca3e2076cc3735a920a3ca505d382bbc5490565b905090565b6008546001600160a01b03163314610ae45760405162461bcd60e51b815260206004820152600b60248201526a3737ba1036b0b730b3b2b960a91b6044820152606401610281565b6008546040516000916001600160a01b0316907f697e4e68d3879b0dd3414a88905117bac8f0a54b0cd8e7779f909bf1a1cf5683908390a3600880546001600160a01b0319169055565b6007546001600160a01b03163314610b745760405162461bcd60e51b81526020600482015260096024820152683737ba1037bbb732b960b91b6044820152606401610281565b6007546040516000916001600160a01b0316907f8be0079c531659141344cd1fd0a4f28419497f9722a3daafe3b4186f6b6457e0908390a3600780546001600160a01b0319169055565b600d80546108569061105d565b6007546001600160a01b03163314610c115760405162461bcd60e51b81526020600482015260096024820152683737ba1037bbb732b960b91b6044820152606401610281565b601680549115156101000261ff0019909216919091179055565b60148181548110610c3b57600080fd5b600091825260209091200154905081565b600a80546108569061105d565b6008546001600160a01b03163314610ca15760405162461bcd60e51b815260206004820152600b60248201526a3737ba1036b0b730b3b2b960a91b6044820152606401610281565b6001600160a01b038116610cf75760405162461bcd60e51b815260206004820152601f60248201527f6e6577206d616e6167657220697320746865207a65726f2061646472657373006044820152606401610281565b6008546040516001600160a01b038084169216907f697e4e68d3879b0dd3414a88905117bac8f0a54b0cd8e7779f909bf1a1cf568390600090a3600880546001600160a01b0319166001600160a01b0392909216919091179055565b600980546108569061105d565b6007546001600160a01b03163314610da65760405162461bcd60e51b81526020600482015260096024820152683737ba1037bbb732b960b91b6044820152606401610281565b6001600160a01b038116610dfc5760405162461bcd60e51b815260206004820152601d60248201527f6e6577206f776e657220697320746865207a65726f20616464726573730000006044820152606401610281565b6007546040516001600160a01b038084169216907f8be0079c531659141344cd1fd0a4f28419497f9722a3daafe3b4186f6b6457e090600090a3600780546001600160a01b0319166001600160a01b0392909216919091179055565b6001600160a01b0381163b610ee45760405162461bcd60e51b815260206004820152604660248201527f50726f7879426173653a2043616e6e6f742073657420612070726f787920696d60448201527f706c656d656e746174696f6e20746f2061206e6f6e2d636f6e7472616374206160648201526564647265737360d01b608482015260a401610281565b7f360894a13ba1a3210667c828492db98dca3e2076cc3735a920a3ca505d382bbc55565b600060208284031215610f1a57600080fd5b81356001600160e01b031981168114610f3257600080fd5b9392505050565b600060208284031215610f4b57600080fd5b5035919050565b600060208083528351808285015260005b81811015610f7f57858101830151858201604001528201610f63565b81811115610f91576000604083870101525b50601f01601f1916929092016040019392505050565b80356001600160a01b0381168114610fbe57600080fd5b919050565b600060208284031215610fd557600080fd5b610f3282610fa7565b60008060408385031215610ff157600080fd5b610ffa83610fa7565b946020939093013593505050565b60006020828403121561101a57600080fd5b81358015158114610f3257600080fd5b6000806040838503121561103d57600080fd5b61104683610fa7565b915061105460208401610fa7565b90509250929050565b600181811c9082168061107157607f821691505b6020821081141561109257634e487b7160e01b600052602260045260246000fd5b5091905056fea164736f6c6343000809000a",
  "devdoc": {
    "kind": "dev",
    "methods": {
      "constructor": {
        "details": "Initializes the contract by setting a `name` and a `symbol` to the token collection."
      },
      "implementation()": {
        "details": "returns the implementation"
      },
      "setProxyPause(bool)": {
        "params": {
          "_pause": "true:pause or false:resume"
        }
      },
      "supportsInterface(bytes4)": {
        "details": "See {IERC165-supportsInterface}. Time complexity O(1), guaranteed to always use less than 30 000 gas."
      },
      "upgradeTo(address)": {
        "params": {
          "impl": "New implementation contract address"
        }
      }
    },
    "version": 1
  },
  "userdoc": {
    "kind": "user",
    "methods": {
      "setProxyPause(bool)": {
        "notice": "Set pause state"
      },
      "upgradeTo(address)": {
        "notice": "Set implementation contract"
      }
    },
    "version": 1
  },
  "storageLayout": {
    "storage": [
      {
        "astId": 3455,
        "contract": "contracts/TitanNFTProxy.sol:TitanNFTProxy",
        "label": "_supportedInterfaces",
        "offset": 0,
        "slot": "0",
        "type": "t_mapping(t_bytes4,t_bool)"
      },
      {
        "astId": 7041,
        "contract": "contracts/TitanNFTProxy.sol:TitanNFTProxy",
        "label": "MAJOR_VERSION",
        "offset": 0,
        "slot": "1",
        "type": "t_uint256"
      },
      {
        "astId": 7043,
        "contract": "contracts/TitanNFTProxy.sol:TitanNFTProxy",
        "label": "MINOR_VERSION",
        "offset": 0,
        "slot": "2",
        "type": "t_uint256"
      },
      {
        "astId": 7045,
        "contract": "contracts/TitanNFTProxy.sol:TitanNFTProxy",
        "label": "PATCH_VERSION",
        "offset": 0,
        "slot": "3",
        "type": "t_uint256"
      },
      {
        "astId": 7047,
        "contract": "contracts/TitanNFTProxy.sol:TitanNFTProxy",
        "label": "REMOTE_CHAIN_ID",
        "offset": 0,
        "slot": "4",
        "type": "t_uint256"
      },
      {
        "astId": 7049,
        "contract": "contracts/TitanNFTProxy.sol:TitanNFTProxy",
        "label": "REMOTE_TOKEN",
        "offset": 0,
        "slot": "5",
        "type": "t_address"
      },
      {
        "astId": 7051,
        "contract": "contracts/TitanNFTProxy.sol:TitanNFTProxy",
        "label": "BRIDGE",
        "offset": 0,
        "slot": "6",
        "type": "t_address"
      },
      {
        "astId": 7053,
        "contract": "contracts/TitanNFTProxy.sol:TitanNFTProxy",
        "label": "_owner",
        "offset": 0,
        "slot": "7",
        "type": "t_address"
      },
      {
        "astId": 7055,
        "contract": "contracts/TitanNFTProxy.sol:TitanNFTProxy",
        "label": "_manager",
        "offset": 0,
        "slot": "8",
        "type": "t_address"
      },
      {
        "astId": 7057,
        "contract": "contracts/TitanNFTProxy.sol:TitanNFTProxy",
        "label": "_name",
        "offset": 0,
        "slot": "9",
        "type": "t_string_storage"
      },
      {
        "astId": 7059,
        "contract": "contracts/TitanNFTProxy.sol:TitanNFTProxy",
        "label": "_symbol",
        "offset": 0,
        "slot": "10",
        "type": "t_string_storage"
      },
      {
        "astId": 7063,
        "contract": "contracts/TitanNFTProxy.sol:TitanNFTProxy",
        "label": "_tokenURIs",
        "offset": 0,
        "slot": "11",
        "type": "t_mapping(t_uint256,t_string_storage)"
      },
      {
        "astId": 7067,
        "contract": "contracts/TitanNFTProxy.sol:TitanNFTProxy",
        "label": "_tokenAttributes",
        "offset": 0,
        "slot": "12",
        "type": "t_mapping(t_uint256,t_uint8)"
      },
      {
        "astId": 7069,
        "contract": "contracts/TitanNFTProxy.sol:TitanNFTProxy",
        "label": "_baseURI",
        "offset": 0,
        "slot": "13",
        "type": "t_string_storage"
      },
      {
        "astId": 7073,
        "contract": "contracts/TitanNFTProxy.sol:TitanNFTProxy",
        "label": "_tokenOwner",
        "offset": 0,
        "slot": "14",
        "type": "t_mapping(t_uint256,t_address)"
      },
      {
        "astId": 7077,
        "contract": "contracts/TitanNFTProxy.sol:TitanNFTProxy",
        "label": "_tokenApprovals",
        "offset": 0,
        "slot": "15",
        "type": "t_mapping(t_uint256,t_address)"
      },
      {
        "astId": 7082,
        "contract": "contracts/TitanNFTProxy.sol:TitanNFTProxy",
        "label": "_ownedTokensCount",
        "offset": 0,
        "slot": "16",
        "type": "t_mapping(t_address,t_struct(Counter)1943_storage)"
      },
      {
        "astId": 7088,
        "contract": "contracts/TitanNFTProxy.sol:TitanNFTProxy",
        "label": "_operatorApprovals",
        "offset": 0,
        "slot": "17",
        "type": "t_mapping(t_address,t_mapping(t_address,t_bool))"
      },
      {
        "astId": 7093,
        "contract": "contracts/TitanNFTProxy.sol:TitanNFTProxy",
        "label": "_ownedTokens",
        "offset": 0,
        "slot": "18",
        "type": "t_mapping(t_address,t_array(t_uint256)dyn_storage)"
      },
      {
        "astId": 7097,
        "contract": "contracts/TitanNFTProxy.sol:TitanNFTProxy",
        "label": "_ownedTokensIndex",
        "offset": 0,
        "slot": "19",
        "type": "t_mapping(t_uint256,t_uint256)"
      },
      {
        "astId": 7100,
        "contract": "contracts/TitanNFTProxy.sol:TitanNFTProxy",
        "label": "_allTokens",
        "offset": 0,
        "slot": "20",
        "type": "t_array(t_uint256)dyn_storage"
      },
      {
        "astId": 7104,
        "contract": "contracts/TitanNFTProxy.sol:TitanNFTProxy",
        "label": "_allTokensIndex",
        "offset": 0,
        "slot": "21",
        "type": "t_mapping(t_uint256,t_uint256)"
      },
      {
        "astId": 7106,
        "contract": "contracts/TitanNFTProxy.sol:TitanNFTProxy",
        "label": "_lock",
        "offset": 0,
        "slot": "22",
        "type": "t_bool"
      },
      {
        "astId": 7108,
        "contract": "contracts/TitanNFTProxy.sol:TitanNFTProxy",
        "label": "pauseProxy",
        "offset": 1,
        "slot": "22",
        "type": "t_bool"
      }
    ],
    "types": {
      "t_address": {
        "encoding": "inplace",
        "label": "address",
        "numberOfBytes": "20"
      },
      "t_array(t_uint256)dyn_storage": {
        "base": "t_uint256",
        "encoding": "dynamic_array",
        "label": "uint256[]",
        "numberOfBytes": "32"
      },
      "t_bool": {
        "encoding": "inplace",
        "label": "bool",
        "numberOfBytes": "1"
      },
      "t_bytes4": {
        "encoding": "inplace",
        "label": "bytes4",
        "numberOfBytes": "4"
      },
      "t_mapping(t_address,t_array(t_uint256)dyn_storage)": {
        "encoding": "mapping",
        "key": "t_address",
        "label": "mapping(address => uint256[])",
        "numberOfBytes": "32",
        "value": "t_array(t_uint256)dyn_storage"
      },
      "t_mapping(t_address,t_bool)": {
        "encoding": "mapping",
        "key": "t_address",
        "label": "mapping(address => bool)",
        "numberOfBytes": "32",
        "value": "t_bool"
      },
      "t_mapping(t_address,t_mapping(t_address,t_bool))": {
        "encoding": "mapping",
        "key": "t_address",
        "label": "mapping(address => mapping(address => bool))",
        "numberOfBytes": "32",
        "value": "t_mapping(t_address,t_bool)"
      },
      "t_mapping(t_address,t_struct(Counter)1943_storage)": {
        "encoding": "mapping",
        "key": "t_address",
        "label": "mapping(address => struct Counters.Counter)",
        "numberOfBytes": "32",
        "value": "t_struct(Counter)1943_storage"
      },
      "t_mapping(t_bytes4,t_bool)": {
        "encoding": "mapping",
        "key": "t_bytes4",
        "label": "mapping(bytes4 => bool)",
        "numberOfBytes": "32",
        "value": "t_bool"
      },
      "t_mapping(t_uint256,t_address)": {
        "encoding": "mapping",
        "key": "t_uint256",
        "label": "mapping(uint256 => address)",
        "numberOfBytes": "32",
        "value": "t_address"
      },
      "t_mapping(t_uint256,t_string_storage)": {
        "encoding": "mapping",
        "key": "t_uint256",
        "label": "mapping(uint256 => string)",
        "numberOfBytes": "32",
        "value": "t_string_storage"
      },
      "t_mapping(t_uint256,t_uint256)": {
        "encoding": "mapping",
        "key": "t_uint256",
        "label": "mapping(uint256 => uint256)",
        "numberOfBytes": "32",
        "value": "t_uint256"
      },
      "t_mapping(t_uint256,t_uint8)": {
        "encoding": "mapping",
        "key": "t_uint256",
        "label": "mapping(uint256 => uint8)",
        "numberOfBytes": "32",
        "value": "t_uint8"
      },
      "t_string_storage": {
        "encoding": "bytes",
        "label": "string",
        "numberOfBytes": "32"
      },
      "t_struct(Counter)1943_storage": {
        "encoding": "inplace",
        "label": "struct Counters.Counter",
        "members": [
          {
            "astId": 1942,
            "contract": "contracts/TitanNFTProxy.sol:TitanNFTProxy",
            "label": "_value",
            "offset": 0,
            "slot": "0",
            "type": "t_uint256"
          }
        ],
        "numberOfBytes": "32"
      },
      "t_uint256": {
        "encoding": "inplace",
        "label": "uint256",
        "numberOfBytes": "32"
      },
      "t_uint8": {
        "encoding": "inplace",
        "label": "uint8",
        "numberOfBytes": "1"
      }
    }
  }
}