{
  "address": "0xc1653aD979A6EF03719c1d9C46FcFf10A52CFE36",
  "abi": [
    {
      "inputs": [
        {
          "internalType": "address",
          "name": "_admin",
          "type": "address"
        }
      ],
      "stateMutability": "nonpayable",
      "type": "constructor"
    },
    {
      "anonymous": false,
      "inputs": [
        {
          "indexed": false,
          "internalType": "address",
          "name": "previousAdmin",
          "type": "address"
        },
        {
          "indexed": false,
          "internalType": "address",
          "name": "newAdmin",
          "type": "address"
        }
      ],
      "name": "AdminChanged",
      "type": "event"
    },
    {
      "anonymous": false,
      "inputs": [
        {
          "indexed": true,
          "internalType": "address",
          "name": "implementation",
          "type": "address"
        }
      ],
      "name": "Upgraded",
      "type": "event"
    },
    {
      "stateMutability": "payable",
      "type": "fallback"
    },
    {
      "inputs": [],
      "name": "MAJOR_VERSION",
      "outputs": [
        {
          "internalType": "uint256",
          "name": "",
          "type": "uint256"
        }
      ],
      "stateMutability": "view",
      "type": "function"
    },
    {
      "inputs": [],
      "name": "MESSENGER",
      "outputs": [
        {
          "internalType": "address",
          "name": "",
          "type": "address"
        }
      ],
      "stateMutability": "view",
      "type": "function"
    },
    {
      "inputs": [],
      "name": "MINOR_VERSION",
      "outputs": [
        {
          "internalType": "uint256",
          "name": "",
          "type": "uint256"
        }
      ],
      "stateMutability": "view",
      "type": "function"
    },
    {
      "inputs": [],
      "name": "OTHER_BRIDGE",
      "outputs": [
        {
          "internalType": "address",
          "name": "",
          "type": "address"
        }
      ],
      "stateMutability": "view",
      "type": "function"
    },
    {
      "inputs": [],
      "name": "PATCH_VERSION",
      "outputs": [
        {
          "internalType": "uint256",
          "name": "",
          "type": "uint256"
        }
      ],
      "stateMutability": "view",
      "type": "function"
    },
    {
      "inputs": [
        {
          "internalType": "uint256",
          "name": "",
          "type": "uint256"
        }
      ],
      "name": "__gap",
      "outputs": [
        {
          "internalType": "uint256",
          "name": "",
          "type": "uint256"
        }
      ],
      "stateMutability": "view",
      "type": "function"
    },
    {
      "inputs": [],
      "name": "admin",
      "outputs": [
        {
          "internalType": "address",
          "name": "",
          "type": "address"
        }
      ],
      "stateMutability": "view",
      "type": "function"
    },
    {
      "inputs": [
        {
          "internalType": "address",
          "name": "_admin",
          "type": "address"
        }
      ],
      "name": "changeAdmin",
      "outputs": [],
      "stateMutability": "nonpayable",
      "type": "function"
    },
    {
      "inputs": [],
      "name": "implementation",
      "outputs": [
        {
          "internalType": "address",
          "name": "",
          "type": "address"
        }
      ],
      "stateMutability": "view",
      "type": "function"
    },
    {
      "inputs": [],
      "name": "owner",
      "outputs": [
        {
          "internalType": "address",
          "name": "",
          "type": "address"
        }
      ],
      "stateMutability": "nonpayable",
      "type": "function"
    },
    {
      "inputs": [
        {
          "internalType": "address",
          "name": "newOwner",
          "type": "address"
        }
      ],
      "name": "transferOwnership",
      "outputs": [],
      "stateMutability": "nonpayable",
      "type": "function"
    },
    {
      "inputs": [
        {
          "internalType": "address",
          "name": "_implementation",
          "type": "address"
        }
      ],
      "name": "upgradeTo",
      "outputs": [],
      "stateMutability": "nonpayable",
      "type": "function"
    },
    {
      "inputs": [
        {
          "internalType": "address",
          "name": "_implementation",
          "type": "address"
        },
        {
          "internalType": "bytes",
          "name": "_data",
          "type": "bytes"
        }
      ],
      "name": "upgradeToAndCall",
      "outputs": [
        {
          "internalType": "bytes",
          "name": "",
          "type": "bytes"
        }
      ],
      "stateMutability": "payable",
      "type": "function"
    },
    {
      "stateMutability": "payable",
      "type": "receive"
    }
  ],
  "transactionHash": "0xcd52e002c71b38c2448ab177eb0045431ee2e2510a2b30634dfd48ad3739e589",
  "args": [
    "0xc1eba383D94c6021160042491A5dfaF1d82694E6"
  ],
  "numDeployments": 1,
  "solcInputHash": "cc545a704aed2df5fe19a22cc7394bc2",
  "bytecode": "0x608060405234801561001057600080fd5b5060405161099838038061099883398101604081905261002f916100b4565b8061003981610040565b50506100e4565b60006100586000805160206109788339815191525490565b600080516020610978833981519152839055604080516001600160a01b038084168252851660208201529192507f7e644d79422f17c01e4894b5f4f588d331ebfa28653d42ae832dc59e38c9798f910160405180910390a15050565b6000602082840312156100c657600080fd5b81516001600160a01b03811681146100dd57600080fd5b9392505050565b610885806100f36000396000f3fe6080604052600436106100d65760003560e01c80638da5cb5b1161007f578063c8b9153111610059578063c8b915311461021c578063f2fde38b14610232578063f786becd14610252578063f851a440146101c7576100e5565b80638da5cb5b146101c75780638f283970146101dc578063927ede2d146101fc576100e5565b80636bf2606a116100b05780636bf2606a146101635780637f46ddb21461018757806381ee745b146101a7576100e5565b80633659cfe6146100ed5780634f1ef2861461010d5780635c60da1b14610136576100e5565b366100e5576100e3610268565b005b6100e3610268565b3480156100f957600080fd5b506100e3610108366004610755565b610320565b61012061011b366004610777565b61039a565b60405161012d91906107fa565b60405180910390f35b34801561014257600080fd5b5061014b6104f7565b6040516001600160a01b03909116815260200161012d565b34801561016f57600080fd5b5061017960355481565b60405190815260200161012d565b34801561019357600080fd5b5060015461014b906001600160a01b031681565b3480156101b357600080fd5b506101796101c236600461084f565b610526565b3480156101d357600080fd5b5061014b61053d565b3480156101e857600080fd5b506100e36101f7366004610755565b610567565b34801561020857600080fd5b5060005461014b906001600160a01b031681565b34801561022857600080fd5b5061017960345481565b34801561023e57600080fd5b506100e361024d366004610755565b6105de565b34801561025e57600080fd5b5061017960335481565b60006102927f360894a13ba1a3210667c828492db98dca3e2076cc3735a920a3ca505d382bbc5490565b90506001600160a01b0381166102fd5760405162461bcd60e51b815260206004820152602560248201527f50726f78793a20696d706c656d656e746174696f6e206e6f7420696e697469616044820152641b1a5e995960da1b60648201526084015b60405180910390fd5b3660008037600080366000845af43d6000803e8061031a573d6000fd5b503d6000f35b7fb53127684a568b3173ae13b9f8a6016e243e63b6e8ee1178d6a717850b5d6103546001600160a01b0316336001600160a01b03161461038e5760405162461bcd60e51b81526020600482015260096024820152683737ba1030b236b4b760b91b60448201526064016102f4565b61039781610646565b50565b60606103c47fb53127684a568b3173ae13b9f8a6016e243e63b6e8ee1178d6a717850b5d61035490565b6001600160a01b0316336001600160a01b0316146104105760405162461bcd60e51b81526020600482015260096024820152683737ba1030b236b4b760b91b60448201526064016102f4565b61041984610646565b600080856001600160a01b03168585604051610436929190610868565b600060405180830381855af49150503d8060008114610471576040519150601f19603f3d011682016040523d82523d6000602084013e610476565b606091505b5091509150816104ee5760405162461bcd60e51b815260206004820152603960248201527f50726f78793a2064656c656761746563616c6c20746f206e657720696d706c6560448201527f6d656e746174696f6e20636f6e7472616374206661696c65640000000000000060648201526084016102f4565b95945050505050565b60006105217f360894a13ba1a3210667c828492db98dca3e2076cc3735a920a3ca505d382bbc5490565b905090565b6002816031811061053657600080fd5b0154905081565b60006105217fb53127684a568b3173ae13b9f8a6016e243e63b6e8ee1178d6a717850b5d61035490565b7fb53127684a568b3173ae13b9f8a6016e243e63b6e8ee1178d6a717850b5d6103546001600160a01b0316336001600160a01b0316146105d55760405162461bcd60e51b81526020600482015260096024820152683737ba1030b236b4b760b91b60448201526064016102f4565b610397816106a1565b6105e661053d565b6001600160a01b0316336001600160a01b0316146105d55760405162461bcd60e51b815260206004820152601360248201527f73656e646572206973206e6f742061646d696e0000000000000000000000000060448201526064016102f4565b7f360894a13ba1a3210667c828492db98dca3e2076cc3735a920a3ca505d382bbc8190556040516001600160a01b038216907fbc7cd75a20ee27fd9adebab32041f755214dbc6bffa90cc0225b39da2e5c2d3b90600090a250565b60006106cb7fb53127684a568b3173ae13b9f8a6016e243e63b6e8ee1178d6a717850b5d61035490565b7fb53127684a568b3173ae13b9f8a6016e243e63b6e8ee1178d6a717850b5d6103839055604080516001600160a01b038084168252851660208201529192507f7e644d79422f17c01e4894b5f4f588d331ebfa28653d42ae832dc59e38c9798f910160405180910390a15050565b80356001600160a01b038116811461075057600080fd5b919050565b60006020828403121561076757600080fd5b61077082610739565b9392505050565b60008060006040848603121561078c57600080fd5b61079584610739565b9250602084013567ffffffffffffffff808211156107b257600080fd5b818601915086601f8301126107c657600080fd5b8135818111156107d557600080fd5b8760208285010111156107e757600080fd5b6020830194508093505050509250925092565b600060208083528351808285015260005b818110156108275785810183015185820160400152820161080b565b81811115610839576000604083870101525b50601f01601f1916929092016040019392505050565b60006020828403121561086157600080fd5b5035919050565b818382376000910190815291905056fea164736f6c6343000809000ab53127684a568b3173ae13b9f8a6016e243e63b6e8ee1178d6a717850b5d6103",
  "devdoc": {
    "kind": "dev",
    "methods": {
      "admin()": {
        "returns": {
          "_0": "Owner address."
        }
      },
      "changeAdmin(address)": {
        "params": {
          "_admin": "New owner of the proxy contract."
        }
      },
      "implementation()": {
        "returns": {
          "_0": "Implementation address."
        }
      },
      "upgradeTo(address)": {
        "params": {
          "_implementation": "Address of the implementation contract."
        }
      },
      "upgradeToAndCall(address,bytes)": {
        "params": {
          "_data": "Calldata to delegatecall the new implementation with.",
          "_implementation": "Address of the implementation contract."
        }
      }
    },
    "version": 1
  },
  "userdoc": {
    "events": {
      "AdminChanged(address,address)": {
        "notice": "An event that is emitted each time the owner is upgraded. This event is part of the         EIP-1967 specification."
      },
      "Upgraded(address)": {
        "notice": "An event that is emitted each time the implementation is changed. This event is part         of the EIP-1967 specification."
      }
    },
    "kind": "user",
    "methods": {
      "MAJOR_VERSION()": {
        "notice": "Contract version number (major)."
      },
      "MESSENGER()": {
        "notice": "Messenger contract on this domain. (CrossDomainMessenger)"
      },
      "MINOR_VERSION()": {
        "notice": "Contract version number (minor)."
      },
      "OTHER_BRIDGE()": {
        "notice": "Address of the bridge on the other network."
      },
      "PATCH_VERSION()": {
        "notice": "Contract version number (patch)."
      },
      "__gap(uint256)": {
        "notice": "Reserve extra slots (to a total of 50) in the storage layout for future upgrades."
      },
      "admin()": {
        "notice": "Gets the owner of the proxy contract."
      },
      "changeAdmin(address)": {
        "notice": "Changes the owner of the proxy contract. Only callable by the owner."
      },
      "implementation()": {
        "notice": "Queries the implementation address."
      },
      "upgradeTo(address)": {
        "notice": "Set the implementation contract address. The code at the given address will execute         when this contract is called."
      },
      "upgradeToAndCall(address,bytes)": {
        "notice": "Set the implementation and call a function in a single transaction. Useful to ensure         atomic execution of initialization-based upgrades."
      }
    },
    "version": 1
  },
  "storageLayout": {
    "storage": [
      {
        "astId": 56,
        "contract": "contracts/L1/L1ERC721BridgeProxy.sol:L1ERC721BridgeProxy",
        "label": "MESSENGER",
        "offset": 0,
        "slot": "0",
        "type": "t_address"
      },
      {
        "astId": 59,
        "contract": "contracts/L1/L1ERC721BridgeProxy.sol:L1ERC721BridgeProxy",
        "label": "OTHER_BRIDGE",
        "offset": 0,
        "slot": "1",
        "type": "t_address"
      },
      {
        "astId": 64,
        "contract": "contracts/L1/L1ERC721BridgeProxy.sol:L1ERC721BridgeProxy",
        "label": "__gap",
        "offset": 0,
        "slot": "2",
        "type": "t_array(t_uint256)49_storage"
      },
      {
        "astId": 67,
        "contract": "contracts/L1/L1ERC721BridgeProxy.sol:L1ERC721BridgeProxy",
        "label": "MAJOR_VERSION",
        "offset": 0,
        "slot": "51",
        "type": "t_uint256"
      },
      {
        "astId": 70,
        "contract": "contracts/L1/L1ERC721BridgeProxy.sol:L1ERC721BridgeProxy",
        "label": "MINOR_VERSION",
        "offset": 0,
        "slot": "52",
        "type": "t_uint256"
      },
      {
        "astId": 73,
        "contract": "contracts/L1/L1ERC721BridgeProxy.sol:L1ERC721BridgeProxy",
        "label": "PATCH_VERSION",
        "offset": 0,
        "slot": "53",
        "type": "t_uint256"
      }
    ],
    "types": {
      "t_address": {
        "encoding": "inplace",
        "label": "address",
        "numberOfBytes": "20"
      },
      "t_array(t_uint256)49_storage": {
        "base": "t_uint256",
        "encoding": "inplace",
        "label": "uint256[49]",
        "numberOfBytes": "1568"
      },
      "t_uint256": {
        "encoding": "inplace",
        "label": "uint256",
        "numberOfBytes": "32"
      }
    }
  }
}