{
  "address": "0x26C3C2620c511444b5C9c213d2Da9e5fAc451Edf",
  "abi": [
    {
      "inputs": [
        {
          "internalType": "address",
          "name": "_bridge",
          "type": "address"
        },
        {
          "internalType": "uint256",
          "name": "_remoteChainId",
          "type": "uint256"
        }
      ],
      "stateMutability": "nonpayable",
      "type": "constructor"
    },
    {
      "anonymous": false,
      "inputs": [
        {
          "indexed": true,
          "internalType": "address",
          "name": "localToken",
          "type": "address"
        },
        {
          "indexed": true,
          "internalType": "address",
          "name": "remoteToken",
          "type": "address"
        },
        {
          "indexed": false,
          "internalType": "address",
          "name": "deployer",
          "type": "address"
        }
      ],
      "name": "OptimismMintableERC721Created",
      "type": "event"
    },
    {
      "inputs": [],
      "name": "BRIDGE",
      "outputs": [
        {
          "internalType": "address",
          "name": "",
          "type": "address"
        }
      ],
      "stateMutability": "view",
      "type": "function"
    },
    {
      "inputs": [],
      "name": "REMOTE_CHAIN_ID",
      "outputs": [
        {
          "internalType": "uint256",
          "name": "",
          "type": "uint256"
        }
      ],
      "stateMutability": "view",
      "type": "function"
    },
    {
      "inputs": [
        {
          "internalType": "address",
          "name": "_remoteToken",
          "type": "address"
        },
        {
          "internalType": "string",
          "name": "_name",
          "type": "string"
        },
        {
          "internalType": "string",
          "name": "_symbol",
          "type": "string"
        }
      ],
      "name": "createOptimismMintableERC721",
      "outputs": [
        {
          "internalType": "address",
          "name": "",
          "type": "address"
        }
      ],
      "stateMutability": "nonpayable",
      "type": "function"
    },
    {
      "inputs": [
        {
          "internalType": "address",
          "name": "",
          "type": "address"
        }
      ],
      "name": "isOptimismMintableERC721",
      "outputs": [
        {
          "internalType": "bool",
          "name": "",
          "type": "bool"
        }
      ],
      "stateMutability": "view",
      "type": "function"
    },
    {
      "inputs": [],
      "name": "version",
      "outputs": [
        {
          "internalType": "string",
          "name": "",
          "type": "string"
        }
      ],
      "stateMutability": "view",
      "type": "function"
    }
  ],
  "transactionHash": "0x28840e35986f12c13ebc00fde3dc03b56dc007ed2b04445e2f57423d01a3d696",
  "args": [
    "0xc1653aD979A6EF03719c1d9C46FcFf10A52CFE36",
    5050
  ],
  "numDeployments": 1,
  "solcInputHash": "545c79893d683f412058b70394a7a6f1",
  "bytecode": "0x61012060405234801561001157600080fd5b5060405161374238038061374283398101604081905261003091610056565b6001608052600260a052600060c0526001600160a01b0390911660e05261010052610090565b6000806040838503121561006957600080fd5b82516001600160a01b038116811461008057600080fd5b6020939093015192949293505050565b60805160a05160c05160e051610100516136616100e16000396000818160d301526102bd01526000818161013a015261029c015260006101ba0152600061018f0152600061016401526136616000f3fe60806040523480156200001157600080fd5b50600436106200006f5760003560e01c80637d1d0c5b11620000565780637d1d0c5b14620000cd578063d97df6521462000104578063ee9a31a2146200013457600080fd5b806354fd4d5014620000745780635572acae1462000096575b600080fd5b6200007e6200015c565b6040516200008d919062000651565b60405180910390f35b620000bc620000a73660046200068a565b60006020819052908152604090205460ff1681565b60405190151581526020016200008d565b620000f57f000000000000000000000000000000000000000000000000000000000000000081565b6040519081526020016200008d565b6200011b6200011536600462000753565b62000207565b6040516001600160a01b0390911681526020016200008d565b6200011b7f000000000000000000000000000000000000000000000000000000000000000081565b6060620001897f0000000000000000000000000000000000000000000000000000000000000000620003c2565b620001b47f0000000000000000000000000000000000000000000000000000000000000000620003c2565b620001df7f0000000000000000000000000000000000000000000000000000000000000000620003c2565b604051602001620001f393929190620007d0565b604051602081830303815290604052905090565b60006001600160a01b038416620002985760405162461bcd60e51b8152602060048201526044602482018190527f4f7074696d69736d4d696e7461626c65455243373231466163746f72793a204c908201527f3120746f6b656e20616464726573732063616e6e6f74206265206164647265736064820152637328302960e01b608482015260a40160405180910390fd5b60007f00000000000000000000000000000000000000000000000000000000000000007f000000000000000000000000000000000000000000000000000000000000000086868633604051620002ee90620005e2565b620002ff9695949392919062000830565b604051809103906000f0801580156200031c573d6000803e3d6000fd5b509050620003606040518060400160405280601781526020017f637265617465206c6f63616c20746f6b656e204c313a200000000000000000008152508262000475565b6001600160a01b0381811660008181526020818152604091829020805460ff191660011790559051338152928816927fe72783bb8e0ca31286b85278da59684dd814df9762a52f0837f89edd1483b299910160405180910390a3949350505050565b60606000620003d183620004d7565b600101905060008167ffffffffffffffff811115620003f457620003f4620006a8565b6040519080825280601f01601f1916602001820160405280156200041f576020820181803683370190505b5090508181016020015b600019017f3031323334353637383961626364656600000000000000000000000000000000600a86061a8153600a850494508462000467576200046d565b62000429565b509392505050565b620004d382826040516024016200048e9291906200088e565b60408051601f198184030181529190526020810180517bffffffffffffffffffffffffffffffffffffffffffffffffffffffff1663319af33360e01b179052620005c1565b5050565b6000807a184f03e93ff9f4daa797ed6e38ed64bf6a1f010000000000000000831062000521577a184f03e93ff9f4daa797ed6e38ed64bf6a1f010000000000000000830492506040015b6d04ee2d6d415b85acef810000000083106200054e576d04ee2d6d415b85acef8100000000830492506020015b662386f26fc1000083106200056d57662386f26fc10000830492506010015b6305f5e100831062000586576305f5e100830492506008015b61271083106200059b57612710830492506004015b60648310620005ae576064830492506002015b600a8310620005bb576001015b92915050565b60006a636f6e736f6c652e6c6f679050600080835160208501845afa505050565b612d9980620008bc83390190565b60005b838110156200060d578181015183820152602001620005f3565b838111156200061d576000848401525b50505050565b600081518084526200063d816020860160208601620005f0565b601f01601f19169290920160200192915050565b60208152600062000666602083018462000623565b9392505050565b80356001600160a01b03811681146200068557600080fd5b919050565b6000602082840312156200069d57600080fd5b62000666826200066d565b634e487b7160e01b600052604160045260246000fd5b600082601f830112620006d057600080fd5b813567ffffffffffffffff80821115620006ee57620006ee620006a8565b604051601f8301601f19908116603f01168101908282118183101715620007195762000719620006a8565b816040528381528660208588010111156200073357600080fd5b836020870160208301376000602085830101528094505050505092915050565b6000806000606084860312156200076957600080fd5b62000774846200066d565b9250602084013567ffffffffffffffff808211156200079257600080fd5b620007a087838801620006be565b93506040860135915080821115620007b757600080fd5b50620007c686828701620006be565b9150509250925092565b60008451620007e4818460208901620005f0565b8083019050601760f91b808252855162000806816001850160208a01620005f0565b6001920191820152835162000823816002840160208801620005f0565b0160020195945050505050565b60006001600160a01b038089168352876020840152808716604084015260c060608401526200086360c084018762000623565b838103608085015262000877818762000623565b92505080841660a084015250979650505050505050565b604081526000620008a3604083018562000623565b90506001600160a01b0383166020830152939250505056fe6101406040523480156200001257600080fd5b5060405162002d9938038062002d9983398101604081905262000035916200078f565b60018060008585816000908051906020019062000054929190620005f2565b5080516200006a906001906020840190620005f2565b50505060809290925260a05260c0526001600160a01b038616620000fb5760405162461bcd60e51b815260206004820152603360248201527f4f7074696d69736d4d696e7461626c654552433732313a20627269646765206360448201527f616e6e6f7420626520616464726573732830290000000000000000000000000060648201526084015b60405180910390fd5b84620001705760405162461bcd60e51b815260206004820152603660248201527f4f7074696d69736d4d696e7461626c654552433732313a2072656d6f7465206360448201527f6861696e2069642063616e6e6f74206265207a65726f000000000000000000006064820152608401620000f2565b6001600160a01b038416620001ee5760405162461bcd60e51b815260206004820152603960248201527f4f7074696d69736d4d696e7461626c654552433732313a2072656d6f7465207460448201527f6f6b656e2063616e6e6f742062652061646472657373283029000000000000006064820152608401620000f2565b60e08590526001600160a01b0384811661010081905287821661012052600b80546001600160a01b031916928416929092179091556200023c90601462000298602090811b62000e4d17901c565b62000252866200045860201b62000fe91760201c565b604051602001620002659291906200083a565b604051602081830303815290604052600a90805190602001906200028b929190620005f2565b505050505050506200096b565b60606000620002a9836002620008c1565b620002b6906002620008e3565b6001600160401b03811115620002d057620002d0620006b5565b6040519080825280601f01601f191660200182016040528015620002fb576020820181803683370190505b509050600360fc1b81600081518110620003195762000319620008fe565b60200101906001600160f81b031916908160001a905350600f60fb1b816001815181106200034b576200034b620008fe565b60200101906001600160f81b031916908160001a905350600062000371846002620008c1565b6200037e906001620008e3565b90505b600181111562000400576f181899199a1a9b1b9c1cb0b131b232b360811b85600f1660108110620003b657620003b6620008fe565b1a60f81b828281518110620003cf57620003cf620008fe565b60200101906001600160f81b031916908160001a90535060049490941c93620003f88162000914565b905062000381565b508315620004515760405162461bcd60e51b815260206004820181905260248201527f537472696e67733a20686578206c656e67746820696e73756666696369656e746044820152606401620000f2565b9392505050565b6060600062000472836200050860201b620010861760201c565b60010190506000816001600160401b03811115620004945762000494620006b5565b6040519080825280601f01601f191660200182016040528015620004bf576020820181803683370190505b5090508181016020015b600019016f181899199a1a9b1b9c1cb0b131b232b360811b600a86061a8153600a8504945084620004fa5762000500565b620004c9565b509392505050565b6000807a184f03e93ff9f4daa797ed6e38ed64bf6a1f010000000000000000831062000552577a184f03e93ff9f4daa797ed6e38ed64bf6a1f010000000000000000830492506040015b6d04ee2d6d415b85acef810000000083106200057f576d04ee2d6d415b85acef8100000000830492506020015b662386f26fc1000083106200059e57662386f26fc10000830492506010015b6305f5e1008310620005b7576305f5e100830492506008015b6127108310620005cc57612710830492506004015b60648310620005df576064830492506002015b600a8310620005ec576001015b92915050565b82805462000600906200092e565b90600052602060002090601f0160209004810192826200062457600085556200066f565b82601f106200063f57805160ff19168380011785556200066f565b828001600101855582156200066f579182015b828111156200066f57825182559160200191906001019062000652565b506200067d92915062000681565b5090565b5b808211156200067d576000815560010162000682565b80516001600160a01b0381168114620006b057600080fd5b919050565b634e487b7160e01b600052604160045260246000fd5b60005b83811015620006e8578181015183820152602001620006ce565b83811115620006f8576000848401525b50505050565b600082601f8301126200071057600080fd5b81516001600160401b03808211156200072d576200072d620006b5565b604051601f8301601f19908116603f01168101908282118183101715620007585762000758620006b5565b816040528381528660208588010111156200077257600080fd5b62000785846020830160208901620006cb565b9695505050505050565b60008060008060008060c08789031215620007a957600080fd5b620007b48762000698565b955060208701519450620007cb6040880162000698565b60608801519094506001600160401b0380821115620007e957600080fd5b620007f78a838b01620006fe565b945060808901519150808211156200080e57600080fd5b506200081d89828a01620006fe565b9250506200082e60a0880162000698565b90509295509295509295565b653a34ba30b71d60d11b8152600083516200085d816006850160208801620006cb565b600160fe1b600691840191820152835162000880816007840160208801620006cb565b712f746f6b656e5552493f75696e743235363d60701b60079290910191820152601901949350505050565b634e487b7160e01b600052601160045260246000fd5b6000816000190483118215151615620008de57620008de620008ab565b500290565b60008219821115620008f957620008f9620008ab565b500190565b634e487b7160e01b600052603260045260246000fd5b600081620009265762000926620008ab565b506000190190565b600181811c908216806200094357607f821691505b602082108114156200096557634e487b7160e01b600052602260045260246000fd5b50919050565b60805160a05160c05160e05161010051610120516123bb620009de6000396000818161040c0152818161049701528181610a900152610b7e01526000818161021701526103e6015260008181610342015261043201526000610904015260006108db015260006108b201526123bb6000f3fe608060405234801561001057600080fd5b50600436106101e55760003560e01c8063715018a61161010f578063c87b56dd116100a2578063e951819611610071578063e951819614610430578063e985e9c514610456578063ee9a31a214610492578063f2fde38b146104b957600080fd5b8063c87b56dd146103c9578063d547cfb7146103dc578063d6c0b2c4146103e4578063e78cea921461040a57600080fd5b80639dc29fac116100de5780639dc29fac1461037d578063a144819414610390578063a22cb465146103a3578063b88d4fde146103b657600080fd5b8063715018a6146103355780637d1d0c5b1461033d5780638da5cb5b1461036457806395d89b411461037557600080fd5b80632f745c591161018757806355f804b31161015657806355f804b3146102f45780636352211e146103075780636c0360eb1461031a57806370a082311461032257600080fd5b80632f745c59146102b357806342842e0e146102c65780634f6ccce7146102d957806354fd4d50146102ec57600080fd5b8063081812fc116101c3578063081812fc14610266578063095ea7b31461027957806318160ddd1461028e57806323b872dd146102a057600080fd5b806301ffc9a7146101ea578063033964be1461021257806306fdde0314610251575b600080fd5b6101fd6101f8366004611eec565b6104cc565b60405190151581526020015b60405180910390f35b6102397f000000000000000000000000000000000000000000000000000000000000000081565b6040516001600160a01b039091168152602001610209565b6102596104f9565b6040516102099190611f61565b610239610274366004611f74565b61058b565b61028c610287366004611fa9565b6105b2565b005b6008545b604051908152602001610209565b61028c6102ae366004611fd3565b6106cd565b6102926102c1366004611fa9565b610744565b61028c6102d4366004611fd3565b6107ec565b6102926102e7366004611f74565b610807565b6102596108ab565b61028c61030236600461209b565b61094e565b610239610315366004611f74565b610962565b6102596109cd565b6102926103303660046120e4565b6109dc565b61028c610a62565b6102927f000000000000000000000000000000000000000000000000000000000000000081565b600b546001600160a01b0316610239565b610259610a76565b61028c61038b366004611fa9565b610a85565b61028c61039e366004611fa9565b610b73565b61028c6103b13660046120ff565b610c56565b61028c6103c436600461213b565b610c65565b6102596103d7366004611f74565b610ce3565b610259610d49565b7f0000000000000000000000000000000000000000000000000000000000000000610239565b7f0000000000000000000000000000000000000000000000000000000000000000610239565b7f0000000000000000000000000000000000000000000000000000000000000000610292565b6101fd6104643660046121b7565b6001600160a01b03918216600090815260056020908152604080832093909416825291909152205460ff1690565b6102397f000000000000000000000000000000000000000000000000000000000000000081565b61028c6104c73660046120e4565b610dd7565b60006374259ebf60e01b6001600160e01b031983168114806104f257506104f283611168565b9392505050565b606060008054610508906121ea565b80601f0160208091040260200160405190810160405280929190818152602001828054610534906121ea565b80156105815780601f1061055657610100808354040283529160200191610581565b820191906000526020600020905b81548152906001019060200180831161056457829003601f168201915b5050505050905090565b60006105968261118d565b506000908152600460205260409020546001600160a01b031690565b60006105bd82610962565b9050806001600160a01b0316836001600160a01b031614156106305760405162461bcd60e51b815260206004820152602160248201527f4552433732313a20617070726f76616c20746f2063757272656e74206f776e656044820152603960f91b60648201526084015b60405180910390fd5b336001600160a01b038216148061064c575061064c8133610464565b6106be5760405162461bcd60e51b815260206004820152603d60248201527f4552433732313a20617070726f76652063616c6c6572206973206e6f7420746f60448201527f6b656e206f776e6572206f7220617070726f76656420666f7220616c6c0000006064820152608401610627565b6106c883836111f1565b505050565b6106d7338261125f565b6107395760405162461bcd60e51b815260206004820152602d60248201527f4552433732313a2063616c6c6572206973206e6f7420746f6b656e206f776e6560448201526c1c881bdc88185c1c1c9bdd9959609a1b6064820152608401610627565b6106c88383836112de565b600061074f836109dc565b82106107c35760405162461bcd60e51b815260206004820152602b60248201527f455243373231456e756d657261626c653a206f776e657220696e646578206f7560448201527f74206f6620626f756e64730000000000000000000000000000000000000000006064820152608401610627565b506001600160a01b03919091166000908152600660209081526040808320938352929052205490565b6106c883838360405180602001604052806000815250610c65565b600061081260085490565b82106108865760405162461bcd60e51b815260206004820152602c60248201527f455243373231456e756d657261626c653a20676c6f62616c20696e646578206f60448201527f7574206f6620626f756e647300000000000000000000000000000000000000006064820152608401610627565b6008828154811061089957610899612225565b90600052602060002001549050919050565b60606108d67f0000000000000000000000000000000000000000000000000000000000000000610fe9565b6108ff7f0000000000000000000000000000000000000000000000000000000000000000610fe9565b6109287f0000000000000000000000000000000000000000000000000000000000000000610fe9565b60405160200161093a9392919061223b565b604051602081830303815290604052905090565b6109566114cb565b61095f81611534565b50565b6000818152600260205260408120546001600160a01b0316806109c75760405162461bcd60e51b815260206004820152601860248201527f4552433732313a20696e76616c696420746f6b656e20494400000000000000006044820152606401610627565b92915050565b60606109d7611547565b905090565b60006001600160a01b038216610a465760405162461bcd60e51b815260206004820152602960248201527f4552433732313a2061646472657373207a65726f206973206e6f7420612076616044820152683634b21037bbb732b960b91b6064820152608401610627565b506001600160a01b031660009081526003602052604090205490565b610a6a6114cb565b610a746000611556565b565b606060018054610508906121ea565b336001600160a01b037f00000000000000000000000000000000000000000000000000000000000000001614610b235760405162461bcd60e51b815260206004820152603a60248201527f4f7074696d69736d4d696e7461626c654552433732313a206f6e6c792062726960448201527f6467652063616e2063616c6c20746869732066756e6374696f6e0000000000006064820152608401610627565b610b2c816115a8565b816001600160a01b03167fcc16f5dbb4873280815c1ee09dbd06736cffcc184412cf7a71a0fdb75d397ca582604051610b6791815260200190565b60405180910390a25050565b336001600160a01b037f00000000000000000000000000000000000000000000000000000000000000001614610c115760405162461bcd60e51b815260206004820152603a60248201527f4f7074696d69736d4d696e7461626c654552433732313a206f6e6c792062726960448201527f6467652063616e2063616c6c20746869732066756e6374696f6e0000000000006064820152608401610627565b610c1b828261164b565b816001600160a01b03167f0f6798a560793a54c3bcfe86a93cde1e73087d944c0ea20544137d412139688582604051610b6791815260200190565b610c61338383611665565b5050565b610c6f338361125f565b610cd15760405162461bcd60e51b815260206004820152602d60248201527f4552433732313a2063616c6c6572206973206e6f7420746f6b656e206f776e6560448201526c1c881bdc88185c1c1c9bdd9959609a1b6064820152608401610627565b610cdd84848484611734565b50505050565b6060610cee8261118d565b6000610cf8611547565b90506000815111610d1857604051806020016040528060008152506104f2565b80610d2284610fe9565b604051602001610d33929190612295565b6040516020818303038152906040529392505050565b600a8054610d56906121ea565b80601f0160208091040260200160405190810160405280929190818152602001828054610d82906121ea565b8015610dcf5780601f10610da457610100808354040283529160200191610dcf565b820191906000526020600020905b815481529060010190602001808311610db257829003601f168201915b505050505081565b610ddf6114cb565b6001600160a01b038116610e445760405162461bcd60e51b815260206004820152602660248201527f4f776e61626c653a206e6577206f776e657220697320746865207a65726f206160448201526564647265737360d01b6064820152608401610627565b61095f81611556565b60606000610e5c8360026122da565b610e679060026122f9565b67ffffffffffffffff811115610e7f57610e7f61200f565b6040519080825280601f01601f191660200182016040528015610ea9576020820181803683370190505b509050600360fc1b81600081518110610ec457610ec4612225565b60200101906001600160f81b031916908160001a905350600f60fb1b81600181518110610ef357610ef3612225565b60200101906001600160f81b031916908160001a9053506000610f178460026122da565b610f229060016122f9565b90505b6001811115610f9a576f181899199a1a9b1b9c1cb0b131b232b360811b85600f1660108110610f5657610f56612225565b1a60f81b828281518110610f6c57610f6c612225565b60200101906001600160f81b031916908160001a90535060049490941c93610f9381612311565b9050610f25565b5083156104f25760405162461bcd60e51b815260206004820181905260248201527f537472696e67733a20686578206c656e67746820696e73756666696369656e746044820152606401610627565b60606000610ff683611086565b600101905060008167ffffffffffffffff8111156110165761101661200f565b6040519080825280601f01601f191660200182016040528015611040576020820181803683370190505b5090508181016020015b600019016f181899199a1a9b1b9c1cb0b131b232b360811b600a86061a8153600a85049450846110795761107e565b61104a565b509392505050565b6000807a184f03e93ff9f4daa797ed6e38ed64bf6a1f01000000000000000083106110cf577a184f03e93ff9f4daa797ed6e38ed64bf6a1f010000000000000000830492506040015b6d04ee2d6d415b85acef810000000083106110fb576d04ee2d6d415b85acef8100000000830492506020015b662386f26fc10000831061111957662386f26fc10000830492506010015b6305f5e1008310611131576305f5e100830492506008015b612710831061114557612710830492506004015b60648310611157576064830492506002015b600a83106109c75760010192915050565b60006001600160e01b0319821663780e9d6360e01b14806109c757506109c7826117b2565b6000818152600260205260409020546001600160a01b031661095f5760405162461bcd60e51b815260206004820152601860248201527f4552433732313a20696e76616c696420746f6b656e20494400000000000000006044820152606401610627565b600081815260046020526040902080546001600160a01b0319166001600160a01b038416908117909155819061122682610962565b6001600160a01b03167f8c5be1e5ebec7d5bd14f71427d1e84f3dd0314c0f7b2291e5b200ac8c7c3b92560405160405180910390a45050565b60008061126b83610962565b9050806001600160a01b0316846001600160a01b031614806112b257506001600160a01b0380821660009081526005602090815260408083209388168352929052205460ff165b806112d65750836001600160a01b03166112cb8461058b565b6001600160a01b0316145b949350505050565b826001600160a01b03166112f182610962565b6001600160a01b0316146113555760405162461bcd60e51b815260206004820152602560248201527f4552433732313a207472616e736665722066726f6d20696e636f72726563742060448201526437bbb732b960d91b6064820152608401610627565b6001600160a01b0382166113b75760405162461bcd60e51b8152602060048201526024808201527f4552433732313a207472616e7366657220746f20746865207a65726f206164646044820152637265737360e01b6064820152608401610627565b6113c48383836001611802565b826001600160a01b03166113d782610962565b6001600160a01b03161461143b5760405162461bcd60e51b815260206004820152602560248201527f4552433732313a207472616e736665722066726f6d20696e636f72726563742060448201526437bbb732b960d91b6064820152608401610627565b600081815260046020908152604080832080546001600160a01b03199081169091556001600160a01b0387811680865260038552838620805460001901905590871680865283862080546001019055868652600290945282852080549092168417909155905184937fddf252ad1be2c89b69c2b068fc378daa952ba7f163c4a11628f55a4df523b3ef91a4505050565b336114de600b546001600160a01b031690565b6001600160a01b031614610a745760405162461bcd60e51b815260206004820181905260248201527f4f776e61626c653a2063616c6c6572206973206e6f7420746865206f776e65726044820152606401610627565b8051610c6190600a906020840190611e3d565b6060600a8054610508906121ea565b600b80546001600160a01b038381166001600160a01b0319831681179093556040519116919082907f8be0079c531659141344cd1fd0a4f28419497f9722a3daafe3b4186f6b6457e090600090a35050565b60006115b382610962565b90506115c3816000846001611802565b6115cc82610962565b600083815260046020908152604080832080546001600160a01b03199081169091556001600160a01b0385168085526003845282852080546000190190558785526002909352818420805490911690555192935084927fddf252ad1be2c89b69c2b068fc378daa952ba7f163c4a11628f55a4df523b3ef908390a45050565b610c6182826040518060200160405280600081525061193e565b816001600160a01b0316836001600160a01b031614156116c75760405162461bcd60e51b815260206004820152601960248201527f4552433732313a20617070726f766520746f2063616c6c6572000000000000006044820152606401610627565b6001600160a01b03838116600081815260056020908152604080832094871680845294825291829020805460ff191686151590811790915591519182527f17307eab39ab6107e8899845ad3d59bd9653f200f220920489ca2b5937696c31910160405180910390a3505050565b61173f8484846112de565b61174b848484846119bc565b610cdd5760405162461bcd60e51b815260206004820152603260248201527f4552433732313a207472616e7366657220746f206e6f6e20455243373231526560448201527131b2b4bb32b91034b6b83632b6b2b73a32b960711b6064820152608401610627565b60006001600160e01b031982166380ac58cd60e01b14806117e357506001600160e01b03198216635b5e139f60e01b145b806109c757506301ffc9a760e01b6001600160e01b03198316146109c7565b60018111156118795760405162461bcd60e51b815260206004820152603560248201527f455243373231456e756d657261626c653a20636f6e736563757469766520747260448201527f616e7366657273206e6f7420737570706f7274656400000000000000000000006064820152608401610627565b816001600160a01b0385166118d5576118d081600880546000838152600960205260408120829055600182018355919091527ff3f7a9fe364faab93b216da50a3214154f22a0a2b415b23a84c8169e8b636ee30155565b6118f8565b836001600160a01b0316856001600160a01b0316146118f8576118f88582611b14565b6001600160a01b0384166119145761190f81611bb1565b611937565b846001600160a01b0316846001600160a01b031614611937576119378482611c60565b5050505050565b6119488383611ca4565b61195560008484846119bc565b6106c85760405162461bcd60e51b815260206004820152603260248201527f4552433732313a207472616e7366657220746f206e6f6e20455243373231526560448201527131b2b4bb32b91034b6b83632b6b2b73a32b960711b6064820152608401610627565b60006001600160a01b0384163b15611b0957604051630a85bd0160e11b81526001600160a01b0385169063150b7a0290611a00903390899088908890600401612328565b602060405180830381600087803b158015611a1a57600080fd5b505af1925050508015611a4a575060408051601f3d908101601f19168201909252611a4791810190612364565b60015b611aef573d808015611a78576040519150601f19603f3d011682016040523d82523d6000602084013e611a7d565b606091505b508051611ae75760405162461bcd60e51b815260206004820152603260248201527f4552433732313a207472616e7366657220746f206e6f6e20455243373231526560448201527131b2b4bb32b91034b6b83632b6b2b73a32b960711b6064820152608401610627565b805181602001fd5b6001600160e01b031916630a85bd0160e11b1490506112d6565b506001949350505050565b60006001611b21846109dc565b611b2b9190612381565b600083815260076020526040902054909150808214611b7e576001600160a01b03841660009081526006602090815260408083208584528252808320548484528184208190558352600790915290208190555b5060009182526007602090815260408084208490556001600160a01b039094168352600681528383209183525290812055565b600854600090611bc390600190612381565b60008381526009602052604081205460088054939450909284908110611beb57611beb612225565b906000526020600020015490508060088381548110611c0c57611c0c612225565b6000918252602080832090910192909255828152600990915260408082208490558582528120556008805480611c4457611c44612398565b6001900381819060005260206000200160009055905550505050565b6000611c6b836109dc565b6001600160a01b039093166000908152600660209081526040808320868452825280832085905593825260079052919091209190915550565b6001600160a01b038216611cfa5760405162461bcd60e51b815260206004820181905260248201527f4552433732313a206d696e7420746f20746865207a65726f20616464726573736044820152606401610627565b6000818152600260205260409020546001600160a01b031615611d5f5760405162461bcd60e51b815260206004820152601c60248201527f4552433732313a20746f6b656e20616c7265616479206d696e746564000000006044820152606401610627565b611d6d600083836001611802565b6000818152600260205260409020546001600160a01b031615611dd25760405162461bcd60e51b815260206004820152601c60248201527f4552433732313a20746f6b656e20616c7265616479206d696e746564000000006044820152606401610627565b6001600160a01b038216600081815260036020908152604080832080546001019055848352600290915280822080546001600160a01b0319168417905551839291907fddf252ad1be2c89b69c2b068fc378daa952ba7f163c4a11628f55a4df523b3ef908290a45050565b828054611e49906121ea565b90600052602060002090601f016020900481019282611e6b5760008555611eb1565b82601f10611e8457805160ff1916838001178555611eb1565b82800160010185558215611eb1579182015b82811115611eb1578251825591602001919060010190611e96565b50611ebd929150611ec1565b5090565b5b80821115611ebd5760008155600101611ec2565b6001600160e01b03198116811461095f57600080fd5b600060208284031215611efe57600080fd5b81356104f281611ed6565b60005b83811015611f24578181015183820152602001611f0c565b83811115610cdd5750506000910152565b60008151808452611f4d816020860160208601611f09565b601f01601f19169290920160200192915050565b6020815260006104f26020830184611f35565b600060208284031215611f8657600080fd5b5035919050565b80356001600160a01b0381168114611fa457600080fd5b919050565b60008060408385031215611fbc57600080fd5b611fc583611f8d565b946020939093013593505050565b600080600060608486031215611fe857600080fd5b611ff184611f8d565b9250611fff60208501611f8d565b9150604084013590509250925092565b634e487b7160e01b600052604160045260246000fd5b600067ffffffffffffffff808411156120405761204061200f565b604051601f8501601f19908116603f011681019082821181831017156120685761206861200f565b8160405280935085815286868601111561208157600080fd5b858560208301376000602087830101525050509392505050565b6000602082840312156120ad57600080fd5b813567ffffffffffffffff8111156120c457600080fd5b8201601f810184136120d557600080fd5b6112d684823560208401612025565b6000602082840312156120f657600080fd5b6104f282611f8d565b6000806040838503121561211257600080fd5b61211b83611f8d565b91506020830135801515811461213057600080fd5b809150509250929050565b6000806000806080858703121561215157600080fd5b61215a85611f8d565b935061216860208601611f8d565b925060408501359150606085013567ffffffffffffffff81111561218b57600080fd5b8501601f8101871361219c57600080fd5b6121ab87823560208401612025565b91505092959194509250565b600080604083850312156121ca57600080fd5b6121d383611f8d565b91506121e160208401611f8d565b90509250929050565b600181811c908216806121fe57607f821691505b6020821081141561221f57634e487b7160e01b600052602260045260246000fd5b50919050565b634e487b7160e01b600052603260045260246000fd5b6000845161224d818460208901611f09565b8083019050601760f91b808252855161226d816001850160208a01611f09565b60019201918201528351612288816002840160208801611f09565b0160020195945050505050565b600083516122a7818460208801611f09565b8351908301906122bb818360208801611f09565b01949350505050565b634e487b7160e01b600052601160045260246000fd5b60008160001904831182151516156122f4576122f46122c4565b500290565b6000821982111561230c5761230c6122c4565b500190565b600081612320576123206122c4565b506000190190565b60006001600160a01b0380871683528086166020840152508360408301526080606083015261235a6080830184611f35565b9695505050505050565b60006020828403121561237657600080fd5b81516104f281611ed6565b600082821015612393576123936122c4565b500390565b634e487b7160e01b600052603160045260246000fdfea164736f6c6343000809000aa164736f6c6343000809000a",
  "devdoc": {
    "events": {
      "OptimismMintableERC721Created(address,address,address)": {
        "params": {
          "deployer": "Address of the initiator of the deployment",
          "localToken": "Address of the token on the this domain.",
          "remoteToken": "Address of the token on the remote domain."
        }
      }
    },
    "kind": "dev",
    "methods": {
      "constructor": {
        "custom:semver": "1.2.0",
        "params": {
          "_bridge": "Address of the ERC721 bridge on this network.",
          "_remoteChainId": "Chain ID for the remote network."
        }
      },
      "createOptimismMintableERC721(address,string,string)": {
        "params": {
          "_name": "ERC721 name.",
          "_remoteToken": "Address of the corresponding token on the other domain.",
          "_symbol": "ERC721 symbol."
        }
      },
      "version()": {
        "returns": {
          "_0": "Semver contract version as a string."
        }
      }
    },
    "title": "OptimismMintableERC721Factory",
    "version": 1
  },
  "userdoc": {
    "events": {
      "OptimismMintableERC721Created(address,address,address)": {
        "notice": "Emitted whenever a new OptimismMintableERC721 contract is created."
      }
    },
    "kind": "user",
    "methods": {
      "BRIDGE()": {
        "notice": "Address of the ERC721 bridge on this network."
      },
      "REMOTE_CHAIN_ID()": {
        "notice": "Chain ID for the remote network."
      },
      "constructor": {
        "notice": "The semver MUST be bumped any time that there is a change in         the OptimismMintableERC721 token contract since this contract         is responsible for deploying OptimismMintableERC721 contracts."
      },
      "createOptimismMintableERC721(address,string,string)": {
        "notice": "Creates an instance of the standard ERC721."
      },
      "isOptimismMintableERC721(address)": {
        "notice": "Tracks addresses created by this factory."
      },
      "version()": {
        "notice": "Returns the full semver contract version."
      }
    },
    "notice": "Factory contract for creating OptimismMintableERC721 contracts.",
    "version": 1
  },
  "storageLayout": {
    "storage": [
      {
        "astId": 3521,
        "contract": "contracts/universal/OptimismMintableERC721Factory.sol:OptimismMintableERC721Factory",
        "label": "isOptimismMintableERC721",
        "offset": 0,
        "slot": "0",
        "type": "t_mapping(t_address,t_bool)"
      }
    ],
    "types": {
      "t_address": {
        "encoding": "inplace",
        "label": "address",
        "numberOfBytes": "20"
      },
      "t_bool": {
        "encoding": "inplace",
        "label": "bool",
        "numberOfBytes": "1"
      },
      "t_mapping(t_address,t_bool)": {
        "encoding": "mapping",
        "key": "t_address",
        "label": "mapping(address => bool)",
        "numberOfBytes": "32",
        "value": "t_bool"
      }
    }
  }
}